{
  "_format": "hh-sol-artifact-1",
  "contractName": "MarketBasedGovernance",
  "sourceName": "src/governance/sub-governance/MarketBasedGovernance.sol",
  "abi": [
    {
      "inputs": [
        {
          "internalType": "string",
          "name": "name_",
          "type": "string"
        },
        {
          "internalType": "contract ERC20Votes",
          "name": "tokenAddress",
          "type": "address"
        },
        {
          "internalType": "contract ISpatha",
          "name": "spatha_",
          "type": "address"
        },
        {
          "internalType": "uint48",
          "name": "initialVotingDelay",
          "type": "uint48"
        },
        {
          "internalType": "uint32",
          "name": "initialVotingPeriod",
          "type": "uint32"
        },
        {
          "internalType": "uint256",
          "name": "initialProposalThreshold",
          "type": "uint256"
        },
        {
          "internalType": "contract TimelockController",
          "name": "timelockAddress",
          "type": "address"
        }
      ],
      "stateMutability": "nonpayable",
      "type": "constructor"
    },
    {
      "inputs": [],
      "name": "FailedInnerCall",
      "type": "error"
    },
    {
      "inputs": [
        {
          "internalType": "address",
          "name": "voter",
          "type": "address"
        }
      ],
      "name": "GovernorAlreadyCastVote",
      "type": "error"
    },
    {
      "inputs": [
        {
          "internalType": "uint256",
          "name": "proposalId",
          "type": "uint256"
        }
      ],
      "name": "GovernorAlreadyQueuedProposal",
      "type": "error"
    },
    {
      "inputs": [],
      "name": "GovernorDisabledDeposit",
      "type": "error"
    },
    {
      "inputs": [
        {
          "internalType": "address",
          "name": "proposer",
          "type": "address"
        },
        {
          "internalType": "uint256",
          "name": "votes",
          "type": "uint256"
        },
        {
          "internalType": "uint256",
          "name": "threshold",
          "type": "uint256"
        }
      ],
      "name": "GovernorInsufficientProposerVotes",
      "type": "error"
    },
    {
      "inputs": [
        {
          "internalType": "uint256",
          "name": "targets",
          "type": "uint256"
        },
        {
          "internalType": "uint256",
          "name": "calldatas",
          "type": "uint256"
        },
        {
          "internalType": "uint256",
          "name": "values",
          "type": "uint256"
        }
      ],
      "name": "GovernorInvalidProposalLength",
      "type": "error"
    },
    {
      "inputs": [
        {
          "internalType": "address",
          "name": "voter",
          "type": "address"
        }
      ],
      "name": "GovernorInvalidSignature",
      "type": "error"
    },
    {
      "inputs": [],
      "name": "GovernorInvalidVoteType",
      "type": "error"
    },
    {
      "inputs": [
        {
          "internalType": "uint256",
          "name": "votingPeriod",
          "type": "uint256"
        }
      ],
      "name": "GovernorInvalidVotingPeriod",
      "type": "error"
    },
    {
      "inputs": [
        {
          "internalType": "uint256",
          "name": "proposalId",
          "type": "uint256"
        }
      ],
      "name": "GovernorNonexistentProposal",
      "type": "error"
    },
    {
      "inputs": [
        {
          "internalType": "uint256",
          "name": "proposalId",
          "type": "uint256"
        }
      ],
      "name": "GovernorNotQueuedProposal",
      "type": "error"
    },
    {
      "inputs": [
        {
          "internalType": "address",
          "name": "account",
          "type": "address"
        }
      ],
      "name": "GovernorOnlyExecutor",
      "type": "error"
    },
    {
      "inputs": [
        {
          "internalType": "address",
          "name": "account",
          "type": "address"
        }
      ],
      "name": "GovernorOnlyProposer",
      "type": "error"
    },
    {
      "inputs": [],
      "name": "GovernorQueueNotImplemented",
      "type": "error"
    },
    {
      "inputs": [
        {
          "internalType": "address",
          "name": "proposer",
          "type": "address"
        }
      ],
      "name": "GovernorRestrictedProposer",
      "type": "error"
    },
    {
      "inputs": [
        {
          "internalType": "uint256",
          "name": "proposalId",
          "type": "uint256"
        },
        {
          "internalType": "enum IMarketBasedGovernor.ProposalState",
          "name": "current",
          "type": "uint8"
        },
        {
          "internalType": "bytes32",
          "name": "expectedStates",
          "type": "bytes32"
        }
      ],
      "name": "GovernorUnexpectedProposalState",
      "type": "error"
    },
    {
      "inputs": [
        {
          "internalType": "address",
          "name": "account",
          "type": "address"
        },
        {
          "internalType": "uint256",
          "name": "currentNonce",
          "type": "uint256"
        }
      ],
      "name": "InvalidAccountNonce",
      "type": "error"
    },
    {
      "inputs": [],
      "name": "InvalidShortString",
      "type": "error"
    },
    {
      "inputs": [],
      "name": "QueueEmpty",
      "type": "error"
    },
    {
      "inputs": [],
      "name": "QueueFull",
      "type": "error"
    },
    {
      "inputs": [
        {
          "internalType": "uint8",
          "name": "bits",
          "type": "uint8"
        },
        {
          "internalType": "uint256",
          "name": "value",
          "type": "uint256"
        }
      ],
      "name": "SafeCastOverflowedUintDowncast",
      "type": "error"
    },
    {
      "inputs": [
        {
          "internalType": "string",
          "name": "str",
          "type": "string"
        }
      ],
      "name": "StringTooLong",
      "type": "error"
    },
    {
      "inputs": [],
      "name": "VoterDoesNotHavePositionInMarket",
      "type": "error"
    },
    {
      "anonymous": false,
      "inputs": [],
      "name": "EIP712DomainChanged",
      "type": "event"
    },
    {
      "anonymous": false,
      "inputs": [
        {
          "indexed": false,
          "internalType": "uint256",
          "name": "proposalId",
          "type": "uint256"
        },
        {
          "indexed": false,
          "internalType": "address",
          "name": "proposer",
          "type": "address"
        },
        {
          "indexed": false,
          "internalType": "bytes32",
          "name": "marketId",
          "type": "bytes32"
        },
        {
          "indexed": false,
          "internalType": "address[]",
          "name": "targets",
          "type": "address[]"
        },
        {
          "indexed": false,
          "internalType": "uint256[]",
          "name": "values",
          "type": "uint256[]"
        },
        {
          "indexed": false,
          "internalType": "string[]",
          "name": "signatures",
          "type": "string[]"
        },
        {
          "indexed": false,
          "internalType": "bytes[]",
          "name": "calldatas",
          "type": "bytes[]"
        },
        {
          "indexed": false,
          "internalType": "uint256",
          "name": "voteStart",
          "type": "uint256"
        },
        {
          "indexed": false,
          "internalType": "uint256",
          "name": "voteEnd",
          "type": "uint256"
        },
        {
          "indexed": false,
          "internalType": "string",
          "name": "description",
          "type": "string"
        }
      ],
      "name": "MarketProposalCreated",
      "type": "event"
    },
    {
      "anonymous": false,
      "inputs": [
        {
          "indexed": false,
          "internalType": "uint256",
          "name": "proposalId",
          "type": "uint256"
        }
      ],
      "name": "ProposalCanceled",
      "type": "event"
    },
    {
      "anonymous": false,
      "inputs": [
        {
          "indexed": false,
          "internalType": "uint256",
          "name": "proposalId",
          "type": "uint256"
        },
        {
          "indexed": false,
          "internalType": "address",
          "name": "proposer",
          "type": "address"
        },
        {
          "indexed": false,
          "internalType": "address[]",
          "name": "targets",
          "type": "address[]"
        },
        {
          "indexed": false,
          "internalType": "uint256[]",
          "name": "values",
          "type": "uint256[]"
        },
        {
          "indexed": false,
          "internalType": "string[]",
          "name": "signatures",
          "type": "string[]"
        },
        {
          "indexed": false,
          "internalType": "bytes[]",
          "name": "calldatas",
          "type": "bytes[]"
        },
        {
          "indexed": false,
          "internalType": "uint256",
          "name": "voteStart",
          "type": "uint256"
        },
        {
          "indexed": false,
          "internalType": "uint256",
          "name": "voteEnd",
          "type": "uint256"
        },
        {
          "indexed": false,
          "internalType": "string",
          "name": "description",
          "type": "string"
        }
      ],
      "name": "ProposalCreated",
      "type": "event"
    },
    {
      "anonymous": false,
      "inputs": [
        {
          "indexed": false,
          "internalType": "uint256",
          "name": "proposalId",
          "type": "uint256"
        }
      ],
      "name": "ProposalExecuted",
      "type": "event"
    },
    {
      "anonymous": false,
      "inputs": [
        {
          "indexed": false,
          "internalType": "uint256",
          "name": "proposalId",
          "type": "uint256"
        },
        {
          "indexed": false,
          "internalType": "uint256",
          "name": "etaSeconds",
          "type": "uint256"
        }
      ],
      "name": "ProposalQueued",
      "type": "event"
    },
    {
      "anonymous": false,
      "inputs": [
        {
          "indexed": false,
          "internalType": "uint256",
          "name": "oldProposalThreshold",
          "type": "uint256"
        },
        {
          "indexed": false,
          "internalType": "uint256",
          "name": "newProposalThreshold",
          "type": "uint256"
        }
      ],
      "name": "ProposalThresholdSet",
      "type": "event"
    },
    {
      "anonymous": false,
      "inputs": [
        {
          "indexed": false,
          "internalType": "address",
          "name": "oldTimelock",
          "type": "address"
        },
        {
          "indexed": false,
          "internalType": "address",
          "name": "newTimelock",
          "type": "address"
        }
      ],
      "name": "TimelockChange",
      "type": "event"
    },
    {
      "anonymous": false,
      "inputs": [
        {
          "indexed": true,
          "internalType": "address",
          "name": "voter",
          "type": "address"
        },
        {
          "indexed": false,
          "internalType": "uint256",
          "name": "proposalId",
          "type": "uint256"
        },
        {
          "indexed": false,
          "internalType": "uint8",
          "name": "support",
          "type": "uint8"
        },
        {
          "indexed": false,
          "internalType": "uint256",
          "name": "weight",
          "type": "uint256"
        },
        {
          "indexed": false,
          "internalType": "string",
          "name": "reason",
          "type": "string"
        }
      ],
      "name": "VoteCast",
      "type": "event"
    },
    {
      "anonymous": false,
      "inputs": [
        {
          "indexed": true,
          "internalType": "address",
          "name": "voter",
          "type": "address"
        },
        {
          "indexed": false,
          "internalType": "uint256",
          "name": "proposalId",
          "type": "uint256"
        },
        {
          "indexed": false,
          "internalType": "uint8",
          "name": "support",
          "type": "uint8"
        },
        {
          "indexed": false,
          "internalType": "uint256",
          "name": "weight",
          "type": "uint256"
        },
        {
          "indexed": false,
          "internalType": "string",
          "name": "reason",
          "type": "string"
        },
        {
          "indexed": false,
          "internalType": "bytes",
          "name": "params",
          "type": "bytes"
        }
      ],
      "name": "VoteCastWithParams",
      "type": "event"
    },
    {
      "anonymous": false,
      "inputs": [
        {
          "indexed": false,
          "internalType": "uint256",
          "name": "oldVotingDelay",
          "type": "uint256"
        },
        {
          "indexed": false,
          "internalType": "uint256",
          "name": "newVotingDelay",
          "type": "uint256"
        }
      ],
      "name": "VotingDelaySet",
      "type": "event"
    },
    {
      "anonymous": false,
      "inputs": [
        {
          "indexed": false,
          "internalType": "uint256",
          "name": "oldVotingPeriod",
          "type": "uint256"
        },
        {
          "indexed": false,
          "internalType": "uint256",
          "name": "newVotingPeriod",
          "type": "uint256"
        }
      ],
      "name": "VotingPeriodSet",
      "type": "event"
    },
    {
      "inputs": [],
      "name": "BALLOT_TYPEHASH",
      "outputs": [
        {
          "internalType": "bytes32",
          "name": "",
          "type": "bytes32"
        }
      ],
      "stateMutability": "view",
      "type": "function"
    },
    {
      "inputs": [],
      "name": "CLOCK_MODE",
      "outputs": [
        {
          "internalType": "string",
          "name": "",
          "type": "string"
        }
      ],
      "stateMutability": "view",
      "type": "function"
    },
    {
      "inputs": [],
      "name": "COUNTING_MODE",
      "outputs": [
        {
          "internalType": "string",
          "name": "",
          "type": "string"
        }
      ],
      "stateMutability": "pure",
      "type": "function"
    },
    {
      "inputs": [],
      "name": "EXTENDED_BALLOT_TYPEHASH",
      "outputs": [
        {
          "internalType": "bytes32",
          "name": "",
          "type": "bytes32"
        }
      ],
      "stateMutability": "view",
      "type": "function"
    },
    {
      "inputs": [
        {
          "internalType": "uint256",
          "name": "proposalId",
          "type": "uint256"
        }
      ],
      "name": "cancel",
      "outputs": [],
      "stateMutability": "nonpayable",
      "type": "function"
    },
    {
      "inputs": [
        {
          "internalType": "address[]",
          "name": "targets",
          "type": "address[]"
        },
        {
          "internalType": "uint256[]",
          "name": "values",
          "type": "uint256[]"
        },
        {
          "internalType": "bytes[]",
          "name": "calldatas",
          "type": "bytes[]"
        },
        {
          "internalType": "bytes32",
          "name": "descriptionHash",
          "type": "bytes32"
        }
      ],
      "name": "cancel",
      "outputs": [
        {
          "internalType": "uint256",
          "name": "",
          "type": "uint256"
        }
      ],
      "stateMutability": "nonpayable",
      "type": "function"
    },
    {
      "inputs": [
        {
          "internalType": "uint256",
          "name": "proposalId",
          "type": "uint256"
        },
        {
          "internalType": "uint8",
          "name": "support",
          "type": "uint8"
        }
      ],
      "name": "castVote",
      "outputs": [
        {
          "internalType": "uint256",
          "name": "",
          "type": "uint256"
        }
      ],
      "stateMutability": "nonpayable",
      "type": "function"
    },
    {
      "inputs": [
        {
          "internalType": "uint256",
          "name": "proposalId",
          "type": "uint256"
        },
        {
          "internalType": "uint8",
          "name": "support",
          "type": "uint8"
        },
        {
          "internalType": "address",
          "name": "voter",
          "type": "address"
        },
        {
          "internalType": "bytes",
          "name": "signature",
          "type": "bytes"
        }
      ],
      "name": "castVoteBySig",
      "outputs": [
        {
          "internalType": "uint256",
          "name": "",
          "type": "uint256"
        }
      ],
      "stateMutability": "nonpayable",
      "type": "function"
    },
    {
      "inputs": [
        {
          "internalType": "uint256",
          "name": "proposalId",
          "type": "uint256"
        },
        {
          "internalType": "uint8",
          "name": "support",
          "type": "uint8"
        },
        {
          "internalType": "string",
          "name": "reason",
          "type": "string"
        }
      ],
      "name": "castVoteWithReason",
      "outputs": [
        {
          "internalType": "uint256",
          "name": "",
          "type": "uint256"
        }
      ],
      "stateMutability": "nonpayable",
      "type": "function"
    },
    {
      "inputs": [
        {
          "internalType": "uint256",
          "name": "proposalId",
          "type": "uint256"
        },
        {
          "internalType": "uint8",
          "name": "support",
          "type": "uint8"
        },
        {
          "internalType": "string",
          "name": "reason",
          "type": "string"
        },
        {
          "internalType": "bytes",
          "name": "params",
          "type": "bytes"
        }
      ],
      "name": "castVoteWithReasonAndParams",
      "outputs": [
        {
          "internalType": "uint256",
          "name": "",
          "type": "uint256"
        }
      ],
      "stateMutability": "nonpayable",
      "type": "function"
    },
    {
      "inputs": [
        {
          "internalType": "uint256",
          "name": "proposalId",
          "type": "uint256"
        },
        {
          "internalType": "uint8",
          "name": "support",
          "type": "uint8"
        },
        {
          "internalType": "address",
          "name": "voter",
          "type": "address"
        },
        {
          "internalType": "string",
          "name": "reason",
          "type": "string"
        },
        {
          "internalType": "bytes",
          "name": "params",
          "type": "bytes"
        },
        {
          "internalType": "bytes",
          "name": "signature",
          "type": "bytes"
        }
      ],
      "name": "castVoteWithReasonAndParamsBySig",
      "outputs": [
        {
          "internalType": "uint256",
          "name": "",
          "type": "uint256"
        }
      ],
      "stateMutability": "nonpayable",
      "type": "function"
    },
    {
      "inputs": [],
      "name": "clock",
      "outputs": [
        {
          "internalType": "uint48",
          "name": "",
          "type": "uint48"
        }
      ],
      "stateMutability": "view",
      "type": "function"
    },
    {
      "inputs": [],
      "name": "eip712Domain",
      "outputs": [
        {
          "internalType": "bytes1",
          "name": "fields",
          "type": "bytes1"
        },
        {
          "internalType": "string",
          "name": "name",
          "type": "string"
        },
        {
          "internalType": "string",
          "name": "version",
          "type": "string"
        },
        {
          "internalType": "uint256",
          "name": "chainId",
          "type": "uint256"
        },
        {
          "internalType": "address",
          "name": "verifyingContract",
          "type": "address"
        },
        {
          "internalType": "bytes32",
          "name": "salt",
          "type": "bytes32"
        },
        {
          "internalType": "uint256[]",
          "name": "extensions",
          "type": "uint256[]"
        }
      ],
      "stateMutability": "view",
      "type": "function"
    },
    {
      "inputs": [
        {
          "internalType": "address[]",
          "name": "targets",
          "type": "address[]"
        },
        {
          "internalType": "uint256[]",
          "name": "values",
          "type": "uint256[]"
        },
        {
          "internalType": "bytes[]",
          "name": "calldatas",
          "type": "bytes[]"
        },
        {
          "internalType": "bytes32",
          "name": "descriptionHash",
          "type": "bytes32"
        }
      ],
      "name": "execute",
      "outputs": [
        {
          "internalType": "uint256",
          "name": "",
          "type": "uint256"
        }
      ],
      "stateMutability": "payable",
      "type": "function"
    },
    {
      "inputs": [
        {
          "internalType": "uint256",
          "name": "proposalId",
          "type": "uint256"
        }
      ],
      "name": "execute",
      "outputs": [],
      "stateMutability": "payable",
      "type": "function"
    },
    {
      "inputs": [
        {
          "internalType": "address",
          "name": "account",
          "type": "address"
        },
        {
          "internalType": "uint256",
          "name": "timepoint",
          "type": "uint256"
        }
      ],
      "name": "getVotes",
      "outputs": [
        {
          "internalType": "uint256",
          "name": "",
          "type": "uint256"
        }
      ],
      "stateMutability": "view",
      "type": "function"
    },
    {
      "inputs": [
        {
          "internalType": "address",
          "name": "account",
          "type": "address"
        },
        {
          "internalType": "uint256",
          "name": "timepoint",
          "type": "uint256"
        },
        {
          "internalType": "bytes",
          "name": "params",
          "type": "bytes"
        }
      ],
      "name": "getVotesWithParams",
      "outputs": [
        {
          "internalType": "uint256",
          "name": "",
          "type": "uint256"
        }
      ],
      "stateMutability": "view",
      "type": "function"
    },
    {
      "inputs": [
        {
          "internalType": "uint256",
          "name": "proposalId",
          "type": "uint256"
        },
        {
          "internalType": "address",
          "name": "account",
          "type": "address"
        }
      ],
      "name": "hasVoted",
      "outputs": [
        {
          "internalType": "bool",
          "name": "",
          "type": "bool"
        }
      ],
      "stateMutability": "view",
      "type": "function"
    },
    {
      "inputs": [
        {
          "internalType": "address[]",
          "name": "targets",
          "type": "address[]"
        },
        {
          "internalType": "uint256[]",
          "name": "values",
          "type": "uint256[]"
        },
        {
          "internalType": "bytes[]",
          "name": "calldatas",
          "type": "bytes[]"
        },
        {
          "internalType": "bytes32",
          "name": "descriptionHash",
          "type": "bytes32"
        }
      ],
      "name": "hashProposal",
      "outputs": [
        {
          "internalType": "uint256",
          "name": "",
          "type": "uint256"
        }
      ],
      "stateMutability": "pure",
      "type": "function"
    },
    {
      "inputs": [],
      "name": "name",
      "outputs": [
        {
          "internalType": "string",
          "name": "",
          "type": "string"
        }
      ],
      "stateMutability": "view",
      "type": "function"
    },
    {
      "inputs": [
        {
          "internalType": "address",
          "name": "owner",
          "type": "address"
        }
      ],
      "name": "nonces",
      "outputs": [
        {
          "internalType": "uint256",
          "name": "",
          "type": "uint256"
        }
      ],
      "stateMutability": "view",
      "type": "function"
    },
    {
      "inputs": [
        {
          "internalType": "address",
          "name": "",
          "type": "address"
        },
        {
          "internalType": "address",
          "name": "",
          "type": "address"
        },
        {
          "internalType": "uint256[]",
          "name": "",
          "type": "uint256[]"
        },
        {
          "internalType": "uint256[]",
          "name": "",
          "type": "uint256[]"
        },
        {
          "internalType": "bytes",
          "name": "",
          "type": "bytes"
        }
      ],
      "name": "onERC1155BatchReceived",
      "outputs": [
        {
          "internalType": "bytes4",
          "name": "",
          "type": "bytes4"
        }
      ],
      "stateMutability": "nonpayable",
      "type": "function"
    },
    {
      "inputs": [
        {
          "internalType": "address",
          "name": "",
          "type": "address"
        },
        {
          "internalType": "address",
          "name": "",
          "type": "address"
        },
        {
          "internalType": "uint256",
          "name": "",
          "type": "uint256"
        },
        {
          "internalType": "uint256",
          "name": "",
          "type": "uint256"
        },
        {
          "internalType": "bytes",
          "name": "",
          "type": "bytes"
        }
      ],
      "name": "onERC1155Received",
      "outputs": [
        {
          "internalType": "bytes4",
          "name": "",
          "type": "bytes4"
        }
      ],
      "stateMutability": "nonpayable",
      "type": "function"
    },
    {
      "inputs": [
        {
          "internalType": "address",
          "name": "",
          "type": "address"
        },
        {
          "internalType": "address",
          "name": "",
          "type": "address"
        },
        {
          "internalType": "uint256",
          "name": "",
          "type": "uint256"
        },
        {
          "internalType": "bytes",
          "name": "",
          "type": "bytes"
        }
      ],
      "name": "onERC721Received",
      "outputs": [
        {
          "internalType": "bytes4",
          "name": "",
          "type": "bytes4"
        }
      ],
      "stateMutability": "nonpayable",
      "type": "function"
    },
    {
      "inputs": [],
      "name": "proposalCount",
      "outputs": [
        {
          "internalType": "uint256",
          "name": "",
          "type": "uint256"
        }
      ],
      "stateMutability": "view",
      "type": "function"
    },
    {
      "inputs": [
        {
          "internalType": "uint256",
          "name": "proposalId",
          "type": "uint256"
        }
      ],
      "name": "proposalDeadline",
      "outputs": [
        {
          "internalType": "uint256",
          "name": "",
          "type": "uint256"
        }
      ],
      "stateMutability": "view",
      "type": "function"
    },
    {
      "inputs": [
        {
          "internalType": "uint256",
          "name": "proposalId",
          "type": "uint256"
        }
      ],
      "name": "proposalDetails",
      "outputs": [
        {
          "internalType": "bytes32",
          "name": "marketId",
          "type": "bytes32"
        },
        {
          "internalType": "address[]",
          "name": "",
          "type": "address[]"
        },
        {
          "internalType": "uint256[]",
          "name": "",
          "type": "uint256[]"
        },
        {
          "internalType": "bytes[]",
          "name": "",
          "type": "bytes[]"
        },
        {
          "internalType": "bytes32",
          "name": "",
          "type": "bytes32"
        }
      ],
      "stateMutability": "view",
      "type": "function"
    },
    {
      "inputs": [
        {
          "internalType": "uint256",
          "name": "index",
          "type": "uint256"
        }
      ],
      "name": "proposalDetailsAt",
      "outputs": [
        {
          "internalType": "uint256",
          "name": "",
          "type": "uint256"
        },
        {
          "internalType": "bytes32",
          "name": "",
          "type": "bytes32"
        },
        {
          "internalType": "address[]",
          "name": "",
          "type": "address[]"
        },
        {
          "internalType": "uint256[]",
          "name": "",
          "type": "uint256[]"
        },
        {
          "internalType": "bytes[]",
          "name": "",
          "type": "bytes[]"
        },
        {
          "internalType": "bytes32",
          "name": "",
          "type": "bytes32"
        }
      ],
      "stateMutability": "view",
      "type": "function"
    },
    {
      "inputs": [
        {
          "internalType": "uint256",
          "name": "proposalId",
          "type": "uint256"
        }
      ],
      "name": "proposalEta",
      "outputs": [
        {
          "internalType": "uint256",
          "name": "",
          "type": "uint256"
        }
      ],
      "stateMutability": "view",
      "type": "function"
    },
    {
      "inputs": [
        {
          "internalType": "uint256",
          "name": "",
          "type": "uint256"
        }
      ],
      "name": "proposalNeedsQueuing",
      "outputs": [
        {
          "internalType": "bool",
          "name": "",
          "type": "bool"
        }
      ],
      "stateMutability": "view",
      "type": "function"
    },
    {
      "inputs": [
        {
          "internalType": "uint256",
          "name": "proposalId",
          "type": "uint256"
        }
      ],
      "name": "proposalProposer",
      "outputs": [
        {
          "internalType": "address",
          "name": "",
          "type": "address"
        }
      ],
      "stateMutability": "view",
      "type": "function"
    },
    {
      "inputs": [
        {
          "internalType": "uint256",
          "name": "proposalId",
          "type": "uint256"
        }
      ],
      "name": "proposalSnapshot",
      "outputs": [
        {
          "internalType": "uint256",
          "name": "",
          "type": "uint256"
        }
      ],
      "stateMutability": "view",
      "type": "function"
    },
    {
      "inputs": [],
      "name": "proposalThreshold",
      "outputs": [
        {
          "internalType": "uint256",
          "name": "",
          "type": "uint256"
        }
      ],
      "stateMutability": "view",
      "type": "function"
    },
    {
      "inputs": [
        {
          "internalType": "uint256",
          "name": "proposalId",
          "type": "uint256"
        }
      ],
      "name": "proposalVotes",
      "outputs": [
        {
          "internalType": "uint256",
          "name": "againstVotes",
          "type": "uint256"
        },
        {
          "internalType": "uint256",
          "name": "forVotes",
          "type": "uint256"
        },
        {
          "internalType": "uint256",
          "name": "abstainVotes",
          "type": "uint256"
        }
      ],
      "stateMutability": "view",
      "type": "function"
    },
    {
      "inputs": [
        {
          "internalType": "bytes32",
          "name": "marketId",
          "type": "bytes32"
        },
        {
          "internalType": "address[]",
          "name": "targets",
          "type": "address[]"
        },
        {
          "internalType": "uint256[]",
          "name": "values",
          "type": "uint256[]"
        },
        {
          "internalType": "bytes[]",
          "name": "calldatas",
          "type": "bytes[]"
        },
        {
          "internalType": "string",
          "name": "description",
          "type": "string"
        }
      ],
      "name": "propose",
      "outputs": [
        {
          "internalType": "uint256",
          "name": "",
          "type": "uint256"
        }
      ],
      "stateMutability": "nonpayable",
      "type": "function"
    },
    {
      "inputs": [
        {
          "internalType": "address[]",
          "name": "targets",
          "type": "address[]"
        },
        {
          "internalType": "uint256[]",
          "name": "values",
          "type": "uint256[]"
        },
        {
          "internalType": "bytes[]",
          "name": "calldatas",
          "type": "bytes[]"
        },
        {
          "internalType": "bytes32",
          "name": "descriptionHash",
          "type": "bytes32"
        }
      ],
      "name": "queue",
      "outputs": [
        {
          "internalType": "uint256",
          "name": "",
          "type": "uint256"
        }
      ],
      "stateMutability": "nonpayable",
      "type": "function"
    },
    {
      "inputs": [
        {
          "internalType": "uint256",
          "name": "proposalId",
          "type": "uint256"
        }
      ],
      "name": "queue",
      "outputs": [],
      "stateMutability": "nonpayable",
      "type": "function"
    },
    {
      "inputs": [
        {
          "internalType": "address",
          "name": "target",
          "type": "address"
        },
        {
          "internalType": "uint256",
          "name": "value",
          "type": "uint256"
        },
        {
          "internalType": "bytes",
          "name": "data",
          "type": "bytes"
        }
      ],
      "name": "relay",
      "outputs": [],
      "stateMutability": "payable",
      "type": "function"
    },
    {
      "inputs": [
        {
          "internalType": "uint256",
          "name": "newProposalThreshold",
          "type": "uint256"
        }
      ],
      "name": "setProposalThreshold",
      "outputs": [],
      "stateMutability": "nonpayable",
      "type": "function"
    },
    {
      "inputs": [
        {
          "internalType": "uint48",
          "name": "newVotingDelay",
          "type": "uint48"
        }
      ],
      "name": "setVotingDelay",
      "outputs": [],
      "stateMutability": "nonpayable",
      "type": "function"
    },
    {
      "inputs": [
        {
          "internalType": "uint32",
          "name": "newVotingPeriod",
          "type": "uint32"
        }
      ],
      "name": "setVotingPeriod",
      "outputs": [],
      "stateMutability": "nonpayable",
      "type": "function"
    },
    {
      "inputs": [
        {
          "internalType": "uint256",
          "name": "proposalId",
          "type": "uint256"
        }
      ],
      "name": "state",
      "outputs": [
        {
          "internalType": "enum IMarketBasedGovernor.ProposalState",
          "name": "",
          "type": "uint8"
        }
      ],
      "stateMutability": "view",
      "type": "function"
    },
    {
      "inputs": [
        {
          "internalType": "bytes4",
          "name": "interfaceId",
          "type": "bytes4"
        }
      ],
      "name": "supportsInterface",
      "outputs": [
        {
          "internalType": "bool",
          "name": "",
          "type": "bool"
        }
      ],
      "stateMutability": "view",
      "type": "function"
    },
    {
      "inputs": [],
      "name": "timelock",
      "outputs": [
        {
          "internalType": "address",
          "name": "",
          "type": "address"
        }
      ],
      "stateMutability": "view",
      "type": "function"
    },
    {
      "inputs": [],
      "name": "token",
      "outputs": [
        {
          "internalType": "contract IERC5805",
          "name": "",
          "type": "address"
        }
      ],
      "stateMutability": "view",
      "type": "function"
    },
    {
      "inputs": [
        {
          "internalType": "contract TimelockController",
          "name": "newTimelock",
          "type": "address"
        }
      ],
      "name": "updateTimelock",
      "outputs": [],
      "stateMutability": "nonpayable",
      "type": "function"
    },
    {
      "inputs": [],
      "name": "version",
      "outputs": [
        {
          "internalType": "string",
          "name": "",
          "type": "string"
        }
      ],
      "stateMutability": "view",
      "type": "function"
    },
    {
      "inputs": [],
      "name": "votingDelay",
      "outputs": [
        {
          "internalType": "uint256",
          "name": "",
          "type": "uint256"
        }
      ],
      "stateMutability": "view",
      "type": "function"
    },
    {
      "inputs": [],
      "name": "votingPeriod",
      "outputs": [
        {
          "internalType": "uint256",
          "name": "",
          "type": "uint256"
        }
      ],
      "stateMutability": "view",
      "type": "function"
    },
    {
      "stateMutability": "payable",
      "type": "receive"
    }
  ],
  "bytecode": "0x6101a06040523480156200001257600080fd5b506040516200522b3803806200522b8339810160408190526200003591620003e2565b838383888a806200005a6040805180820190915260018152603160f81b602082015290565b6200006782600062000193565b610120526200007881600162000193565b61014052815160208084019190912060e052815190820120610100524660a0526200010660e05161010051604080517f8b73c3c69bb8fe3d512ecc4cf759cc79239f7b179b0ffacaa9a75d522b39400f60208201529081019290925260608201524660808201523060a082015260009060c00160405160208183030381529060405280519060200120905090565b60805250503060c05260036200011d828262000594565b50506001600160a01b0316610160526200013783620001cc565b620001428262000232565b6200014d81620002d9565b5050506001600160a01b0394851661018052600b8054919095166a010000000000000000000002600160501b600160f01b03199091161790935550620006ba9350505050565b6000602083511015620001b357620001ab836200031a565b9050620001c6565b81620001c0848262000594565b5060ff90505b92915050565b6009546040805165ffffffffffff928316815291831660208301527fc565b045403dc03c2eea82b81a0465edad9e2e7fc4d97e11421c209da93d7a93910160405180910390a16009805465ffffffffffff191665ffffffffffff92909216919091179055565b8063ffffffff16600003620002625760405163f1cfbf0560e01b8152600060048201526024015b60405180910390fd5b6009546040805163ffffffff66010000000000009093048316815291831660208301527f7e3f7f0708a84de9203036abaa450dccc85ad5ff52f78c170f3edb55cf5e8828910160405180910390a16009805463ffffffff90921666010000000000000263ffffffff60301b19909216919091179055565b60085460408051918252602082018390527fccb45da8d5717e6c4544694297c4ba5cf151d455c9bb0ed4fc7a38411bc05461910160405180910390a1600855565b600080829050601f8151111562000348578260405163305a27a960e01b815260040162000259919062000660565b8051620003558262000695565b179392505050565b634e487b7160e01b600052604160045260246000fd5b60005b838110156200039057818101518382015260200162000376565b50506000910152565b80516001600160a01b0381168114620003b157600080fd5b919050565b805165ffffffffffff81168114620003b157600080fd5b805163ffffffff81168114620003b157600080fd5b600080600080600080600060e0888a031215620003fe57600080fd5b87516001600160401b03808211156200041657600080fd5b818a0191508a601f8301126200042b57600080fd5b8151818111156200044057620004406200035d565b604051601f8201601f19908116603f011681019083821181831017156200046b576200046b6200035d565b816040528281528d60208487010111156200048557600080fd5b6200049883602083016020880162000373565b809b505050505050620004ae6020890162000399565b9550620004be6040890162000399565b9450620004ce60608901620003b6565b9350620004de60808901620003cd565b925060a08801519150620004f560c0890162000399565b905092959891949750929550565b600181811c908216806200051857607f821691505b6020821081036200053957634e487b7160e01b600052602260045260246000fd5b50919050565b601f8211156200058f576000816000526020600020601f850160051c810160208610156200056a5750805b601f850160051c820191505b818110156200058b5782815560010162000576565b5050505b505050565b81516001600160401b03811115620005b057620005b06200035d565b620005c881620005c1845462000503565b846200053f565b602080601f831160018114620006005760008415620005e75750858301515b600019600386901b1c1916600185901b1785556200058b565b600085815260208120601f198616915b82811015620006315788860151825594840194600190910190840162000610565b5085821015620006505787850151600019600388901b60f8161c191681555b5050505050600190811b01905550565b60208152600082518060208401526200068181604085016020870162000373565b601f01601f19169190910160400192915050565b80516020808301519190811015620005395760001960209190910360031b1b16919050565b60805160a05160c05160e0516101005161012051610140516101605161018051614ae462000747600039600081816114bc0152818161159b015281816116840152818161177d015261189901526000611d74015260006128cc0152600061289f015260006133510152600061332901526000613284015260006132ae015260006132d80152614ae46000f3fe6080604052600436106102425760003560e01c80637b3c71d3116101355780637b3c71d3146106595780637ecebe001461067957806384b0196e146106af5780638ff262e3146106d757806391ddadf4146106f75780639a802a6d14610723578063a890c91014610743578063a9a9529414610763578063ab58fb8e14610784578063b58131b0146107a4578063bc197c81146107b9578063c01f9e37146107d9578063c28bc2fa146107f9578063c59057e41461080c578063d33219b41461082c578063da35c66414610841578063dd4e2ba514610856578063ddf0b0091461089c578063deaaa7cc146108bc578063e540d01d146108f0578063eb9019d414610910578063ece40cc114610930578063f23a6e6114610950578063fc0c546a14610970578063fe0d94c11461098557600080fd5b806301ffc9a71461027e57806302a251a3146102b357806306fdde03146102df578063143489d014610301578063150b7a021461032e578063160cbed71461036757806316e9eaec1461038757806319a64262146103b85780632656227d146103d85780632d63f693146103eb5780632e82db941461040b5780632fe3e2611461043d5780633932abb1146104715780633e4f49e61461048e57806340e58ee5146104bb57806343859632146104db578063452115d6146105255780634bf5d7e914610545578063544ffc9c1461055a57806354fd4d50146105af57806356781388146105d95780635b8d0e0d146105f95780635f398a1414610619578063790518871461063957600080fd5b366102795730610250610998565b6001600160a01b03161461027757604051637485328f60e11b815260040160405180910390fd5b005b600080fd5b34801561028a57600080fd5b5061029e610299366004613848565b6109ae565b60405190151581526020015b60405180910390f35b3480156102bf57600080fd5b50600954600160301b900463ffffffff165b6040519081526020016102aa565b3480156102eb57600080fd5b506102f4610a00565b6040516102aa91906138c2565b34801561030d57600080fd5b5061032161031c3660046138d5565b610a92565b6040516102aa91906138ee565b34801561033a57600080fd5b5061034e6103493660046139e2565b610aad565b6040516001600160e01b031990911681526020016102aa565b34801561037357600080fd5b506102d1610382366004613bc1565b610af0565b34801561039357600080fd5b506103a76103a23660046138d5565b610bbf565b6040516102aa959493929190613d20565b3480156103c457600080fd5b506102d16103d3366004613d72565b610de7565b6102d16103e6366004613bc1565b610e9d565b3480156103f757600080fd5b506102d16104063660046138d5565b611009565b34801561041757600080fd5b5061042b6104263660046138d5565b61102a565b6040516102aa96959493929190613e3c565b34801561044957600080fd5b506102d17f3e83946653575f9a39005e1545185629e92736b7528ab20ca3816f315424a81181565b34801561047d57600080fd5b5060095465ffffffffffff166102d1565b34801561049a57600080fd5b506104ae6104a93660046138d5565b611084565b6040516102aa9190613ecd565b3480156104c757600080fd5b506102776104d63660046138d5565b6111d0565b3480156104e757600080fd5b5061029e6104f6366004613edb565b60008281526007602090815260408083206001600160a01b038516845260030190915290205460ff1692915050565b34801561053157600080fd5b506102d1610540366004613bc1565b611374565b34801561055157600080fd5b506102f46113e6565b34801561056657600080fd5b506105946105753660046138d5565b6000908152600760205260409020805460018201546002909201549092565b604080519384526020840192909252908201526060016102aa565b3480156105bb57600080fd5b506040805180820190915260018152603160f81b60208201526102f4565b3480156105e557600080fd5b506102d16105f4366004613f1c565b61148f565b34801561060557600080fd5b506102d1610614366004613f90565b61156e565b34801561062557600080fd5b506102d161063436600461404a565b611657565b34801561064557600080fd5b506102776106543660046140d4565b61173c565b34801561066557600080fd5b506102d16106743660046140f1565b611750565b34801561068557600080fd5b506102d161069436600461414a565b6001600160a01b031660009081526002602052604090205490565b3480156106bb57600080fd5b506106c4611826565b6040516102aa9796959493929190614167565b3480156106e357600080fd5b506102d16106f23660046141c9565b61186c565b34801561070357600080fd5b5061070c611942565b60405165ffffffffffff90911681526020016102aa565b34801561072f57600080fd5b506102d161073e36600461421a565b6119b6565b34801561074f57600080fd5b5061027761075e36600461414a565b6119cb565b34801561076f57600080fd5b5061029e61077e3660046138d5565b50600190565b34801561079057600080fd5b506102d161079f3660046138d5565b6119dc565b3480156107b057600080fd5b506102d16119f9565b3480156107c557600080fd5b5061034e6107d4366004614272565b611a04565b3480156107e557600080fd5b506102d16107f43660046138d5565b611a48565b610277610807366004614305565b611a8b565b34801561081857600080fd5b506102d1610827366004613bc1565b611b0b565b34801561083857600080fd5b50610321610998565b34801561084d57600080fd5b50600d546102d1565b34801561086257600080fd5b506040805180820190915260208082527f737570706f72743d627261766f2671756f72756d3d666f722c6162737461696e908201526102f4565b3480156108a857600080fd5b506102776108b73660046138d5565b611b45565b3480156108c857600080fd5b506102d17ff2aad550cf55f045cb27e9c559f9889fdfb6e6cdaa032301d6ea397784ae51d781565b3480156108fc57600080fd5b5061027761090b366004614348565b611ce4565b34801561091c57600080fd5b506102d161092b36600461436e565b611cf5565b34801561093c57600080fd5b5061027761094b3660046138d5565b611d1d565b34801561095c57600080fd5b5061034e61096b36600461439a565b611d2e565b34801561097c57600080fd5b50610321611d72565b6102776109933660046138d5565b611d96565b600b54600160501b90046001600160a01b031690565b60006001600160e01b03198216633e5cf3c360e21b14806109df57506001600160e01b03198216630271189760e51b145b806109fa57506301ffc9a760e01b6001600160e01b03198316145b92915050565b606060038054610a0f90614402565b80601f0160208091040260200160405190810160405280929190818152602001828054610a3b90614402565b8015610a885780601f10610a5d57610100808354040283529160200191610a88565b820191906000526020600020905b815481529060010190602001808311610a6b57829003601f168201915b5050505050905090565b6000908152600460205260409020546001600160a01b031690565b600030610ab8610998565b6001600160a01b031614610adf57604051637485328f60e11b815260040160405180910390fd5b50630a85bd0160e11b949350505050565b600080610aff86868686611b0b565b9050610b1481610b0f6004611f35565b611f58565b506000610b248288888888611f97565b905065ffffffffffff811615610b9c57600082815260046020908152604091829020600101805465ffffffffffff191665ffffffffffff85169081179091558251858152918201527f9a2e42fd6722813d69113e7d0079d3d940171428df7373df9c7f7617cfda2892910160405180910390a1610bb5565b604051634844252360e11b815260040160405180910390fd5b5095945050505050565b60006060806060600080600e60008881526020019081526020016000206040518060a00160405290816000820154815260200160018201805480602002602001604051908101604052809291908181526020018280548015610c4a57602002820191906000526020600020905b81546001600160a01b03168152600190910190602001808311610c2c575b5050505050815260200160028201805480602002602001604051908101604052809291908181526020018280548015610ca257602002820191906000526020600020905b815481526020019060010190808311610c8e575b5050505050815260200160038201805480602002602001604051908101604052809291908181526020016000905b82821015610d7c578382906000526020600020018054610cef90614402565b80601f0160208091040260200160405190810160405280929190818152602001828054610d1b90614402565b8015610d685780601f10610d3d57610100808354040283529160200191610d68565b820191906000526020600020905b815481529060010190602001808311610d4b57829003601f168201915b505050505081526020019060010190610cd0565b505050508152602001600482015481525050905080608001516000801b03610dbf57604051636ad0607560e01b8152600481018890526024015b60405180910390fd5b8051602082015160408301516060840151608090940151929a91995097509195509350915050565b600033610df48184612143565b610e13578060405163d9b3955760e01b8152600401610db691906138ee565b6000610e3a826001610e23611942565b610e2d9190614452565b65ffffffffffff16611cf5565b90506000610e466119f9565b905080821015610e8257604051636121770b60e11b81526001600160a01b03841660048201526024810183905260448101829052606401610db6565b610e9089898989898861222e565b9998505050505050505050565b600080610eac86868686611b0b565b9050610ecc81610ebc6005611f35565b610ec66004611f35565b17611f58565b506000818152600460205260409020805460ff60f01b1916600160f01b17905530610ef5610998565b6001600160a01b031614610f7f5760005b8651811015610f7d57306001600160a01b0316878281518110610f2b57610f2b614478565b60200260200101516001600160a01b031603610f7557610f75858281518110610f5657610f56614478565b602002602001015180519060200120600561231d90919063ffffffff16565b600101610f06565b505b610f8c818787878761238e565b30610f95610998565b6001600160a01b031614158015610fc157506005546001600160801b03808216600160801b9092041614155b15610fcc5760006005555b6040518181527f712ae1383f79ac853f8d882153778e0260ef8f03b504e2866e0593e04d2b291f906020015b60405180910390a195945050505050565b600090815260046020526040902054600160a01b900465ffffffffffff1690565b6000806060806060600080600d888154811061104857611048614478565b90600052602060002001549050600080600080600061106686610bbf565b999f50929d50909b5099509750949550505050505091939550919395565b6000806110908361241f565b905060058160078111156110a6576110a6613e95565b146110b15792915050565b6000838152600c60205260409081902054600b549151632c258a9f60e11b8152600481018290529091600160501b90046001600160a01b03169063584b153e90602401602060405180830381865afa158015611111573d6000803e3d6000fd5b505050506040513d601f19601f82011682018060405250810190611135919061448e565b15611144575060059392505050565b600b54604051632ab0f52960e01b815260048101839052600160501b9091046001600160a01b031690632ab0f52990602401602060405180830381865afa158015611193573d6000803e3d6000fd5b505050506040513d601f19601f820116820180604052508101906111b7919061448e565b156111c6575060079392505050565b5060029392505050565b6000818152600e6020908152604091829020600181018054845181850281018501909552808552919361136f9390929083018282801561123957602002820191906000526020600020905b81546001600160a01b0316815260019091019060200180831161121b575b50505050508260020180548060200260200160405190810160405280929190818152602001828054801561128c57602002820191906000526020600020905b815481526020019060010190808311611278575b505050505083600301805480602002602001604051908101604052809291908181526020016000905b828210156113615783829060005260206000200180546112d490614402565b80601f016020809104026020016040519081016040528092919081815260200182805461130090614402565b801561134d5780601f106113225761010080835404028352916020019161134d565b820191906000526020600020905b81548152906001019060200180831161133057829003601f168201915b5050505050815260200190600101906112b5565b505050508460040154611374565b505050565b60008061138386868686611b0b565b905061139381610b0f6000611f35565b5061139d81610a92565b6001600160a01b0316336001600160a01b0316146113d0573360405163233d98e360e01b8152600401610db691906138ee565b6113dc86868686612535565b9695505050505050565b60606113f0611d72565b6001600160a01b0316634bf5d7e96040518163ffffffff1660e01b8152600401600060405180830381865afa92505050801561144e57506040513d6000823e601f3d908101601f1916820160405261144b91908101906144b0565b60015b61148a575060408051808201909152601d81527f6d6f64653d626c6f636b6e756d6265722666726f6d3d64656661756c74000000602082015290565b919050565b600082336000828152600e6020526040808220549051635c38882160e01b81529091906001600160a01b037f00000000000000000000000000000000000000000000000000000000000000001690635c388821906114f3908590879060040161451d565b606060405180830381865afa158015611510573d6000803e3d6000fd5b505050506040513d601f19601f82011682018060405250810190611534919061454b565b5050905080600003611559576040516381dda9dd60e01b815260040160405180910390fd5b61156387876125da565b979650505050505050565b600087336000828152600e6020526040808220549051635c38882160e01b81529091906001600160a01b037f00000000000000000000000000000000000000000000000000000000000000001690635c388821906115d2908590879060040161451d565b606060405180830381865afa1580156115ef573d6000803e3d6000fd5b505050506040513d601f19601f82011682018060405250810190611613919061454b565b5050905080600003611638576040516381dda9dd60e01b815260040160405180910390fd5b6116478c8c8c8c8c8c8c6125fb565b9c9b505050505050505050505050565b600085336000828152600e6020526040808220549051635c38882160e01b81529091906001600160a01b037f00000000000000000000000000000000000000000000000000000000000000001690635c388821906116bb908590879060040161451d565b606060405180830381865afa1580156116d8573d6000803e3d6000fd5b505050506040513d601f19601f820116820180604052508101906116fc919061454b565b5050905080600003611721576040516381dda9dd60e01b815260040160405180910390fd5b61172e8a8a8a8a8a612726565b9a9950505050505050505050565b611744612770565b61174d816127ea565b50565b600084336000828152600e6020526040808220549051635c38882160e01b81529091906001600160a01b037f00000000000000000000000000000000000000000000000000000000000000001690635c388821906117b4908590879060040161451d565b606060405180830381865afa1580156117d1573d6000803e3d6000fd5b505050506040513d601f19601f820116820180604052508101906117f5919061454b565b505090508060000361181a576040516381dda9dd60e01b815260040160405180910390fd5b610e9089898989612850565b60006060806000806000606061183a612898565b6118426128c5565b60408051600080825260208201909252600f60f81b9b939a50919850469750309650945092509050565b600084336000828152600e6020526040808220549051635c38882160e01b81529091906001600160a01b037f00000000000000000000000000000000000000000000000000000000000000001690635c388821906118d0908590879060040161451d565b606060405180830381865afa1580156118ed573d6000803e3d6000fd5b505050506040513d601f19601f82011682018060405250810190611911919061454b565b5050905080600003611936576040516381dda9dd60e01b815260040160405180910390fd5b610e90898989896128f2565b600061194c611d72565b6001600160a01b03166391ddadf46040518163ffffffff1660e01b8152600401602060405180830381865afa9250505080156119a5575060408051601f3d908101601f191682019092526119a291810190614587565b60015b61148a576119b161299d565b905090565b60006119c38484846129a8565b949350505050565b6119d3612770565b61174d81612a25565b60009081526004602052604090206001015465ffffffffffff1690565b60006119b160085490565b600030611a0f610998565b6001600160a01b031614611a3657604051637485328f60e11b815260040160405180910390fd5b5063bc197c8160e01b95945050505050565b600081815260046020526040812054611a7d90600160d01b810463ffffffff1690600160a01b900465ffffffffffff166145a4565b65ffffffffffff1692915050565b611a93612770565b600080856001600160a01b0316858585604051611ab19291906145c3565b60006040518083038185875af1925050503d8060008114611aee576040519150601f19603f3d011682016040523d82523d6000602084013e611af3565b606091505b5091509150611b028282612a9f565b50505050505050565b600084848484604051602001611b2494939291906145d3565b60408051601f19818403018152919052805160209091012095945050505050565b6000818152600e6020908152604091829020600181018054845181850281018501909552808552919361136f93909290830182828015611bae57602002820191906000526020600020905b81546001600160a01b03168152600190910190602001808311611b90575b505050505082600201805480602002602001604051908101604052809291908181526020018280548015611c0157602002820191906000526020600020905b815481526020019060010190808311611bed575b505050505083600301805480602002602001604051908101604052809291908181526020016000905b82821015611cd6578382906000526020600020018054611c4990614402565b80601f0160208091040260200160405190810160405280929190818152602001828054611c7590614402565b8015611cc25780601f10611c9757610100808354040283529160200191611cc2565b820191906000526020600020905b815481529060010190602001808311611ca557829003601f168201915b505050505081526020019060010190611c2a565b505050508460040154610af0565b611cec612770565b61174d81612abb565b6000611d168383611d1160408051602081019091526000815290565b6129a8565b9392505050565b611d25612770565b61174d81612b56565b600030611d39610998565b6001600160a01b031614611d6057604051637485328f60e11b815260040160405180910390fd5b5063f23a6e6160e01b95945050505050565b7f000000000000000000000000000000000000000000000000000000000000000090565b6000818152600e6020908152604091829020600181018054845181850281018501909552808552919361136f93909290830182828015611dff57602002820191906000526020600020905b81546001600160a01b03168152600190910190602001808311611de1575b505050505082600201805480602002602001604051908101604052809291908181526020018280548015611e5257602002820191906000526020600020905b815481526020019060010190808311611e3e575b505050505083600301805480602002602001604051908101604052809291908181526020016000905b82821015611f27578382906000526020600020018054611e9a90614402565b80601f0160208091040260200160405190810160405280929190818152602001828054611ec690614402565b8015611f135780601f10611ee857610100808354040283529160200191611f13565b820191906000526020600020905b815481529060010190602001808311611ef657829003601f168201915b505050505081526020019060010190611e7b565b505050508460040154610e9d565b6000816007811115611f4957611f49613e95565b600160ff919091161b92915050565b600080611f6484611084565b9050600083611f7283611f35565b1603611d16578381846040516331b75e4d60e01b8152600401610db69392919061461e565b600080600b600a9054906101000a90046001600160a01b03166001600160a01b031663f27a0c926040518163ffffffff1660e01b8152600401602060405180830381865afa158015611fed573d6000803e3d6000fd5b505050506040513d601f19601f820116820180604052508101906120119190614640565b9050600061201e84612b97565b600b5460405163b1c5f42760e01b8152919250600160501b90046001600160a01b03169063b1c5f4279061205f908a908a908a906000908890600401614659565b602060405180830381865afa15801561207c573d6000803e3d6000fd5b505050506040513d601f19601f820116820180604052508101906120a09190614640565b6000898152600c602052604080822092909255600b5491516308f2a0bb60e41b8152600160501b9092046001600160a01b031691638f2a0bb0916120f1918b918b918b919088908a906004016146a7565b600060405180830381600087803b15801561210b57600080fd5b505af115801561211f573d6000803e3d6000fd5b50505050612137824261213291906146ff565b612ba9565b98975050505050505050565b8051600090603481101561215b5760019150506109fa565b82810160131901516001600160a01b031981166b046e0e4dee0dee6cae47a60f60a31b1461218e576001925050506109fa565b60008061219c602885614712565b90505b8381101561220d576000806121d38884815181106121bf576121bf614478565b01602001516001600160f81b031916612be0565b91509150816121eb57600196505050505050506109fa565b8060ff166004856001600160a01b0316901b179350505080600101905061219f565b50856001600160a01b0316816001600160a01b031614935050505092915050565b60008061223f888888888888612c72565b600d80546001818101835560009283527fd7b6990105719101dabeb77144f2a3385c8033acd3af97e9423a695e81ad1eb59091018390556040805160a0810182528c815260208181018d81528284018d9052606083018c90528a518b8301206080840152868652600e8252929094208151815591518051959650909491936122cc938501929101906136ee565b50604082015180516122e891600284019160209091019061374f565b506060820151805161230491600384019160209091019061378a565b5060809190910151600490910155979650505050505050565b81546001600160801b03600160801b82048116918116600183019091160361235857604051638acb5f2760e01b815260040160405180910390fd5b6001600160801b03808216600090815260018086016020526040909120939093558354919092018216600160801b029116179055565b600b54600160501b90046001600160a01b031663e38335e53486868660006123b588612b97565b6040518763ffffffff1660e01b81526004016123d5959493929190614659565b6000604051808303818588803b1580156123ee57600080fd5b505af1158015612402573d6000803e3d6000fd5b50505060009687525050600c602052505060408320929092555050565b6000818152600460205260408120805460ff600160f01b8204811691600160f81b900416811561245457506007949350505050565b801561246557506002949350505050565b600061247086611009565b90508060000361249657604051636ad0607560e01b815260048101879052602401610db6565b60006124a0611942565b65ffffffffffff1690508082106124be575060009695505050505050565b60006124c988611a48565b90508181106124e057506001979650505050505050565b600088815260076020526040902080546001909101541161250957506003979650505050505050565b612512886119dc565b60000361252757506004979650505050505050565b506005979650505050505050565b60008061254486868686612e9b565b6000818152600c60205260409020549091508015610bb557600b5460405163c4d252f560e01b815260048101839052600160501b9091046001600160a01b03169063c4d252f590602401600060405180830381600087803b1580156125a857600080fd5b505af11580156125bc573d6000803e3d6000fd5b5050506000838152600c602052604081205550509050949350505050565b6000803390506119c384828560405180602001604052806000815250612f4c565b6000806126c0876126ba7f3e83946653575f9a39005e1545185629e92736b7528ab20ca3816f315424a8118c8c8c6126328e612f78565b8d8d6040516126429291906145c3565b60405180910390208c8051906020012060405160200161269f9796959493929190968752602087019590955260ff9390931660408601526001600160a01b03919091166060850152608084015260a083015260c082015260e00190565b60405160208183030381529060405280519060200120612f9b565b85612fc8565b9050806126e257866040516394ab6c0760e01b8152600401610db691906138ee565b610e9089888a89898080601f0160208091040260200160405190810160405280939291908181526020018383808284376000920191909152508b9250613020915050565b60008033905061156387828888888080601f0160208091040260200160405190810160405280939291908181526020018383808284376000920191909152508a9250613020915050565b33612779610998565b6001600160a01b0316146127a257336040516347096e4760e01b8152600401610db691906138ee565b306127ab610998565b6001600160a01b0316146127e857600080366040516127cb9291906145c3565b604051809103902090505b806127e160056130fd565b036127d657505b565b6009546040805165ffffffffffff928316815291831660208301527fc565b045403dc03c2eea82b81a0465edad9e2e7fc4d97e11421c209da93d7a93910160405180910390a16009805465ffffffffffff191665ffffffffffff92909216919091179055565b6000803390506113dc86828787878080601f016020809104026020016040519081016040528093929190818152602001838380828437600092019190915250612f4c92505050565b60606119b17f00000000000000000000000000000000000000000000000000000000000000006000613172565b60606119b17f00000000000000000000000000000000000000000000000000000000000000006001613172565b600080612960846126ba7ff2aad550cf55f045cb27e9c559f9889fdfb6e6cdaa032301d6ea397784ae51d78989896129298b612f78565b60408051602081019690965285019390935260ff90911660608401526001600160a01b0316608083015260a082015260c00161269f565b90508061298257836040516394ab6c0760e01b8152600401610db691906138ee565b6113dc86858760405180602001604052806000815250612f4c565b60006119b143612ba9565b60006129b2611d72565b604051630748d63560e31b81526001600160a01b038681166004830152602482018690529190911690633a46b1a890604401602060405180830381865afa158015612a01573d6000803e3d6000fd5b505050506040513d601f19601f820116820180604052508101906119c39190614640565b600b54604080516001600160a01b03600160501b9093048316815291831660208301527f08f74ea46ef7894f65eabfb5e6e695de773a000b47c529ab559178069b226401910160405180910390a1600b80546001600160a01b03909216600160501b02600160501b600160f01b0319909216919091179055565b606082612ab457612aaf8261321d565b6109fa565b50806109fa565b8063ffffffff16600003612ae55760405163f1cfbf0560e01b815260006004820152602401610db6565b6009546040805163ffffffff600160301b9093048316815291831660208301527f7e3f7f0708a84de9203036abaa450dccc85ad5ff52f78c170f3edb55cf5e8828910160405180910390a16009805463ffffffff909216600160301b0263ffffffff60301b19909216919091179055565b60085460408051918252602082018390527fccb45da8d5717e6c4544694297c4ba5cf151d455c9bb0ed4fc7a38411bc05461910160405180910390a1600855565b6001600160601b03193060601b161890565b600065ffffffffffff821115612bdc576040516306dfcc6560e41b81526030600482015260248101839052604401610db6565b5090565b60008060f883901c602f81118015612bfb5750603a8160ff16105b15612c1057600194602f199091019350915050565b8060ff166040108015612c26575060478160ff16105b15612c3b576001946036199091019350915050565b8060ff166060108015612c51575060678160ff16105b15612c66576001946056199091019350915050565b50600093849350915050565b6000612c878686868680519060200120611b0b565b905084518651141580612c9c57508351865114155b80612ca657508551155b15612cdb57855184518651604051630447b05d60e41b8152600481019390935260248301919091526044820152606401610db6565b600081815260046020526040902054600160a01b900465ffffffffffff1615612d265780612d0882611084565b6040516331b75e4d60e01b8152610db692919060009060040161461e565b6000612d3960095465ffffffffffff1690565b612d41611942565b65ffffffffffff16612d5391906146ff565b90506000612d6e60095463ffffffff600160301b9091041690565b600084815260046020526040902080546001600160a01b0319166001600160a01b038716178155909150612da183612ba9565b815465ffffffffffff91909116600160a01b0265ffffffffffff60a01b19909116178155612dce82613246565b81600001601a6101000a81548163ffffffff021916908363ffffffff1602179055507f04c5bb8b4337f15b67604960f95cc33aa86a70a239897b81ac5269fb12c65d2c84868c8c8c8e516001600160401b03811115612e2f57612e2f613917565b604051908082528060200260200182016040528015612e6257816020015b6060815260200190600190039081612e4d5790505b508d8a612e6f8b826146ff565b8f604051612e869a99989796959493929190614725565b60405180910390a15050509695505050505050565b600080612eaa86868686611b0b565b9050612ef881612eba6007611f35565b612ec46006611f35565b612ece6002611f35565b6001612edb600782614804565b612ee6906002614901565b612ef09190614712565b181818611f58565b506000818152600460205260409081902080546001600160f81b0316600160f81b179055517f789cf55be980739dad1d0699b93b58e806b51c9d96619bfa8fe0a28abaa7b30c90610ff89083815260200190565b6000612f6f85858585612f6a60408051602081019091526000815290565b613020565b95945050505050565b6001600160a01b0316600090815260026020526040902080546001810190915590565b60006109fa612fa8613277565b8360405161190160f01b8152600281019290925260228201526042902090565b6000806000612fd785856133a2565b5090925090506000816003811115612ff157612ff1613e95565b14801561300f5750856001600160a01b0316826001600160a01b0316145b806113dc57506113dc8686866133ef565b600061303086610b0f6001611f35565b5060006130468661304089611009565b856129a8565b905061305587878784876134ca565b82516000036130aa57856001600160a01b03167fb8e138887d0aa13bab447e82de9d5c1777041ecd21ca36ba824ff1e6c07ddda48887848860405161309d9493929190614910565b60405180910390a26113dc565b856001600160a01b03167fe2babfbac5889a709b63bb7f598b324e08bc5a4fb9ec647fb3cbc9ec07eb871288878488886040516130eb959493929190614938565b60405180910390a29695505050505050565b80546000906001600160801b0380821691600160801b9004168103613135576040516375e52f4f60e01b815260040160405180910390fd5b6001600160801b038181166000908152600185810160205260408220805492905585546001600160801b0319169301909116919091179092555090565b606060ff831461318c57613185836135c2565b90506109fa565b81805461319890614402565b80601f01602080910402602001604051908101604052809291908181526020018280546131c490614402565b80156132115780601f106131e657610100808354040283529160200191613211565b820191906000526020600020905b8154815290600101906020018083116131f457829003601f168201915b505050505090506109fa565b80511561322d5780518082602001fd5b604051630a12f52160e11b815260040160405180910390fd5b600063ffffffff821115612bdc576040516306dfcc6560e41b81526020600482015260248101839052604401610db6565b6000306001600160a01b037f0000000000000000000000000000000000000000000000000000000000000000161480156132d057507f000000000000000000000000000000000000000000000000000000000000000046145b156132fa57507f000000000000000000000000000000000000000000000000000000000000000090565b6119b1604080517f8b73c3c69bb8fe3d512ecc4cf759cc79239f7b179b0ffacaa9a75d522b39400f60208201527f0000000000000000000000000000000000000000000000000000000000000000918101919091527f000000000000000000000000000000000000000000000000000000000000000060608201524660808201523060a082015260009060c00160405160208183030381529060405280519060200120905090565b600080600083516041036133dc5760208401516040850151606086015160001a6133ce88828585613601565b9550955095505050506133e8565b50508151600091506002905b9250925092565b6000806000856001600160a01b03168585604051602401613411929190614972565b60408051601f198184030181529181526020820180516001600160e01b0316630b135d3f60e11b17905251613446919061498b565b600060405180830381855afa9150503d8060008114613481576040519150601f19603f3d011682016040523d82523d6000602084013e613486565b606091505b509150915081801561349a57506020815110155b80156113dc57508051630b135d3f60e11b906134bf9083016020908101908401614640565b149695505050505050565b60008581526007602090815260408083206001600160a01b0388168452600381019092529091205460ff161561351557846040516371c6af4960e01b8152600401610db691906138ee565b6001600160a01b03851660009081526003820160205260409020805460ff1916600117905560ff8416613561578281600001600082825461355691906146ff565b909155506135ba9050565b60001960ff851601613581578281600101600082825461355691906146ff565b60011960ff8516016135a1578281600201600082825461355691906146ff565b6040516303599be160e11b815260040160405180910390fd5b505050505050565b606060006135cf836136c6565b604080516020808252818301909252919250600091906020820181803683375050509182525060208101929092525090565b600080806fa2a8918ca85bafe22016d0b997e4df60600160ff1b0384111561363257506000915060039050826136bc565b604080516000808252602082018084528a905260ff891692820192909252606081018790526080810186905260019060a0016020604051602081039080840390855afa158015613686573d6000803e3d6000fd5b5050604051601f1901519150506001600160a01b0381166136b2575060009250600191508290506136bc565b9250600091508190505b9450945094915050565b600060ff8216601f8111156109fa57604051632cd44ac360e21b815260040160405180910390fd5b828054828255906000526020600020908101928215613743579160200282015b8281111561374357825182546001600160a01b0319166001600160a01b0390911617825560209092019160019091019061370e565b50612bdc9291506137dc565b828054828255906000526020600020908101928215613743579160200282015b8281111561374357825182559160200191906001019061376f565b8280548282559060005260206000209081019282156137d0579160200282015b828111156137d057825182906137c090826149ef565b50916020019190600101906137aa565b50612bdc9291506137f1565b5b80821115612bdc57600081556001016137dd565b80821115612bdc576000613805828261380e565b506001016137f1565b50805461381a90614402565b6000825580601f1061382a575050565b601f01602090049060005260206000209081019061174d91906137dc565b60006020828403121561385a57600080fd5b81356001600160e01b031981168114611d1657600080fd5b60005b8381101561388d578181015183820152602001613875565b50506000910152565b600081518084526138ae816020860160208601613872565b601f01601f19169290920160200192915050565b602081526000611d166020830184613896565b6000602082840312156138e757600080fd5b5035919050565b6001600160a01b0391909116815260200190565b6001600160a01b038116811461174d57600080fd5b634e487b7160e01b600052604160045260246000fd5b604051601f8201601f191681016001600160401b038111828210171561395557613955613917565b604052919050565b60006001600160401b0382111561397657613976613917565b50601f01601f191660200190565b60006139976139928461395d565b61392d565b90508281528383830111156139ab57600080fd5b828260208301376000602084830101529392505050565b600082601f8301126139d357600080fd5b611d1683833560208501613984565b600080600080608085870312156139f857600080fd5b8435613a0381613902565b93506020850135613a1381613902565b92506040850135915060608501356001600160401b03811115613a3557600080fd5b613a41878288016139c2565b91505092959194509250565b60006001600160401b03821115613a6657613a66613917565b5060051b60200190565b600082601f830112613a8157600080fd5b81356020613a9161399283613a4d565b8083825260208201915060208460051b870101935086841115613ab357600080fd5b602086015b84811015613ad8578035613acb81613902565b8352918301918301613ab8565b509695505050505050565b600082601f830112613af457600080fd5b81356020613b0461399283613a4d565b8083825260208201915060208460051b870101935086841115613b2657600080fd5b602086015b84811015613ad85780358352918301918301613b2b565b600082601f830112613b5357600080fd5b81356020613b6361399283613a4d565b82815260059290921b84018101918181019086841115613b8257600080fd5b8286015b84811015613ad85780356001600160401b03811115613ba55760008081fd5b613bb38986838b01016139c2565b845250918301918301613b86565b60008060008060808587031215613bd757600080fd5b84356001600160401b0380821115613bee57600080fd5b613bfa88838901613a70565b95506020870135915080821115613c1057600080fd5b613c1c88838901613ae3565b94506040870135915080821115613c3257600080fd5b50613c3f87828801613b42565b949793965093946060013593505050565b60008151808452602080850194506020840160005b83811015613c8a5781516001600160a01b031687529582019590820190600101613c65565b509495945050505050565b60008151808452602080850194506020840160005b83811015613c8a57815187529582019590820190600101613caa565b60008282518085526020808601955060208260051b8401016020860160005b84811015613d1357601f19868403018952613d01838351613896565b98840198925090830190600101613ce5565b5090979650505050505050565b85815260a060208201526000613d3960a0830187613c50565b8281036040840152613d4b8187613c95565b90508281036060840152613d5f8186613cc6565b9150508260808301529695505050505050565b600080600080600060a08688031215613d8a57600080fd5b8535945060208601356001600160401b0380821115613da857600080fd5b613db489838a01613a70565b95506040880135915080821115613dca57600080fd5b613dd689838a01613ae3565b94506060880135915080821115613dec57600080fd5b613df889838a01613b42565b93506080880135915080821115613e0e57600080fd5b508601601f81018813613e2057600080fd5b613e2f88823560208401613984565b9150509295509295909350565b86815285602082015260c060408201526000613e5b60c0830187613c50565b8281036060840152613e6d8187613c95565b90508281036080840152613e818186613cc6565b9150508260a0830152979650505050505050565b634e487b7160e01b600052602160045260246000fd5b60088110613ec957634e487b7160e01b600052602160045260246000fd5b9052565b602081016109fa8284613eab565b60008060408385031215613eee57600080fd5b823591506020830135613f0081613902565b809150509250929050565b803560ff8116811461148a57600080fd5b60008060408385031215613f2f57600080fd5b82359150613f3f60208401613f0b565b90509250929050565b60008083601f840112613f5a57600080fd5b5081356001600160401b03811115613f7157600080fd5b602083019150836020828501011115613f8957600080fd5b9250929050565b600080600080600080600060c0888a031215613fab57600080fd5b87359650613fbb60208901613f0b565b95506040880135613fcb81613902565b945060608801356001600160401b0380821115613fe757600080fd5b613ff38b838c01613f48565b909650945060808a013591508082111561400c57600080fd5b6140188b838c016139c2565b935060a08a013591508082111561402e57600080fd5b5061403b8a828b016139c2565b91505092959891949750929550565b60008060008060006080868803121561406257600080fd5b8535945061407260208701613f0b565b935060408601356001600160401b038082111561408e57600080fd5b61409a89838a01613f48565b909550935060608801359150808211156140b357600080fd5b50613e2f888289016139c2565b65ffffffffffff8116811461174d57600080fd5b6000602082840312156140e657600080fd5b8135611d16816140c0565b6000806000806060858703121561410757600080fd5b8435935061411760208601613f0b565b925060408501356001600160401b0381111561413257600080fd5b61413e87828801613f48565b95989497509550505050565b60006020828403121561415c57600080fd5b8135611d1681613902565b60ff60f81b8816815260e06020820152600061418660e0830189613896565b82810360408401526141988189613896565b606084018890526001600160a01b038716608085015260a0840186905283810360c0850152905061172e8185613c95565b600080600080608085870312156141df57600080fd5b843593506141ef60208601613f0b565b925060408501356141ff81613902565b915060608501356001600160401b03811115613a3557600080fd5b60008060006060848603121561422f57600080fd5b833561423a81613902565b92506020840135915060408401356001600160401b0381111561425c57600080fd5b614268868287016139c2565b9150509250925092565b600080600080600060a0868803121561428a57600080fd5b853561429581613902565b945060208601356142a581613902565b935060408601356001600160401b03808211156142c157600080fd5b6142cd89838a01613ae3565b945060608801359150808211156142e357600080fd5b6142ef89838a01613ae3565b935060808801359150808211156140b357600080fd5b6000806000806060858703121561431b57600080fd5b843561432681613902565b93506020850135925060408501356001600160401b0381111561413257600080fd5b60006020828403121561435a57600080fd5b813563ffffffff81168114611d1657600080fd5b6000806040838503121561438157600080fd5b823561438c81613902565b946020939093013593505050565b600080600080600060a086880312156143b257600080fd5b85356143bd81613902565b945060208601356143cd81613902565b9350604086013592506060860135915060808601356001600160401b038111156143f657600080fd5b613e2f888289016139c2565b600181811c9082168061441657607f821691505b60208210810361443657634e487b7160e01b600052602260045260246000fd5b50919050565b634e487b7160e01b600052601160045260246000fd5b65ffffffffffff8281168282160390808211156144715761447161443c565b5092915050565b634e487b7160e01b600052603260045260246000fd5b6000602082840312156144a057600080fd5b81518015158114611d1657600080fd5b6000602082840312156144c257600080fd5b81516001600160401b038111156144d857600080fd5b8201601f810184136144e957600080fd5b80516144f76139928261395d565b81815285602083850101111561450c57600080fd5b612f6f826020830160208601613872565b9182526001600160a01b0316602082015260400190565b80516001600160801b038116811461148a57600080fd5b60008060006060848603121561456057600080fd5b8351925061457060208501614534565b915061457e60408501614534565b90509250925092565b60006020828403121561459957600080fd5b8151611d16816140c0565b65ffffffffffff8181168382160190808211156144715761447161443c565b8183823760009101908152919050565b6080815260006145e66080830187613c50565b82810360208401526145f88187613c95565b9050828103604084015261460c8186613cc6565b91505082606083015295945050505050565b838152606081016146326020830185613eab565b826040830152949350505050565b60006020828403121561465257600080fd5b5051919050565b60a08152600061466c60a0830188613c50565b828103602084015261467e8188613c95565b905082810360408401526146928187613cc6565b60608401959095525050608001529392505050565b60c0815260006146ba60c0830189613c50565b82810360208401526146cc8189613c95565b905082810360408401526146e08188613cc6565b60608401969096525050608081019290925260a0909101529392505050565b808201808211156109fa576109fa61443c565b818103818111156109fa576109fa61443c565b60006101408c8352602060018060a01b038d16818501528b60408501528160608501526147548285018c613c50565b91508382036080850152614768828b613c95565b915083820360a08501528189518084528284019150828160051b850101838c0160005b838110156147b957601f198784030185526147a7838351613896565b9486019492509085019060010161478b565b505086810360c08801526147cd818c613cc6565b9450505050508560e0840152846101008401528281036101208401526147f38185613896565b9d9c50505050505050505050505050565b60ff81811683821601908111156109fa576109fa61443c565b600181815b8085111561485857816000190482111561483e5761483e61443c565b8085161561484b57918102915b93841c9390800290614822565b509250929050565b60008261486f575060016109fa565b8161487c575060006109fa565b8160018114614892576002811461489c576148b8565b60019150506109fa565b60ff8411156148ad576148ad61443c565b50506001821b6109fa565b5060208310610133831016604e8410600b84101617156148db575081810a6109fa565b6148e5838361481d565b80600019048211156148f9576148f961443c565b029392505050565b6000611d1660ff841683614860565b84815260ff841660208201528260408201526080606082015260006113dc6080830184613896565b85815260ff8516602082015283604082015260a06060820152600061496060a0830185613896565b82810360808401526121378185613896565b8281526040602082015260006119c36040830184613896565b6000825161499d818460208701613872565b9190910192915050565b601f82111561136f576000816000526020600020601f850160051c810160208610156149d05750805b601f850160051c820191505b818110156135ba578281556001016149dc565b81516001600160401b03811115614a0857614a08613917565b614a1c81614a168454614402565b846149a7565b602080601f831160018114614a515760008415614a395750858301515b600019600386901b1c1916600185901b1785556135ba565b600085815260208120601f198616915b82811015614a8057888601518255948401946001909101908401614a61565b5085821015614a9e5787850151600019600388901b60f8161c191681555b5050505050600190811b0190555056fea2646970667358221220f57d31faa75803a88219422dd0c9612a4146af6b1a728645d764160ee24f540164736f6c63430008180033",
  "linkReferences": {},
  "deployedLinkReferences": {}
}