{
  "_format": "hh-sol-artifact-1",
  "contractName": "WETH9Mock",
  "sourceName": "src/mocks/WETH9Mock.sol",
  "abi": [
    {
      "inputs": [],
      "stateMutability": "nonpayable",
      "type": "constructor"
    },
    {
      "inputs": [
        {
          "internalType": "address",
          "name": "spender",
          "type": "address"
        },
        {
          "internalType": "uint256",
          "name": "allowance",
          "type": "uint256"
        },
        {
          "internalType": "uint256",
          "name": "needed",
          "type": "uint256"
        }
      ],
      "name": "ERC20InsufficientAllowance",
      "type": "error"
    },
    {
      "inputs": [
        {
          "internalType": "address",
          "name": "sender",
          "type": "address"
        },
        {
          "internalType": "uint256",
          "name": "balance",
          "type": "uint256"
        },
        {
          "internalType": "uint256",
          "name": "needed",
          "type": "uint256"
        }
      ],
      "name": "ERC20InsufficientBalance",
      "type": "error"
    },
    {
      "inputs": [
        {
          "internalType": "address",
          "name": "approver",
          "type": "address"
        }
      ],
      "name": "ERC20InvalidApprover",
      "type": "error"
    },
    {
      "inputs": [
        {
          "internalType": "address",
          "name": "receiver",
          "type": "address"
        }
      ],
      "name": "ERC20InvalidReceiver",
      "type": "error"
    },
    {
      "inputs": [
        {
          "internalType": "address",
          "name": "sender",
          "type": "address"
        }
      ],
      "name": "ERC20InvalidSender",
      "type": "error"
    },
    {
      "inputs": [
        {
          "internalType": "address",
          "name": "spender",
          "type": "address"
        }
      ],
      "name": "ERC20InvalidSpender",
      "type": "error"
    },
    {
      "anonymous": false,
      "inputs": [
        {
          "indexed": true,
          "internalType": "address",
          "name": "owner",
          "type": "address"
        },
        {
          "indexed": true,
          "internalType": "address",
          "name": "spender",
          "type": "address"
        },
        {
          "indexed": false,
          "internalType": "uint256",
          "name": "value",
          "type": "uint256"
        }
      ],
      "name": "Approval",
      "type": "event"
    },
    {
      "anonymous": false,
      "inputs": [
        {
          "indexed": true,
          "internalType": "address",
          "name": "dst",
          "type": "address"
        },
        {
          "indexed": false,
          "internalType": "uint256",
          "name": "wad",
          "type": "uint256"
        }
      ],
      "name": "Deposit",
      "type": "event"
    },
    {
      "anonymous": false,
      "inputs": [
        {
          "indexed": true,
          "internalType": "address",
          "name": "from",
          "type": "address"
        },
        {
          "indexed": true,
          "internalType": "address",
          "name": "to",
          "type": "address"
        },
        {
          "indexed": false,
          "internalType": "uint256",
          "name": "value",
          "type": "uint256"
        }
      ],
      "name": "Transfer",
      "type": "event"
    },
    {
      "anonymous": false,
      "inputs": [
        {
          "indexed": true,
          "internalType": "address",
          "name": "src",
          "type": "address"
        },
        {
          "indexed": false,
          "internalType": "uint256",
          "name": "wad",
          "type": "uint256"
        }
      ],
      "name": "Withdrawal",
      "type": "event"
    },
    {
      "inputs": [
        {
          "internalType": "address",
          "name": "owner",
          "type": "address"
        },
        {
          "internalType": "address",
          "name": "spender",
          "type": "address"
        }
      ],
      "name": "allowance",
      "outputs": [
        {
          "internalType": "uint256",
          "name": "",
          "type": "uint256"
        }
      ],
      "stateMutability": "view",
      "type": "function"
    },
    {
      "inputs": [
        {
          "internalType": "address",
          "name": "spender",
          "type": "address"
        },
        {
          "internalType": "uint256",
          "name": "value",
          "type": "uint256"
        }
      ],
      "name": "approve",
      "outputs": [
        {
          "internalType": "bool",
          "name": "",
          "type": "bool"
        }
      ],
      "stateMutability": "nonpayable",
      "type": "function"
    },
    {
      "inputs": [
        {
          "internalType": "address",
          "name": "account",
          "type": "address"
        }
      ],
      "name": "balanceOf",
      "outputs": [
        {
          "internalType": "uint256",
          "name": "",
          "type": "uint256"
        }
      ],
      "stateMutability": "view",
      "type": "function"
    },
    {
      "inputs": [
        {
          "internalType": "address",
          "name": "account",
          "type": "address"
        },
        {
          "internalType": "uint256",
          "name": "amount",
          "type": "uint256"
        }
      ],
      "name": "burn",
      "outputs": [],
      "stateMutability": "nonpayable",
      "type": "function"
    },
    {
      "inputs": [],
      "name": "decimals",
      "outputs": [
        {
          "internalType": "uint8",
          "name": "",
          "type": "uint8"
        }
      ],
      "stateMutability": "view",
      "type": "function"
    },
    {
      "inputs": [],
      "name": "deposit",
      "outputs": [],
      "stateMutability": "payable",
      "type": "function"
    },
    {
      "inputs": [
        {
          "internalType": "address",
          "name": "account",
          "type": "address"
        },
        {
          "internalType": "uint256",
          "name": "amount",
          "type": "uint256"
        }
      ],
      "name": "mint",
      "outputs": [],
      "stateMutability": "nonpayable",
      "type": "function"
    },
    {
      "inputs": [],
      "name": "name",
      "outputs": [
        {
          "internalType": "string",
          "name": "",
          "type": "string"
        }
      ],
      "stateMutability": "view",
      "type": "function"
    },
    {
      "inputs": [],
      "name": "symbol",
      "outputs": [
        {
          "internalType": "string",
          "name": "",
          "type": "string"
        }
      ],
      "stateMutability": "view",
      "type": "function"
    },
    {
      "inputs": [],
      "name": "totalSupply",
      "outputs": [
        {
          "internalType": "uint256",
          "name": "",
          "type": "uint256"
        }
      ],
      "stateMutability": "view",
      "type": "function"
    },
    {
      "inputs": [
        {
          "internalType": "address",
          "name": "to",
          "type": "address"
        },
        {
          "internalType": "uint256",
          "name": "value",
          "type": "uint256"
        }
      ],
      "name": "transfer",
      "outputs": [
        {
          "internalType": "bool",
          "name": "",
          "type": "bool"
        }
      ],
      "stateMutability": "nonpayable",
      "type": "function"
    },
    {
      "inputs": [
        {
          "internalType": "address",
          "name": "from",
          "type": "address"
        },
        {
          "internalType": "address",
          "name": "to",
          "type": "address"
        },
        {
          "internalType": "uint256",
          "name": "value",
          "type": "uint256"
        }
      ],
      "name": "transferFrom",
      "outputs": [
        {
          "internalType": "bool",
          "name": "",
          "type": "bool"
        }
      ],
      "stateMutability": "nonpayable",
      "type": "function"
    },
    {
      "inputs": [
        {
          "internalType": "uint256",
          "name": "wad",
          "type": "uint256"
        }
      ],
      "name": "withdraw",
      "outputs": [],
      "stateMutability": "nonpayable",
      "type": "function"
    },
    {
      "stateMutability": "payable",
      "type": "receive"
    }
  ],
  "bytecode": "0x608060405234801561001057600080fd5b506040518060400160405280600981526020016845524332304d6f636b60b81b815250604051806040016040528060048152602001634532304d60e01b815250816003908161005f9190610115565b50600461006c8282610115565b5050506101d4565b634e487b7160e01b600052604160045260246000fd5b600181811c9082168061009e57607f821691505b6020821081036100be57634e487b7160e01b600052602260045260246000fd5b50919050565b601f821115610110576000816000526020600020601f850160051c810160208610156100ed5750805b601f850160051c820191505b8181101561010c578281556001016100f9565b5050505b505050565b81516001600160401b0381111561012e5761012e610074565b6101428161013c845461008a565b846100c4565b602080601f831160018114610177576000841561015f5750858301515b600019600386901b1c1916600185901b17855561010c565b600085815260208120601f198616915b828110156101a657888601518255948401946001909101908401610187565b50858210156101c45787850151600019600388901b60f8161c191681555b5050505050600190811b01905550565b610984806101e36000396000f3fe6080604052600436106100a65760003560e01c806306fdde03146100ba578063095ea7b3146100e557806318160ddd1461011557806323b872dd146101345780632e1a7d4d14610154578063313ce5671461017457806340c10f191461019057806370a08231146101b057806395d89b41146101d05780639dc29fac146101e5578063a9059cbb14610205578063d0e30db014610225578063dd62ed3e1461022d57600080fd5b366100b5576100b361024d565b005b600080fd5b3480156100c657600080fd5b506100cf61028e565b6040516100dc919061077f565b60405180910390f35b3480156100f157600080fd5b506101056101003660046107ea565b610320565b60405190151581526020016100dc565b34801561012157600080fd5b506002545b6040519081526020016100dc565b34801561014057600080fd5b5061010561014f366004610814565b61033a565b34801561016057600080fd5b506100b361016f366004610850565b61035e565b34801561018057600080fd5b50604051601281526020016100dc565b34801561019c57600080fd5b506100b36101ab3660046107ea565b6103e3565b3480156101bc57600080fd5b506101266101cb366004610869565b6103f1565b3480156101dc57600080fd5b506100cf61040c565b3480156101f157600080fd5b506100b36102003660046107ea565b61041b565b34801561021157600080fd5b506101056102203660046107ea565b610425565b6100b361024d565b34801561023957600080fd5b5061012661024836600461088b565b610433565b610257333461045e565b60405134815233907fe1fffcc4923d04b559f4d29a8bfc6cda04eb5b0d3c460751c2402c5c5cc9109c9060200160405180910390a2565b60606003805461029d906108be565b80601f01602080910402602001604051908101604052809291908181526020018280546102c9906108be565b80156103165780601f106102eb57610100808354040283529160200191610316565b820191906000526020600020905b8154815290600101906020018083116102f957829003601f168201915b5050505050905090565b60003361032e81858561049d565b60019150505b92915050565b6000336103488582856104af565b610353858585610502565b506001949350505050565b80610368336103f1565b101561037357600080fd5b61037d3382610561565b604051339082156108fc029083906000818181858888f193505050501580156103aa573d6000803e3d6000fd5b5060405181815233907f7fcf532c15f0a6db0bd6d0e038bea71d30d808c7d98cb3bf7268a95bf5081b659060200160405180910390a250565b6103ed828261045e565b5050565b6001600160a01b031660009081526020819052604090205490565b60606004805461029d906108be565b6103ed8282610561565b60003361032e818585610502565b6001600160a01b03918216600090815260016020908152604080832093909416825291909152205490565b6001600160a01b03821661049157600060405163ec442f0560e01b815260040161048891906108f8565b60405180910390fd5b6103ed60008383610593565b6104aa83838360016106aa565b505050565b60006104bb8484610433565b905060001981146104fc57818110156104ed57828183604051637dc7a0d960e11b81526004016104889392919061090c565b6104fc848484840360006106aa565b50505050565b6001600160a01b03831661052c576000604051634b637e8f60e11b815260040161048891906108f8565b6001600160a01b03821661055657600060405163ec442f0560e01b815260040161048891906108f8565b6104aa838383610593565b6001600160a01b03821661058b576000604051634b637e8f60e11b815260040161048891906108f8565b6103ed826000835b6001600160a01b0383166105be5780600260008282546105b3919061092d565b9091555061061d9050565b6001600160a01b038316600090815260208190526040902054818110156105fe5783818360405163391434e360e21b81526004016104889392919061090c565b6001600160a01b03841660009081526020819052604090209082900390555b6001600160a01b03821661063957600280548290039055610658565b6001600160a01b03821660009081526020819052604090208054820190555b816001600160a01b0316836001600160a01b03167fddf252ad1be2c89b69c2b068fc378daa952ba7f163c4a11628f55a4df523b3ef8360405161069d91815260200190565b60405180910390a3505050565b6001600160a01b0384166106d457600060405163e602df0560e01b815260040161048891906108f8565b6001600160a01b0383166106fe576000604051634a1406b160e11b815260040161048891906108f8565b6001600160a01b03808516600090815260016020908152604080832093871683529290522082905580156104fc57826001600160a01b0316846001600160a01b03167f8c5be1e5ebec7d5bd14f71427d1e84f3dd0314c0f7b2291e5b200ac8c7c3b9258460405161077191815260200190565b60405180910390a350505050565b60006020808352835180602085015260005b818110156107ad57858101830151858201604001528201610791565b506000604082860101526040601f19601f8301168501019250505092915050565b80356001600160a01b03811681146107e557600080fd5b919050565b600080604083850312156107fd57600080fd5b610806836107ce565b946020939093013593505050565b60008060006060848603121561082957600080fd5b610832846107ce565b9250610840602085016107ce565b9150604084013590509250925092565b60006020828403121561086257600080fd5b5035919050565b60006020828403121561087b57600080fd5b610884826107ce565b9392505050565b6000806040838503121561089e57600080fd5b6108a7836107ce565b91506108b5602084016107ce565b90509250929050565b600181811c908216806108d257607f821691505b6020821081036108f257634e487b7160e01b600052602260045260246000fd5b50919050565b6001600160a01b0391909116815260200190565b6001600160a01b039390931683526020830191909152604082015260600190565b8082018082111561033457634e487b7160e01b600052601160045260246000fdfea264697066735822122028e765a0fc4f2631a36666ebf6717cf65315237a3922e17f2c332fbc1f2c386e64736f6c63430008180033",
  "linkReferences": {},
  "deployedLinkReferences": {}
}