{
  "_format": "hh-sol-artifact-1",
  "contractName": "StableIRM",
  "sourceName": "src/irm/StableIRM.sol",
  "abi": [
    {
      "inputs": [
        {
          "internalType": "address",
          "name": "spatha_",
          "type": "address"
        }
      ],
      "stateMutability": "nonpayable",
      "type": "constructor"
    },
    {
      "inputs": [],
      "name": "Error_INVALID_RISK_TIER",
      "type": "error"
    },
    {
      "inputs": [],
      "name": "Error_RATE_NOT_SET",
      "type": "error"
    },
    {
      "inputs": [],
      "name": "Error_RATE_TOO_HIGH",
      "type": "error"
    },
    {
      "inputs": [],
      "name": "Error_RATE_ZERO",
      "type": "error"
    },
    {
      "inputs": [],
      "name": "Error_ZERO_ADDRESS",
      "type": "error"
    },
    {
      "anonymous": false,
      "inputs": [
        {
          "indexed": true,
          "internalType": "Id",
          "name": "id",
          "type": "bytes32"
        },
        {
          "indexed": false,
          "internalType": "uint256",
          "name": "newBorrowRate",
          "type": "uint256"
        }
      ],
      "name": "LogSetBorrowRate",
      "type": "event"
    },
    {
      "anonymous": false,
      "inputs": [
        {
          "indexed": false,
          "internalType": "uint256",
          "name": "newBorrowRate",
          "type": "uint256"
        }
      ],
      "name": "LogSetMidBorrowRateThreshold",
      "type": "event"
    },
    {
      "anonymous": false,
      "inputs": [
        {
          "indexed": false,
          "internalType": "uint256",
          "name": "newBorrowRate",
          "type": "uint256"
        }
      ],
      "name": "LogSetMinBorrowRateThreshold",
      "type": "event"
    },
    {
      "inputs": [],
      "name": "MAX_BORROW_RATE",
      "outputs": [
        {
          "internalType": "uint256",
          "name": "",
          "type": "uint256"
        }
      ],
      "stateMutability": "view",
      "type": "function"
    },
    {
      "inputs": [],
      "name": "MID_BORROW_RATE",
      "outputs": [
        {
          "internalType": "uint256",
          "name": "",
          "type": "uint256"
        }
      ],
      "stateMutability": "view",
      "type": "function"
    },
    {
      "inputs": [],
      "name": "MIN_BORROW_RATE",
      "outputs": [
        {
          "internalType": "uint256",
          "name": "",
          "type": "uint256"
        }
      ],
      "stateMutability": "view",
      "type": "function"
    },
    {
      "inputs": [
        {
          "components": [
            {
              "internalType": "address",
              "name": "loanToken",
              "type": "address"
            },
            {
              "internalType": "address",
              "name": "collateralToken",
              "type": "address"
            },
            {
              "internalType": "uint8",
              "name": "riskTier",
              "type": "uint8"
            },
            {
              "internalType": "uint256",
              "name": "lltv",
              "type": "uint256"
            },
            {
              "internalType": "address",
              "name": "irm",
              "type": "address"
            }
          ],
          "internalType": "struct MarketParams",
          "name": "marketParams",
          "type": "tuple"
        },
        {
          "components": [
            {
              "internalType": "uint128",
              "name": "totalSupplyAssets",
              "type": "uint128"
            },
            {
              "internalType": "uint128",
              "name": "totalSupplyShares",
              "type": "uint128"
            },
            {
              "internalType": "uint128",
              "name": "totalBorrowAssets",
              "type": "uint128"
            },
            {
              "internalType": "uint128",
              "name": "totalBorrowShares",
              "type": "uint128"
            },
            {
              "internalType": "uint128",
              "name": "lastUpdate",
              "type": "uint128"
            },
            {
              "internalType": "uint128",
              "name": "fee",
              "type": "uint128"
            },
            {
              "components": [
                {
                  "internalType": "bool",
                  "name": "isAddLiquidityPaused",
                  "type": "bool"
                },
                {
                  "internalType": "bool",
                  "name": "isAddCollateralPaused",
                  "type": "bool"
                },
                {
                  "internalType": "bool",
                  "name": "isBorrowPaused",
                  "type": "bool"
                },
                {
                  "internalType": "bool",
                  "name": "isWithdrawLiquidityPaused",
                  "type": "bool"
                },
                {
                  "internalType": "bool",
                  "name": "isWithdrawCollateralPaused",
                  "type": "bool"
                },
                {
                  "internalType": "bool",
                  "name": "isRepayPaused",
                  "type": "bool"
                },
                {
                  "internalType": "bool",
                  "name": "isLiquidatePaused",
                  "type": "bool"
                }
              ],
              "internalType": "struct PauseStatuses",
              "name": "pauseStatuses",
              "type": "tuple"
            }
          ],
          "internalType": "struct Market",
          "name": "",
          "type": "tuple"
        }
      ],
      "name": "borrowRate",
      "outputs": [
        {
          "internalType": "uint256",
          "name": "",
          "type": "uint256"
        }
      ],
      "stateMutability": "view",
      "type": "function"
    },
    {
      "inputs": [
        {
          "internalType": "Id",
          "name": "",
          "type": "bytes32"
        }
      ],
      "name": "borrowRateStored",
      "outputs": [
        {
          "internalType": "uint256",
          "name": "",
          "type": "uint256"
        }
      ],
      "stateMutability": "view",
      "type": "function"
    },
    {
      "inputs": [
        {
          "components": [
            {
              "internalType": "address",
              "name": "loanToken",
              "type": "address"
            },
            {
              "internalType": "address",
              "name": "collateralToken",
              "type": "address"
            },
            {
              "internalType": "uint8",
              "name": "riskTier",
              "type": "uint8"
            },
            {
              "internalType": "uint256",
              "name": "lltv",
              "type": "uint256"
            },
            {
              "internalType": "address",
              "name": "irm",
              "type": "address"
            }
          ],
          "internalType": "struct MarketParams",
          "name": "marketParams",
          "type": "tuple"
        },
        {
          "components": [
            {
              "internalType": "uint128",
              "name": "totalSupplyAssets",
              "type": "uint128"
            },
            {
              "internalType": "uint128",
              "name": "totalSupplyShares",
              "type": "uint128"
            },
            {
              "internalType": "uint128",
              "name": "totalBorrowAssets",
              "type": "uint128"
            },
            {
              "internalType": "uint128",
              "name": "totalBorrowShares",
              "type": "uint128"
            },
            {
              "internalType": "uint128",
              "name": "lastUpdate",
              "type": "uint128"
            },
            {
              "internalType": "uint128",
              "name": "fee",
              "type": "uint128"
            },
            {
              "components": [
                {
                  "internalType": "bool",
                  "name": "isAddLiquidityPaused",
                  "type": "bool"
                },
                {
                  "internalType": "bool",
                  "name": "isAddCollateralPaused",
                  "type": "bool"
                },
                {
                  "internalType": "bool",
                  "name": "isBorrowPaused",
                  "type": "bool"
                },
                {
                  "internalType": "bool",
                  "name": "isWithdrawLiquidityPaused",
                  "type": "bool"
                },
                {
                  "internalType": "bool",
                  "name": "isWithdrawCollateralPaused",
                  "type": "bool"
                },
                {
                  "internalType": "bool",
                  "name": "isRepayPaused",
                  "type": "bool"
                },
                {
                  "internalType": "bool",
                  "name": "isLiquidatePaused",
                  "type": "bool"
                }
              ],
              "internalType": "struct PauseStatuses",
              "name": "pauseStatuses",
              "type": "tuple"
            }
          ],
          "internalType": "struct Market",
          "name": "",
          "type": "tuple"
        }
      ],
      "name": "borrowRateView",
      "outputs": [
        {
          "internalType": "uint256",
          "name": "",
          "type": "uint256"
        }
      ],
      "stateMutability": "view",
      "type": "function"
    },
    {
      "inputs": [
        {
          "components": [
            {
              "internalType": "address",
              "name": "loanToken",
              "type": "address"
            },
            {
              "internalType": "address",
              "name": "collateralToken",
              "type": "address"
            },
            {
              "internalType": "uint8",
              "name": "riskTier",
              "type": "uint8"
            },
            {
              "internalType": "uint256",
              "name": "lltv",
              "type": "uint256"
            },
            {
              "internalType": "address",
              "name": "irm",
              "type": "address"
            }
          ],
          "internalType": "struct MarketParams",
          "name": "marketParams",
          "type": "tuple"
        }
      ],
      "name": "getMarketIdWithMarketParams",
      "outputs": [
        {
          "internalType": "Id",
          "name": "id",
          "type": "bytes32"
        }
      ],
      "stateMutability": "pure",
      "type": "function"
    },
    {
      "inputs": [
        {
          "components": [
            {
              "internalType": "address",
              "name": "loanToken",
              "type": "address"
            },
            {
              "internalType": "address",
              "name": "collateralToken",
              "type": "address"
            },
            {
              "internalType": "uint8",
              "name": "riskTier",
              "type": "uint8"
            },
            {
              "internalType": "uint256",
              "name": "lltv",
              "type": "uint256"
            },
            {
              "internalType": "address",
              "name": "irm",
              "type": "address"
            }
          ],
          "internalType": "struct MarketParams",
          "name": "marketParams",
          "type": "tuple"
        },
        {
          "internalType": "uint256",
          "name": "newBorrowRate",
          "type": "uint256"
        }
      ],
      "name": "setBorrowRate",
      "outputs": [],
      "stateMutability": "nonpayable",
      "type": "function"
    },
    {
      "inputs": [
        {
          "internalType": "uint256",
          "name": "newBorrowRate",
          "type": "uint256"
        }
      ],
      "name": "setMidBorrowRateThreshold",
      "outputs": [],
      "stateMutability": "nonpayable",
      "type": "function"
    },
    {
      "inputs": [
        {
          "internalType": "uint256",
          "name": "newBorrowRate",
          "type": "uint256"
        }
      ],
      "name": "setMinBorrowRateThreshold",
      "outputs": [],
      "stateMutability": "nonpayable",
      "type": "function"
    }
  ],
  "bytecode": "0x60a0604052600261001c6301e13380676f05b59d3b20000061009e565b610026919061009e565b6000556002600054610038919061009e565b60015534801561004757600080fd5b5060405161081d38038061081d833981016040819052610066916100c0565b6001600160a01b03811661008d576040516301b2f36d60e11b815260040160405180910390fd5b6001600160a01b03166080526100f0565b6000826100bb57634e487b7160e01b600052601260045260246000fd5b500490565b6000602082840312156100d257600080fd5b81516001600160a01b03811681146100e957600080fd5b9392505050565b608051610704610119600039600081816101910152818161035c01526104a801526107046000f3fe608060405234801561001057600080fd5b506004361061008e5760003560e01c80632fcc2f0e1461009357806344e8a383146100ae5780636958354d146100c15780637a0c5ebf146100d6578063a69985c8146100de578063d2945129146100fe578063d5d7e9fe14610107578063e15504b0146100ae578063e5af9aa41461011a578063fd74c1b61461012d575b600080fd5b61009c60005481565b60405190815260200160405180910390f35b61009c6100bc366004610576565b610140565b6100d46100cf3660046105b8565b610186565b005b61009c610338565b61009c6100ec3660046105e3565b60026020526000908152604090205481565b61009c60015481565b6100d46101153660046105e3565b610351565b61009c6101283660046105fc565b61042c565b6100d461013b3660046105e3565b61049d565b60008061014c8461042c565b60008181526002602052604081205491925081900361017e57604051630f14112960e01b815260040160405180910390fd5b949350505050565b336001600160a01b037f000000000000000000000000000000000000000000000000000000000000000016146101d75760405162461bcd60e51b81526004016101ce9061061f565b60405180910390fd5b60006101e28361042c565b905060006101f66060850160408601610660565b905082600003610219576040516323c6512d60e01b815260040160405180910390fd5b60ff811615801561022b575060015483115b1561024957604051633cc3c0b560e11b815260040160405180910390fd5b8060ff16600114801561025d575060005483115b1561027b57604051633cc3c0b560e11b815260040160405180910390fd5b8060ff1660021480156102a2575061029f6301e13380676f05b59d3b200000610683565b83115b156102c057604051633cc3c0b560e11b815260040160405180910390fd5b60028160ff1611156102e55760405163371d48c560e11b815260040160405180910390fd5b600082815260026020526040908190208490555182907f568b98a0b0bed3b3b73b61d9b8fa7a3612e98d249684f2c65c6be2809ec0a44e9061032a9086815260200190565b60405180910390a250505050565b61034e6301e13380676f05b59d3b200000610683565b81565b336001600160a01b037f000000000000000000000000000000000000000000000000000000000000000016146103995760405162461bcd60e51b81526004016101ce9061061f565b806000036103ba576040516323c6512d60e01b815260040160405180910390fd5b6103d06301e13380676f05b59d3b200000610683565b8111156103f057604051633cc3c0b560e11b815260040160405180910390fd5b60008190556040518181527fc8a649f5c3d1527712724e1066da2c71d5b6acbf6ff40abba64ffe0c274a91c3906020015b60405180910390a150565b6040805160608101909152600090610497908061044c60208601866106a5565b6001600160a01b0316815260200184602001602081019061046d91906106a5565b6001600160a01b0316815260200161048b6060860160408701610660565b60ff1690526060902090565b92915050565b336001600160a01b037f000000000000000000000000000000000000000000000000000000000000000016146104e55760405162461bcd60e51b81526004016101ce9061061f565b80600003610506576040516323c6512d60e01b815260040160405180910390fd5b60005481111561052957604051633cc3c0b560e11b815260040160405180910390fd5b60018190556040518181527ffa2c56ac91b42fb09bed08fa772e4d32e58f89020e63e22a0462c350ba60d34f90602001610421565b600060a0828403121561057057600080fd5b50919050565b60008082840361024081121561058b57600080fd5b610595858561055e565b92506101a0609f19820112156105aa57600080fd5b5060a0830190509250929050565b60008060c083850312156105cb57600080fd5b6105d5848461055e565b9460a0939093013593505050565b6000602082840312156105f557600080fd5b5035919050565b600060a0828403121561060e57600080fd5b610618838361055e565b9392505050565b60208082526021908201527f6f6e6c792073706174686120697320617574686f726973656420746f2063616c6040820152601b60fa1b606082015260800190565b60006020828403121561067257600080fd5b813560ff8116811461061857600080fd5b6000826106a057634e487b7160e01b600052601260045260246000fd5b500490565b6000602082840312156106b757600080fd5b81356001600160a01b038116811461061857600080fdfea2646970667358221220a5106946b6cbcae24d4999273f04d0e623573377f09dddd0ae903c3d0f917d8364736f6c63430008180033",
  "linkReferences": {},
  "deployedLinkReferences": {}
}