{
  "_format": "hh-sol-artifact-1",
  "contractName": "VariableIRM",
  "sourceName": "src/irm/VariableIRM.sol",
  "abi": [
    {
      "inputs": [
        {
          "internalType": "address",
          "name": "spatha",
          "type": "address"
        }
      ],
      "stateMutability": "nonpayable",
      "type": "constructor"
    },
    {
      "inputs": [],
      "name": "Error_NOT_SPATHA",
      "type": "error"
    },
    {
      "inputs": [],
      "name": "Error_ZERO_ADDRESS",
      "type": "error"
    },
    {
      "anonymous": false,
      "inputs": [
        {
          "indexed": true,
          "internalType": "Id",
          "name": "id",
          "type": "bytes32"
        },
        {
          "indexed": false,
          "internalType": "uint256",
          "name": "avgBorrowRate",
          "type": "uint256"
        },
        {
          "indexed": false,
          "internalType": "uint256",
          "name": "rateAtTarget",
          "type": "uint256"
        }
      ],
      "name": "LogBorrowRateUpdate",
      "type": "event"
    },
    {
      "inputs": [],
      "name": "SPATHA",
      "outputs": [
        {
          "internalType": "address",
          "name": "",
          "type": "address"
        }
      ],
      "stateMutability": "view",
      "type": "function"
    },
    {
      "inputs": [
        {
          "components": [
            {
              "internalType": "address",
              "name": "loanToken",
              "type": "address"
            },
            {
              "internalType": "address",
              "name": "collateralToken",
              "type": "address"
            },
            {
              "internalType": "uint8",
              "name": "riskTier",
              "type": "uint8"
            },
            {
              "internalType": "uint256",
              "name": "lltv",
              "type": "uint256"
            },
            {
              "internalType": "address",
              "name": "irm",
              "type": "address"
            }
          ],
          "internalType": "struct MarketParams",
          "name": "marketParams",
          "type": "tuple"
        },
        {
          "components": [
            {
              "internalType": "uint128",
              "name": "totalSupplyAssets",
              "type": "uint128"
            },
            {
              "internalType": "uint128",
              "name": "totalSupplyShares",
              "type": "uint128"
            },
            {
              "internalType": "uint128",
              "name": "totalBorrowAssets",
              "type": "uint128"
            },
            {
              "internalType": "uint128",
              "name": "totalBorrowShares",
              "type": "uint128"
            },
            {
              "internalType": "uint128",
              "name": "lastUpdate",
              "type": "uint128"
            },
            {
              "internalType": "uint128",
              "name": "fee",
              "type": "uint128"
            },
            {
              "components": [
                {
                  "internalType": "bool",
                  "name": "isAddLiquidityPaused",
                  "type": "bool"
                },
                {
                  "internalType": "bool",
                  "name": "isAddCollateralPaused",
                  "type": "bool"
                },
                {
                  "internalType": "bool",
                  "name": "isBorrowPaused",
                  "type": "bool"
                },
                {
                  "internalType": "bool",
                  "name": "isWithdrawLiquidityPaused",
                  "type": "bool"
                },
                {
                  "internalType": "bool",
                  "name": "isWithdrawCollateralPaused",
                  "type": "bool"
                },
                {
                  "internalType": "bool",
                  "name": "isRepayPaused",
                  "type": "bool"
                },
                {
                  "internalType": "bool",
                  "name": "isLiquidatePaused",
                  "type": "bool"
                }
              ],
              "internalType": "struct PauseStatuses",
              "name": "pauseStatuses",
              "type": "tuple"
            }
          ],
          "internalType": "struct Market",
          "name": "market",
          "type": "tuple"
        }
      ],
      "name": "borrowRate",
      "outputs": [
        {
          "internalType": "uint256",
          "name": "",
          "type": "uint256"
        }
      ],
      "stateMutability": "nonpayable",
      "type": "function"
    },
    {
      "inputs": [
        {
          "components": [
            {
              "internalType": "address",
              "name": "loanToken",
              "type": "address"
            },
            {
              "internalType": "address",
              "name": "collateralToken",
              "type": "address"
            },
            {
              "internalType": "uint8",
              "name": "riskTier",
              "type": "uint8"
            },
            {
              "internalType": "uint256",
              "name": "lltv",
              "type": "uint256"
            },
            {
              "internalType": "address",
              "name": "irm",
              "type": "address"
            }
          ],
          "internalType": "struct MarketParams",
          "name": "marketParams",
          "type": "tuple"
        },
        {
          "components": [
            {
              "internalType": "uint128",
              "name": "totalSupplyAssets",
              "type": "uint128"
            },
            {
              "internalType": "uint128",
              "name": "totalSupplyShares",
              "type": "uint128"
            },
            {
              "internalType": "uint128",
              "name": "totalBorrowAssets",
              "type": "uint128"
            },
            {
              "internalType": "uint128",
              "name": "totalBorrowShares",
              "type": "uint128"
            },
            {
              "internalType": "uint128",
              "name": "lastUpdate",
              "type": "uint128"
            },
            {
              "internalType": "uint128",
              "name": "fee",
              "type": "uint128"
            },
            {
              "components": [
                {
                  "internalType": "bool",
                  "name": "isAddLiquidityPaused",
                  "type": "bool"
                },
                {
                  "internalType": "bool",
                  "name": "isAddCollateralPaused",
                  "type": "bool"
                },
                {
                  "internalType": "bool",
                  "name": "isBorrowPaused",
                  "type": "bool"
                },
                {
                  "internalType": "bool",
                  "name": "isWithdrawLiquidityPaused",
                  "type": "bool"
                },
                {
                  "internalType": "bool",
                  "name": "isWithdrawCollateralPaused",
                  "type": "bool"
                },
                {
                  "internalType": "bool",
                  "name": "isRepayPaused",
                  "type": "bool"
                },
                {
                  "internalType": "bool",
                  "name": "isLiquidatePaused",
                  "type": "bool"
                }
              ],
              "internalType": "struct PauseStatuses",
              "name": "pauseStatuses",
              "type": "tuple"
            }
          ],
          "internalType": "struct Market",
          "name": "market",
          "type": "tuple"
        }
      ],
      "name": "borrowRateView",
      "outputs": [
        {
          "internalType": "uint256",
          "name": "",
          "type": "uint256"
        }
      ],
      "stateMutability": "view",
      "type": "function"
    },
    {
      "inputs": [
        {
          "components": [
            {
              "internalType": "address",
              "name": "loanToken",
              "type": "address"
            },
            {
              "internalType": "address",
              "name": "collateralToken",
              "type": "address"
            },
            {
              "internalType": "uint8",
              "name": "riskTier",
              "type": "uint8"
            },
            {
              "internalType": "uint256",
              "name": "lltv",
              "type": "uint256"
            },
            {
              "internalType": "address",
              "name": "irm",
              "type": "address"
            }
          ],
          "internalType": "struct MarketParams",
          "name": "marketParams",
          "type": "tuple"
        }
      ],
      "name": "getMarketIdWithMarketParams",
      "outputs": [
        {
          "internalType": "Id",
          "name": "id",
          "type": "bytes32"
        }
      ],
      "stateMutability": "pure",
      "type": "function"
    },
    {
      "inputs": [
        {
          "internalType": "Id",
          "name": "",
          "type": "bytes32"
        }
      ],
      "name": "rateAtTarget",
      "outputs": [
        {
          "internalType": "int256",
          "name": "",
          "type": "int256"
        }
      ],
      "stateMutability": "view",
      "type": "function"
    }
  ],
  "bytecode": "0x60a060405234801561001057600080fd5b5060405161094338038061094383398101604081905261002f91610067565b6001600160a01b038116610056576040516301b2f36d60e11b815260040160405180910390fd5b6001600160a01b0316608052610097565b60006020828403121561007957600080fd5b81516001600160a01b038116811461009057600080fd5b9392505050565b60805161088b6100b86000396000818160a70152610114015261088b6000f3fe608060405234801561001057600080fd5b50600436106100575760003560e01c806301977b571461005c57806344e8a3831461008f5780639449900c146100a2578063e15504b0146100e1578063e5af9aa4146100f4575b600080fd5b61007c61006a36600461063a565b60006020819052908152604090205481565b6040519081526020015b60405180910390f35b61007c61009d36600461066b565b610107565b6100c97f000000000000000000000000000000000000000000000000000000000000000081565b6040516001600160a01b039091168152602001610086565b61007c6100ef36600461066b565b6101c8565b61007c6101023660046106ad565b6101ec565b6000336001600160a01b037f00000000000000000000000000000000000000000000000000000000000000001614610152576040516353a30eb160e11b815260040160405180910390fd5b600061015d846101ec565b905060008061016c8386610257565b60008581526020818152604091829020839055815184815290810183905292945090925084917fc0cb15d8d16fb81314f9fb6d9c277c7a65252226d6ed569c2cdb56bcb1b0e8d4910160405180910390a2509150505b92915050565b6000806101d4846101ec565b905060006101e28285610257565b5095945050505050565b60408051606081019091526000906101c2908061020c60208601866106c9565b6001600160a01b0316815260200184602001602081019061022d91906106c9565b6001600160a01b0316815260200161024b60608601604087016106f2565b60ff1690526060902090565b60008080806102696020860186610715565b6001600160801b03161161027e5760006102b6565b6102b661028e6020860186610715565b6001600160801b03166102a76060870160408801610715565b6001600160801b03169061043b565b90506000670c7d713b49da000082136102d757670c7d713b49da00006102f1565b6102f1670c7d713b49da0000670de0b6b3a7640000610754565b905060006103118261030b670c7d713b49da000086610754565b90610457565b6000888152602081905260408120549192508082810361035e576103406301e13380668e1bc9bf040000610791565b91506103576301e13380668e1bc9bf040000610791565b9050610422565b60006103818561037b6301e133806802b5e3af16b1880000610791565b90610476565b9050600061039560a08c0160808d01610715565b6103a8906001600160801b0316426107bf565b905060006103b682846107d2565b9050806000036103cb5785945085935061041e565b6103d5868261048b565b935060006103ed876103e8600285610791565b61048b565b905060046103fc8260026107d2565b610406878a610802565b6104109190610802565b61041a9190610791565b9550505b5050505b61042c82856104e7565b9a909950975050505050505050565b600061045083670de0b6b3a764000084610568565b9392505050565b60008161046c670de0b6b3a7640000856107d2565b6104509190610791565b6000670de0b6b3a764000061046c83856107d2565b60006104506104a56301e1338066038d7ea4c68000610791565b6104bb6301e13380671bc16d674ec80000610791565b6104ce6104c78661057f565b8790610476565b8181139181189190910218818112918118919091021890565b600080600083126105115761050c670de0b6b3a7640000673782dace9d900000610754565b61053d565b61052b670de0b6b3a7640000673782dace9d900000610457565b61053d90670de0b6b3a7640000610754565b905061056084670de0b6b3a76400006105568487610476565b61037b9190610802565b949350505050565b600081610575848661082a565b6105609190610841565b600068023f2fa8f6da5b9d271982121561059b57506000919050565b6805168fd0946fc0415f82126105bd5750671263b02ca18fb11760871b919050565b60008083126105d4576704cf46d8192b672e6105df565b6704cf46d8192b672d195b905067099e8db03256ce5d838201819005908102840360006002670de0b6b3a7640000838002050582670de0b6b3a764000001019050600083126106285790911b949350505050565b8260000381901d945050505050919050565b60006020828403121561064c57600080fd5b5035919050565b600060a0828403121561066557600080fd5b50919050565b60008082840361024081121561068057600080fd5b61068a8585610653565b92506101a0609f198201121561069f57600080fd5b5060a0830190509250929050565b600060a082840312156106bf57600080fd5b6104508383610653565b6000602082840312156106db57600080fd5b81356001600160a01b038116811461045057600080fd5b60006020828403121561070457600080fd5b813560ff8116811461045057600080fd5b60006020828403121561072757600080fd5b81356001600160801b038116811461045057600080fd5b634e487b7160e01b600052601160045260246000fd5b81810360008312801583831316838312821617156107745761077461073e565b5092915050565b634e487b7160e01b600052601260045260246000fd5b6000826107a0576107a061077b565b600160ff1b8214600019841416156107ba576107ba61073e565b500590565b818103818111156101c2576101c261073e565b80820260008212600160ff1b841416156107ee576107ee61073e565b81810583148215176101c2576101c261073e565b80820182811260008312801582168215821617156108225761082261073e565b505092915050565b80820281158282048414176101c2576101c261073e565b6000826108505761085061077b565b50049056fea2646970667358221220f08862200b9779b0e93149ff964ccec5f8d2b8746dc87f3af40cfd9676a86c0c64736f6c63430008180033",
  "linkReferences": {},
  "deployedLinkReferences": {}
}