{
  "_format": "hh-sol-artifact-1",
  "contractName": "RolesAuthority",
  "sourceName": "src/token/RolesAuthority.sol",
  "abi": [
    {
      "inputs": [
        {
          "internalType": "address",
          "name": "_owner",
          "type": "address"
        }
      ],
      "stateMutability": "nonpayable",
      "type": "constructor"
    },
    {
      "anonymous": false,
      "inputs": [
        {
          "indexed": true,
          "internalType": "address",
          "name": "user",
          "type": "address"
        },
        {
          "indexed": true,
          "internalType": "address",
          "name": "newOwner",
          "type": "address"
        }
      ],
      "name": "OwnerUpdated",
      "type": "event"
    },
    {
      "anonymous": false,
      "inputs": [
        {
          "indexed": true,
          "internalType": "bytes4",
          "name": "functionSig",
          "type": "bytes4"
        },
        {
          "indexed": false,
          "internalType": "bool",
          "name": "enabled",
          "type": "bool"
        }
      ],
      "name": "PublicCapabilityUpdated",
      "type": "event"
    },
    {
      "anonymous": false,
      "inputs": [
        {
          "indexed": true,
          "internalType": "uint8",
          "name": "role",
          "type": "uint8"
        },
        {
          "indexed": true,
          "internalType": "bytes4",
          "name": "functionSig",
          "type": "bytes4"
        },
        {
          "indexed": false,
          "internalType": "bool",
          "name": "enabled",
          "type": "bool"
        }
      ],
      "name": "RoleCapabilityUpdated",
      "type": "event"
    },
    {
      "anonymous": false,
      "inputs": [
        {
          "indexed": true,
          "internalType": "address",
          "name": "user",
          "type": "address"
        },
        {
          "indexed": true,
          "internalType": "uint8",
          "name": "role",
          "type": "uint8"
        },
        {
          "indexed": false,
          "internalType": "bool",
          "name": "enabled",
          "type": "bool"
        }
      ],
      "name": "UserRoleUpdated",
      "type": "event"
    },
    {
      "inputs": [
        {
          "internalType": "address",
          "name": "user",
          "type": "address"
        },
        {
          "internalType": "bytes4",
          "name": "functionSig",
          "type": "bytes4"
        }
      ],
      "name": "canCall",
      "outputs": [
        {
          "internalType": "bool",
          "name": "",
          "type": "bool"
        }
      ],
      "stateMutability": "view",
      "type": "function"
    },
    {
      "inputs": [
        {
          "internalType": "uint8",
          "name": "role",
          "type": "uint8"
        },
        {
          "internalType": "bytes4",
          "name": "functionSig",
          "type": "bytes4"
        }
      ],
      "name": "doesRoleHaveCapability",
      "outputs": [
        {
          "internalType": "bool",
          "name": "",
          "type": "bool"
        }
      ],
      "stateMutability": "view",
      "type": "function"
    },
    {
      "inputs": [
        {
          "internalType": "address",
          "name": "user",
          "type": "address"
        },
        {
          "internalType": "uint8",
          "name": "role",
          "type": "uint8"
        }
      ],
      "name": "doesUserHaveRole",
      "outputs": [
        {
          "internalType": "bool",
          "name": "",
          "type": "bool"
        }
      ],
      "stateMutability": "view",
      "type": "function"
    },
    {
      "inputs": [
        {
          "internalType": "bytes4",
          "name": "",
          "type": "bytes4"
        }
      ],
      "name": "getRolesWithCapability",
      "outputs": [
        {
          "internalType": "bytes32",
          "name": "",
          "type": "bytes32"
        }
      ],
      "stateMutability": "view",
      "type": "function"
    },
    {
      "inputs": [
        {
          "internalType": "address",
          "name": "",
          "type": "address"
        }
      ],
      "name": "getUserRoles",
      "outputs": [
        {
          "internalType": "bytes32",
          "name": "",
          "type": "bytes32"
        }
      ],
      "stateMutability": "view",
      "type": "function"
    },
    {
      "inputs": [
        {
          "internalType": "bytes4",
          "name": "",
          "type": "bytes4"
        }
      ],
      "name": "isCapabilityPublic",
      "outputs": [
        {
          "internalType": "bool",
          "name": "",
          "type": "bool"
        }
      ],
      "stateMutability": "view",
      "type": "function"
    },
    {
      "inputs": [],
      "name": "owner",
      "outputs": [
        {
          "internalType": "address",
          "name": "",
          "type": "address"
        }
      ],
      "stateMutability": "view",
      "type": "function"
    },
    {
      "inputs": [
        {
          "internalType": "address",
          "name": "newOwner",
          "type": "address"
        }
      ],
      "name": "setOwner",
      "outputs": [],
      "stateMutability": "nonpayable",
      "type": "function"
    },
    {
      "inputs": [
        {
          "internalType": "bytes4",
          "name": "functionSig",
          "type": "bytes4"
        },
        {
          "internalType": "bool",
          "name": "enabled",
          "type": "bool"
        }
      ],
      "name": "setPublicCapability",
      "outputs": [],
      "stateMutability": "nonpayable",
      "type": "function"
    },
    {
      "inputs": [
        {
          "internalType": "uint8",
          "name": "role",
          "type": "uint8"
        },
        {
          "internalType": "bytes4",
          "name": "functionSig",
          "type": "bytes4"
        },
        {
          "internalType": "bool",
          "name": "enabled",
          "type": "bool"
        }
      ],
      "name": "setRoleCapability",
      "outputs": [],
      "stateMutability": "nonpayable",
      "type": "function"
    },
    {
      "inputs": [
        {
          "internalType": "address",
          "name": "user",
          "type": "address"
        },
        {
          "internalType": "uint8",
          "name": "role",
          "type": "uint8"
        },
        {
          "internalType": "bool",
          "name": "enabled",
          "type": "bool"
        }
      ],
      "name": "setUserRole",
      "outputs": [],
      "stateMutability": "nonpayable",
      "type": "function"
    }
  ],
  "bytecode": "0x608060405234801561001057600080fd5b5060405161082338038061082383398101604081905261002f9161007e565b600080546001600160a01b0319166001600160a01b0383169081178255604051839233917f8292fce18fa69edf4db7b94ea2e58241df0ae57f97e0a6c9b29067028bf92d769190a350506100ae565b60006020828403121561009057600080fd5b81516001600160a01b03811681146100a757600080fd5b9392505050565b610766806100bd6000396000f3fe608060405234801561001057600080fd5b50600436106100995760003560e01c806306a36aee1461009e5780630bade8a4146100d15780630ea9b75b1461010457806313af4035146101195780634b5159da1461012c57806367aff4841461013f57806386bed3e0146101525780638da5cb5b14610165578063e688747b14610190578063ea7ca276146101c6578063ed0d0efb146101fe575b600080fd5b6100be6100ac366004610589565b60016020526000908152604090205481565b6040519081526020015b60405180910390f35b6100f46100df3660046105bc565b60026020526000908152604090205460ff1681565b60405190151581526020016100c8565b6101176101123660046105f8565b61021e565b005b610117610127366004610589565b6102ff565b61011761013a36600461063b565b61037c565b61011761014d36600461066e565b61040e565b6100f461016036600461069a565b6104e2565b600054610178906001600160a01b031681565b6040516001600160a01b0390911681526020016100c8565b6100f461019e3660046106c4565b6001600160e01b03191660009081526003602052604090205460ff919091161c600116151590565b6100f46101d43660046106e0565b6001600160a01b03821660009081526001602081905260409091205460ff83161c16151592915050565b6100be61020c3660046105bc565b60036020526000908152604090205481565b610234336000356001600160e01b031916610542565b6102595760405162461bcd60e51b81526004016102509061070a565b60405180910390fd5b8015610289576001600160e01b0319821660009081526003602052604090208054600160ff86161b1790556102b0565b6001600160e01b0319821660009081526003602052604090208054600160ff86161b191690555b816001600160e01b0319168360ff167fbfe16b2c35ce23dfd1ab0e7b5d086a10060c9b52d1574e1680c881b3b3a2b151836040516102f2911515815260200190565b60405180910390a3505050565b610315336000356001600160e01b031916610542565b6103315760405162461bcd60e51b81526004016102509061070a565b600080546001600160a01b0319166001600160a01b0383169081178255604051909133917f8292fce18fa69edf4db7b94ea2e58241df0ae57f97e0a6c9b29067028bf92d769190a350565b610392336000356001600160e01b031916610542565b6103ae5760405162461bcd60e51b81526004016102509061070a565b6001600160e01b03198216600081815260026020908152604091829020805460ff191685151590811790915591519182527f36d28126bef21a4f3765d7fcb7c45cead463ae4c41094ef3b771ede598544103910160405180910390a25050565b610424336000356001600160e01b031916610542565b6104405760405162461bcd60e51b81526004016102509061070a565b8015610475576001600160a01b0383166000908152600160208190526040909120805460ff85169290921b90911790556104a1565b6001600160a01b0383166000908152600160208190526040909120805460ff85169290921b1990911690555b8160ff16836001600160a01b03167f4c9bdd0c8e073eb5eda2250b18d8e5121ff27b62064fbeeeed4869bb99bc5bf2836040516102f2911515815260200190565b6001600160e01b0319811660009081526002602052604081205460ff168061053b57506001600160e01b031982166000908152600360209081526040808320546001600160a01b03871684526001909252909120541615155b9392505050565b600061054e83836104e2565b8061053b57506000546001600160a01b03848116911614905092915050565b80356001600160a01b038116811461058457600080fd5b919050565b60006020828403121561059b57600080fd5b61053b8261056d565b80356001600160e01b03198116811461058457600080fd5b6000602082840312156105ce57600080fd5b61053b826105a4565b803560ff8116811461058457600080fd5b8035801515811461058457600080fd5b60008060006060848603121561060d57600080fd5b610616846105d7565b9250610624602085016105a4565b9150610632604085016105e8565b90509250925092565b6000806040838503121561064e57600080fd5b610657836105a4565b9150610665602084016105e8565b90509250929050565b60008060006060848603121561068357600080fd5b61068c8461056d565b9250610624602085016105d7565b600080604083850312156106ad57600080fd5b6106b68361056d565b9150610665602084016105a4565b600080604083850312156106d757600080fd5b6106b6836105d7565b600080604083850312156106f357600080fd5b6106fc8361056d565b9150610665602084016105d7565b6020808252600c908201526b15539055551213d49256915160a21b60408201526060019056fea2646970667358221220c7952072ac2bb1e5f7d03113e40cd918b83312dac1a8c812e9f3a515890c751564736f6c63430008180033",
  "linkReferences": {},
  "deployedLinkReferences": {}
}