{
  "_format": "hh-sol-artifact-1",
  "contractName": "PointsVotingStrategy",
  "sourceName": "src/governance/voting-strategies/PointsVotingStrategy.sol",
  "abi": [
    {
      "inputs": [
        {
          "internalType": "uint256",
          "name": "voterPower",
          "type": "uint256"
        }
      ],
      "name": "calculateVotes",
      "outputs": [
        {
          "internalType": "uint256",
          "name": "",
          "type": "uint256"
        }
      ],
      "stateMutability": "pure",
      "type": "function"
    }
  ],
  "bytecode": "0x608060405234801561001057600080fd5b5060b68061001f6000396000f3fe6080604052348015600f57600080fd5b506004361060285760003560e01c806390ac3ccf14602d575b600080fd5b603c60383660046068565b604e565b60405190815260200160405180910390f35b6000808211605c576000605f565b60015b60ff1692915050565b600060208284031215607957600080fd5b503591905056fea2646970667358221220b855bec6eac0a8c3fca184de1de47ee61b72290d8fd9728b17c6bdb842df24e364736f6c63430008180033",
  "linkReferences": {},
  "deployedLinkReferences": {}
}