{
  "_format": "hh-sol-artifact-1",
  "contractName": "LogarithmicVotingStrategy",
  "sourceName": "src/governance/voting-strategies/LogarithmicVotingStrategy.sol",
  "abi": [
    {
      "inputs": [
        {
          "internalType": "uint256",
          "name": "voterPower",
          "type": "uint256"
        }
      ],
      "name": "calculateVotes",
      "outputs": [
        {
          "internalType": "uint256",
          "name": "",
          "type": "uint256"
        }
      ],
      "stateMutability": "pure",
      "type": "function"
    }
  ],
  "bytecode": "0x608060405234801561001057600080fd5b50610148806100206000396000f3fe608060405234801561001057600080fd5b506004361061002b5760003560e01c806390ac3ccf14610030575b600080fd5b61004361003e3660046100aa565b610055565b60405190815260200160405180910390f35b60008160000361006757506000919050565b61007082610079565b60ff1692915050565b6000805b610088600a846100c3565b925082156100a4578061009a816100e5565b915050600161007d575b92915050565b6000602082840312156100bc57600080fd5b5035919050565b6000826100e057634e487b7160e01b600052601260045260246000fd5b500490565b600060ff821660ff810361010957634e487b7160e01b600052601160045260246000fd5b6001019291505056fea264697066735822122039a3d956631b58c95022ea0aca2ebd1babab7f2f045c4b7252d31d24baf1594264736f6c63430008180033",
  "linkReferences": {},
  "deployedLinkReferences": {}
}