{
  "_format": "hh-sol-artifact-1",
  "contractName": "RewardsDistributor",
  "sourceName": "src/rewards-distribution/RewardsDistributor.sol",
  "abi": [
    {
      "inputs": [
        {
          "internalType": "address",
          "name": "_rewardToken",
          "type": "address"
        }
      ],
      "stateMutability": "nonpayable",
      "type": "constructor"
    },
    {
      "inputs": [],
      "name": "AlreadyClaimed",
      "type": "error"
    },
    {
      "inputs": [
        {
          "internalType": "address",
          "name": "owner",
          "type": "address"
        }
      ],
      "name": "OwnableInvalidOwner",
      "type": "error"
    },
    {
      "inputs": [
        {
          "internalType": "address",
          "name": "account",
          "type": "address"
        }
      ],
      "name": "OwnableUnauthorizedAccount",
      "type": "error"
    },
    {
      "inputs": [],
      "name": "ProofInvalidOrExpired",
      "type": "error"
    },
    {
      "anonymous": false,
      "inputs": [
        {
          "indexed": true,
          "internalType": "address",
          "name": "previousOwner",
          "type": "address"
        },
        {
          "indexed": true,
          "internalType": "address",
          "name": "newOwner",
          "type": "address"
        }
      ],
      "name": "OwnershipTransferred",
      "type": "event"
    },
    {
      "anonymous": false,
      "inputs": [
        {
          "indexed": false,
          "internalType": "address",
          "name": "to",
          "type": "address"
        },
        {
          "indexed": false,
          "internalType": "uint256",
          "name": "amount",
          "type": "uint256"
        }
      ],
      "name": "RewardTokenWithdrawn",
      "type": "event"
    },
    {
      "anonymous": false,
      "inputs": [
        {
          "indexed": false,
          "internalType": "address",
          "name": "account",
          "type": "address"
        },
        {
          "indexed": false,
          "internalType": "uint256",
          "name": "amount",
          "type": "uint256"
        }
      ],
      "name": "RewardsClaimed",
      "type": "event"
    },
    {
      "anonymous": false,
      "inputs": [
        {
          "indexed": false,
          "internalType": "bytes32",
          "name": "newRoot",
          "type": "bytes32"
        }
      ],
      "name": "RootUpdated",
      "type": "event"
    },
    {
      "inputs": [],
      "name": "REWARDTOKEN",
      "outputs": [
        {
          "internalType": "contract ERC20",
          "name": "",
          "type": "address"
        }
      ],
      "stateMutability": "view",
      "type": "function"
    },
    {
      "inputs": [
        {
          "internalType": "address",
          "name": "_account",
          "type": "address"
        },
        {
          "internalType": "uint256",
          "name": "_claimable",
          "type": "uint256"
        },
        {
          "internalType": "bytes32[]",
          "name": "_proof",
          "type": "bytes32[]"
        }
      ],
      "name": "claim",
      "outputs": [],
      "stateMutability": "nonpayable",
      "type": "function"
    },
    {
      "inputs": [
        {
          "internalType": "address",
          "name": "",
          "type": "address"
        }
      ],
      "name": "claimed",
      "outputs": [
        {
          "internalType": "uint256",
          "name": "",
          "type": "uint256"
        }
      ],
      "stateMutability": "view",
      "type": "function"
    },
    {
      "inputs": [],
      "name": "currRoot",
      "outputs": [
        {
          "internalType": "bytes32",
          "name": "",
          "type": "bytes32"
        }
      ],
      "stateMutability": "view",
      "type": "function"
    },
    {
      "inputs": [],
      "name": "owner",
      "outputs": [
        {
          "internalType": "address",
          "name": "",
          "type": "address"
        }
      ],
      "stateMutability": "view",
      "type": "function"
    },
    {
      "inputs": [],
      "name": "prevRoot",
      "outputs": [
        {
          "internalType": "bytes32",
          "name": "",
          "type": "bytes32"
        }
      ],
      "stateMutability": "view",
      "type": "function"
    },
    {
      "inputs": [],
      "name": "renounceOwnership",
      "outputs": [],
      "stateMutability": "nonpayable",
      "type": "function"
    },
    {
      "inputs": [
        {
          "internalType": "address",
          "name": "newOwner",
          "type": "address"
        }
      ],
      "name": "transferOwnership",
      "outputs": [],
      "stateMutability": "nonpayable",
      "type": "function"
    },
    {
      "inputs": [
        {
          "internalType": "bytes32",
          "name": "_newRoot",
          "type": "bytes32"
        }
      ],
      "name": "updateRoot",
      "outputs": [],
      "stateMutability": "nonpayable",
      "type": "function"
    },
    {
      "inputs": [
        {
          "internalType": "address",
          "name": "_to",
          "type": "address"
        },
        {
          "internalType": "uint256",
          "name": "_amount",
          "type": "uint256"
        }
      ],
      "name": "withdrawREWARDTOKENTokens",
      "outputs": [],
      "stateMutability": "nonpayable",
      "type": "function"
    }
  ],
  "bytecode": "0x60a060405234801561001057600080fd5b506040516108ea3803806108ea83398101604081905261002f916100c0565b338061005557604051631e4fbdf760e01b81526000600482015260240160405180910390fd5b61005e81610070565b506001600160a01b03166080526100f0565b600080546001600160a01b038381166001600160a01b0319831681178455604051919092169283917f8be0079c531659141344cd1fd0a4f28419497f9722a3daafe3b4186f6b6457e09190a35050565b6000602082840312156100d257600080fd5b81516001600160a01b03811681146100e957600080fd5b9392505050565b6080516107cb61011f600039600081816098015281816102c401528181610372015261040a01526107cb6000f3fe608060405234801561001057600080fd5b506004361061008e5760003560e01c8063032c32fc1461009357806321ff9970146100d05780633d13f874146100e5578063715018a6146100f85780638da5cb5b146101005780639c0a813114610108578063c884ef831461011b578063e3f5b19514610149578063f2fde38b14610152578063fdb4beda14610165575b600080fd5b6100ba7f000000000000000000000000000000000000000000000000000000000000000081565b6040516100c79190610635565b60405180910390f35b6100e36100de366004610649565b61016e565b005b6100e36100f336600461067e565b6101b6565b6100e361032d565b6100ba610341565b6100e3610116366004610708565b610350565b61013b610129366004610732565b60036020526000908152604090205481565b6040519081526020016100c7565b61013b60015481565b6100e3610160366004610732565b610470565b61013b60025481565b6101766104b7565b600180546002558190556040518181527f2cbc14f49c068133583f7cb530018af451c87c1cf1327cf2a4ff4698c4730aa49060200160405180910390a150565b6000610231838380806020026020016040519081016040528093929190818152602001838360200280828437600092019190915250506040516001600160601b031960608b901b1660208201526034810189905260540191506102169050565b604051602081830303815290604052805190602001206104e9565b9050600154811415801561024757506002548114155b156102655760405163f542095760e01b815260040160405180910390fd5b6001600160a01b03851660009081526003602052604090205480851161029e57604051630c8d9eab60e31b815260040160405180910390fd5b6001600160a01b038087166000908152600360205260409020869055818603906102eb907f000000000000000000000000000000000000000000000000000000000000000016888361052c565b7ffc30cddea38e2bf4d6ea7d3f9ed3b6ad7f176419f4963bd81318067a4aee73fe878260405161031c92919061074d565b60405180910390a150505050505050565b6103356104b7565b61033f60006105b3565b565b6000546001600160a01b031690565b6103586104b7565b6040516370a0823160e01b81526000906001600160a01b037f000000000000000000000000000000000000000000000000000000000000000016906370a08231906103a7903090600401610635565b602060405180830381865afa1580156103c4573d6000803e3d6000fd5b505050506040513d601f19601f820116820180604052508101906103e89190610766565b905060008282106103f957826103fb565b815b90506104316001600160a01b037f000000000000000000000000000000000000000000000000000000000000000016858361052c565b7f5991a08bb51d1fc3f552255ed446f040dca378ad3ff91763507b63b185eb5d2e848260405161046292919061074d565b60405180910390a150505050565b6104786104b7565b6001600160a01b0381166104ab576000604051631e4fbdf760e01b81526004016104a29190610635565b60405180910390fd5b6104b4816105b3565b50565b336104c0610341565b6001600160a01b03161461033f573360405163118cdaa760e01b81526004016104a29190610635565b600081815b84518110156105245761051a8286838151811061050d5761050d61077f565b6020026020010151610603565b91506001016104ee565b509392505050565b600060405163a9059cbb60e01b81526001600160a01b0384166004820152826024820152602060006044836000895af13d15601f3d11600160005114161716915050806105ad5760405162461bcd60e51b815260206004820152600f60248201526e1514905394d1915497d19052531151608a1b60448201526064016104a2565b50505050565b600080546001600160a01b038381166001600160a01b0319831681178455604051919092169283917f8be0079c531659141344cd1fd0a4f28419497f9722a3daafe3b4186f6b6457e09190a35050565b600081831061061f57600082815260208490526040902061062e565b60008381526020839052604090205b9392505050565b6001600160a01b0391909116815260200190565b60006020828403121561065b57600080fd5b5035919050565b80356001600160a01b038116811461067957600080fd5b919050565b6000806000806060858703121561069457600080fd5b61069d85610662565b935060208501359250604085013567ffffffffffffffff808211156106c157600080fd5b818701915087601f8301126106d557600080fd5b8135818111156106e457600080fd5b8860208260051b85010111156106f957600080fd5b95989497505060200194505050565b6000806040838503121561071b57600080fd5b61072483610662565b946020939093013593505050565b60006020828403121561074457600080fd5b61062e82610662565b6001600160a01b03929092168252602082015260400190565b60006020828403121561077857600080fd5b5051919050565b634e487b7160e01b600052603260045260246000fdfea26469706673582212200e7e17f7c0327b076778a4ee4909df31a83f59128c09b56e0aa864626047c5a964736f6c63430008180033",
  "linkReferences": {},
  "deployedLinkReferences": {}
}