{
  "_format": "hh-sol-artifact-1",
  "contractName": "Spatha",
  "sourceName": "src/Spatha.sol",
  "abi": [
    {
      "inputs": [
        {
          "internalType": "address",
          "name": "protocolGovernor_",
          "type": "address"
        },
        {
          "internalType": "address",
          "name": "marketGovernor_",
          "type": "address"
        },
        {
          "internalType": "address",
          "name": "priceOracle_",
          "type": "address"
        },
        {
          "internalType": "address",
          "name": "stableIrm_",
          "type": "address"
        },
        {
          "internalType": "address",
          "name": "variableIrm_",
          "type": "address"
        }
      ],
      "stateMutability": "nonpayable",
      "type": "constructor"
    },
    {
      "inputs": [
        {
          "internalType": "address",
          "name": "target",
          "type": "address"
        }
      ],
      "name": "AddressEmptyCode",
      "type": "error"
    },
    {
      "inputs": [
        {
          "internalType": "address",
          "name": "account",
          "type": "address"
        }
      ],
      "name": "AddressInsufficientBalance",
      "type": "error"
    },
    {
      "inputs": [],
      "name": "Error_ADD_COLLATERAL_PAUSED",
      "type": "error"
    },
    {
      "inputs": [],
      "name": "Error_ADD_LIQUIDITY_PAUSED",
      "type": "error"
    },
    {
      "inputs": [],
      "name": "Error_BORROW_PAUSED",
      "type": "error"
    },
    {
      "inputs": [],
      "name": "Error_CALLER_NOT_MARKET_GOVERNOR",
      "type": "error"
    },
    {
      "inputs": [],
      "name": "Error_CALLER_NOT_PROTOCOL_GOVERNOR",
      "type": "error"
    },
    {
      "inputs": [],
      "name": "Error_FEE_NOT_SET",
      "type": "error"
    },
    {
      "inputs": [],
      "name": "Error_HEALTHY_POSITION",
      "type": "error"
    },
    {
      "inputs": [],
      "name": "Error_INCONSISTENT_INPUT",
      "type": "error"
    },
    {
      "inputs": [],
      "name": "Error_INSUFFICIENT_COLLATERAL",
      "type": "error"
    },
    {
      "inputs": [],
      "name": "Error_INSUFFICIENT_LIQUIDITY",
      "type": "error"
    },
    {
      "inputs": [],
      "name": "Error_INVALID_LLTV_VALUE",
      "type": "error"
    },
    {
      "inputs": [],
      "name": "Error_INVALID_PRICE",
      "type": "error"
    },
    {
      "inputs": [],
      "name": "Error_INVALID_RISK_TIER",
      "type": "error"
    },
    {
      "inputs": [],
      "name": "Error_LIQUIDATE_PAUSED",
      "type": "error"
    },
    {
      "inputs": [],
      "name": "Error_MARKET_ALREADY_CREATED",
      "type": "error"
    },
    {
      "inputs": [],
      "name": "Error_MARKET_NOT_CREATED",
      "type": "error"
    },
    {
      "inputs": [],
      "name": "Error_MAX_FEE_EXCEEDED",
      "type": "error"
    },
    {
      "inputs": [],
      "name": "Error_MAX_UINT128_EXCEEDED",
      "type": "error"
    },
    {
      "inputs": [],
      "name": "Error_REPAY_PAUSED",
      "type": "error"
    },
    {
      "inputs": [],
      "name": "Error_UNAUTHORIZED",
      "type": "error"
    },
    {
      "inputs": [],
      "name": "Error_WITHDRAW_COLLATERAL_PAUSED",
      "type": "error"
    },
    {
      "inputs": [],
      "name": "Error_WITHDRAW_LIQUIDITY_PAUSED",
      "type": "error"
    },
    {
      "inputs": [],
      "name": "Error_ZERO_ADDRESS",
      "type": "error"
    },
    {
      "inputs": [],
      "name": "Error_ZERO_ASSETS",
      "type": "error"
    },
    {
      "inputs": [],
      "name": "FailedInnerCall",
      "type": "error"
    },
    {
      "inputs": [
        {
          "internalType": "address",
          "name": "token",
          "type": "address"
        }
      ],
      "name": "SafeERC20FailedOperation",
      "type": "error"
    },
    {
      "anonymous": false,
      "inputs": [
        {
          "indexed": true,
          "internalType": "Id",
          "name": "id",
          "type": "bytes32"
        },
        {
          "indexed": false,
          "internalType": "uint256",
          "name": "prevBorrowRate",
          "type": "uint256"
        },
        {
          "indexed": false,
          "internalType": "uint256",
          "name": "interest",
          "type": "uint256"
        },
        {
          "indexed": false,
          "internalType": "uint256",
          "name": "feeShares",
          "type": "uint256"
        }
      ],
      "name": "LogAccrueInterest",
      "type": "event"
    },
    {
      "anonymous": false,
      "inputs": [
        {
          "indexed": true,
          "internalType": "Id",
          "name": "id",
          "type": "bytes32"
        },
        {
          "indexed": true,
          "internalType": "address",
          "name": "caller",
          "type": "address"
        },
        {
          "indexed": true,
          "internalType": "address",
          "name": "onBehalf",
          "type": "address"
        },
        {
          "indexed": false,
          "internalType": "uint256",
          "name": "assets",
          "type": "uint256"
        }
      ],
      "name": "LogAddCollateral",
      "type": "event"
    },
    {
      "anonymous": false,
      "inputs": [
        {
          "indexed": true,
          "internalType": "Id",
          "name": "id",
          "type": "bytes32"
        },
        {
          "indexed": true,
          "internalType": "address",
          "name": "caller",
          "type": "address"
        },
        {
          "indexed": true,
          "internalType": "address",
          "name": "onBehalf",
          "type": "address"
        },
        {
          "indexed": false,
          "internalType": "uint256",
          "name": "assets",
          "type": "uint256"
        },
        {
          "indexed": false,
          "internalType": "uint256",
          "name": "shares",
          "type": "uint256"
        }
      ],
      "name": "LogAddLiquidity",
      "type": "event"
    },
    {
      "anonymous": false,
      "inputs": [
        {
          "indexed": true,
          "internalType": "Id",
          "name": "id",
          "type": "bytes32"
        },
        {
          "indexed": false,
          "internalType": "address",
          "name": "caller",
          "type": "address"
        },
        {
          "indexed": true,
          "internalType": "address",
          "name": "onBehalf",
          "type": "address"
        },
        {
          "indexed": true,
          "internalType": "address",
          "name": "receiver",
          "type": "address"
        },
        {
          "indexed": false,
          "internalType": "uint256",
          "name": "assets",
          "type": "uint256"
        },
        {
          "indexed": false,
          "internalType": "uint256",
          "name": "shares",
          "type": "uint256"
        }
      ],
      "name": "LogBorrow",
      "type": "event"
    },
    {
      "anonymous": false,
      "inputs": [
        {
          "indexed": true,
          "internalType": "Id",
          "name": "id",
          "type": "bytes32"
        },
        {
          "components": [
            {
              "internalType": "address",
              "name": "loanToken",
              "type": "address"
            },
            {
              "internalType": "address",
              "name": "collateralToken",
              "type": "address"
            },
            {
              "internalType": "uint8",
              "name": "riskTier",
              "type": "uint8"
            },
            {
              "internalType": "uint256",
              "name": "lltv",
              "type": "uint256"
            },
            {
              "internalType": "address",
              "name": "irm",
              "type": "address"
            }
          ],
          "indexed": false,
          "internalType": "struct MarketParams",
          "name": "marketParams",
          "type": "tuple"
        }
      ],
      "name": "LogCreateMarket",
      "type": "event"
    },
    {
      "anonymous": false,
      "inputs": [
        {
          "indexed": true,
          "internalType": "uint256",
          "name": "riskTier",
          "type": "uint256"
        },
        {
          "indexed": false,
          "internalType": "uint256",
          "name": "newFee",
          "type": "uint256"
        }
      ],
      "name": "LogDefaultFeeChanged",
      "type": "event"
    },
    {
      "anonymous": false,
      "inputs": [
        {
          "indexed": true,
          "internalType": "Id",
          "name": "id",
          "type": "bytes32"
        },
        {
          "indexed": false,
          "internalType": "uint256",
          "name": "newFee",
          "type": "uint256"
        }
      ],
      "name": "LogFeeChanged",
      "type": "event"
    },
    {
      "anonymous": false,
      "inputs": [
        {
          "indexed": true,
          "internalType": "address",
          "name": "caller",
          "type": "address"
        },
        {
          "indexed": true,
          "internalType": "address",
          "name": "token",
          "type": "address"
        },
        {
          "indexed": false,
          "internalType": "uint256",
          "name": "assets",
          "type": "uint256"
        }
      ],
      "name": "LogFlashLoan",
      "type": "event"
    },
    {
      "anonymous": false,
      "inputs": [
        {
          "indexed": true,
          "internalType": "Id",
          "name": "id",
          "type": "bytes32"
        },
        {
          "indexed": false,
          "internalType": "bool",
          "name": "isPaused",
          "type": "bool"
        }
      ],
      "name": "LogIsAddCollateralPausedSet",
      "type": "event"
    },
    {
      "anonymous": false,
      "inputs": [
        {
          "indexed": true,
          "internalType": "Id",
          "name": "id",
          "type": "bytes32"
        },
        {
          "indexed": false,
          "internalType": "bool",
          "name": "isPaused",
          "type": "bool"
        }
      ],
      "name": "LogIsAddLiquidityPausedSet",
      "type": "event"
    },
    {
      "anonymous": false,
      "inputs": [
        {
          "indexed": true,
          "internalType": "Id",
          "name": "id",
          "type": "bytes32"
        },
        {
          "indexed": false,
          "internalType": "bool",
          "name": "isPaused",
          "type": "bool"
        }
      ],
      "name": "LogIsBorrowPausedSet",
      "type": "event"
    },
    {
      "anonymous": false,
      "inputs": [
        {
          "indexed": false,
          "internalType": "bool",
          "name": "isPaused",
          "type": "bool"
        }
      ],
      "name": "LogIsClaimRewardsPausedSet",
      "type": "event"
    },
    {
      "anonymous": false,
      "inputs": [
        {
          "indexed": true,
          "internalType": "Id",
          "name": "id",
          "type": "bytes32"
        },
        {
          "indexed": false,
          "internalType": "bool",
          "name": "isPaused",
          "type": "bool"
        }
      ],
      "name": "LogIsLiquidatePausedSet",
      "type": "event"
    },
    {
      "anonymous": false,
      "inputs": [
        {
          "indexed": true,
          "internalType": "Id",
          "name": "id",
          "type": "bytes32"
        },
        {
          "indexed": false,
          "internalType": "bool",
          "name": "isPaused",
          "type": "bool"
        }
      ],
      "name": "LogIsMarketPausedSet",
      "type": "event"
    },
    {
      "anonymous": false,
      "inputs": [
        {
          "indexed": true,
          "internalType": "Id",
          "name": "id",
          "type": "bytes32"
        },
        {
          "indexed": false,
          "internalType": "bool",
          "name": "isPaused",
          "type": "bool"
        }
      ],
      "name": "LogIsRepayPausedSet",
      "type": "event"
    },
    {
      "anonymous": false,
      "inputs": [
        {
          "indexed": true,
          "internalType": "Id",
          "name": "id",
          "type": "bytes32"
        },
        {
          "indexed": false,
          "internalType": "bool",
          "name": "isPaused",
          "type": "bool"
        }
      ],
      "name": "LogIsWithdrawCollateralPausedSet",
      "type": "event"
    },
    {
      "anonymous": false,
      "inputs": [
        {
          "indexed": true,
          "internalType": "Id",
          "name": "id",
          "type": "bytes32"
        },
        {
          "indexed": false,
          "internalType": "bool",
          "name": "isPaused",
          "type": "bool"
        }
      ],
      "name": "LogIsWithdrawLiquidityPausedSet",
      "type": "event"
    },
    {
      "anonymous": false,
      "inputs": [
        {
          "indexed": true,
          "internalType": "Id",
          "name": "id",
          "type": "bytes32"
        },
        {
          "indexed": true,
          "internalType": "address",
          "name": "caller",
          "type": "address"
        },
        {
          "indexed": true,
          "internalType": "address",
          "name": "borrower",
          "type": "address"
        },
        {
          "indexed": false,
          "internalType": "uint256",
          "name": "repaidAssets",
          "type": "uint256"
        },
        {
          "indexed": false,
          "internalType": "uint256",
          "name": "repaidShares",
          "type": "uint256"
        },
        {
          "indexed": false,
          "internalType": "uint256",
          "name": "seizedAssets",
          "type": "uint256"
        },
        {
          "indexed": false,
          "internalType": "uint256",
          "name": "badDebtAssets",
          "type": "uint256"
        },
        {
          "indexed": false,
          "internalType": "uint256",
          "name": "badDebtShares",
          "type": "uint256"
        }
      ],
      "name": "LogLiquidate",
      "type": "event"
    },
    {
      "anonymous": false,
      "inputs": [
        {
          "indexed": true,
          "internalType": "address",
          "name": "oldGovernor",
          "type": "address"
        },
        {
          "indexed": true,
          "internalType": "address",
          "name": "newGovernor",
          "type": "address"
        }
      ],
      "name": "LogMarketGovernorSet",
      "type": "event"
    },
    {
      "anonymous": false,
      "inputs": [
        {
          "indexed": true,
          "internalType": "address",
          "name": "priceOracle",
          "type": "address"
        }
      ],
      "name": "LogPriceOracleSet",
      "type": "event"
    },
    {
      "anonymous": false,
      "inputs": [
        {
          "indexed": true,
          "internalType": "address",
          "name": "oldGovernor",
          "type": "address"
        },
        {
          "indexed": true,
          "internalType": "address",
          "name": "newGovernor",
          "type": "address"
        }
      ],
      "name": "LogProtocolGovernorSet",
      "type": "event"
    },
    {
      "anonymous": false,
      "inputs": [
        {
          "indexed": true,
          "internalType": "Id",
          "name": "id",
          "type": "bytes32"
        },
        {
          "indexed": true,
          "internalType": "address",
          "name": "caller",
          "type": "address"
        },
        {
          "indexed": true,
          "internalType": "address",
          "name": "onBehalf",
          "type": "address"
        },
        {
          "indexed": false,
          "internalType": "uint256",
          "name": "assets",
          "type": "uint256"
        },
        {
          "indexed": false,
          "internalType": "uint256",
          "name": "shares",
          "type": "uint256"
        }
      ],
      "name": "LogRepay",
      "type": "event"
    },
    {
      "anonymous": false,
      "inputs": [
        {
          "indexed": true,
          "internalType": "address",
          "name": "caller",
          "type": "address"
        },
        {
          "indexed": true,
          "internalType": "address",
          "name": "owner",
          "type": "address"
        },
        {
          "indexed": true,
          "internalType": "address",
          "name": "approved",
          "type": "address"
        },
        {
          "indexed": false,
          "internalType": "bool",
          "name": "newIsApproved",
          "type": "bool"
        }
      ],
      "name": "LogSetApproved",
      "type": "event"
    },
    {
      "anonymous": false,
      "inputs": [
        {
          "indexed": true,
          "internalType": "address",
          "name": "newFeeRecipient",
          "type": "address"
        }
      ],
      "name": "LogSetFeeRecipient",
      "type": "event"
    },
    {
      "anonymous": false,
      "inputs": [
        {
          "indexed": true,
          "internalType": "address",
          "name": "irm",
          "type": "address"
        },
        {
          "indexed": true,
          "internalType": "uint256",
          "name": "mode",
          "type": "uint256"
        }
      ],
      "name": "LogSetIRM",
      "type": "event"
    },
    {
      "anonymous": false,
      "inputs": [
        {
          "indexed": true,
          "internalType": "Id",
          "name": "id",
          "type": "bytes32"
        },
        {
          "indexed": false,
          "internalType": "uint256",
          "name": "lltv",
          "type": "uint256"
        }
      ],
      "name": "LogSetLltv",
      "type": "event"
    },
    {
      "anonymous": false,
      "inputs": [
        {
          "indexed": true,
          "internalType": "Id",
          "name": "id",
          "type": "bytes32"
        },
        {
          "indexed": false,
          "internalType": "uint256",
          "name": "mode",
          "type": "uint256"
        }
      ],
      "name": "LogSetMarketIRM",
      "type": "event"
    },
    {
      "anonymous": false,
      "inputs": [
        {
          "indexed": true,
          "internalType": "Id",
          "name": "id",
          "type": "bytes32"
        },
        {
          "indexed": false,
          "internalType": "address",
          "name": "caller",
          "type": "address"
        },
        {
          "indexed": true,
          "internalType": "address",
          "name": "onBehalf",
          "type": "address"
        },
        {
          "indexed": true,
          "internalType": "address",
          "name": "receiver",
          "type": "address"
        },
        {
          "indexed": false,
          "internalType": "uint256",
          "name": "assets",
          "type": "uint256"
        }
      ],
      "name": "LogWithdrawCollateral",
      "type": "event"
    },
    {
      "anonymous": false,
      "inputs": [
        {
          "indexed": true,
          "internalType": "Id",
          "name": "id",
          "type": "bytes32"
        },
        {
          "indexed": false,
          "internalType": "address",
          "name": "caller",
          "type": "address"
        },
        {
          "indexed": true,
          "internalType": "address",
          "name": "onBehalf",
          "type": "address"
        },
        {
          "indexed": true,
          "internalType": "address",
          "name": "receiver",
          "type": "address"
        },
        {
          "indexed": false,
          "internalType": "uint256",
          "name": "assets",
          "type": "uint256"
        },
        {
          "indexed": false,
          "internalType": "uint256",
          "name": "shares",
          "type": "uint256"
        }
      ],
      "name": "LogWithdrawLiquidity",
      "type": "event"
    },
    {
      "inputs": [],
      "name": "DOMAIN_SEPARATOR",
      "outputs": [
        {
          "internalType": "bytes32",
          "name": "",
          "type": "bytes32"
        }
      ],
      "stateMutability": "view",
      "type": "function"
    },
    {
      "inputs": [
        {
          "components": [
            {
              "internalType": "address",
              "name": "loanToken",
              "type": "address"
            },
            {
              "internalType": "address",
              "name": "collateralToken",
              "type": "address"
            },
            {
              "internalType": "uint8",
              "name": "riskTier",
              "type": "uint8"
            }
          ],
          "internalType": "struct MarketCreationParams",
          "name": "marketCreationParams",
          "type": "tuple"
        }
      ],
      "name": "accrueInterest",
      "outputs": [],
      "stateMutability": "nonpayable",
      "type": "function"
    },
    {
      "inputs": [
        {
          "components": [
            {
              "internalType": "address",
              "name": "loanToken",
              "type": "address"
            },
            {
              "internalType": "address",
              "name": "collateralToken",
              "type": "address"
            },
            {
              "internalType": "uint8",
              "name": "riskTier",
              "type": "uint8"
            }
          ],
          "internalType": "struct MarketCreationParams",
          "name": "marketCreationParams",
          "type": "tuple"
        },
        {
          "internalType": "uint256",
          "name": "assets",
          "type": "uint256"
        },
        {
          "internalType": "address",
          "name": "onBehalf",
          "type": "address"
        }
      ],
      "name": "addCollateral",
      "outputs": [],
      "stateMutability": "nonpayable",
      "type": "function"
    },
    {
      "inputs": [
        {
          "components": [
            {
              "internalType": "address",
              "name": "loanToken",
              "type": "address"
            },
            {
              "internalType": "address",
              "name": "collateralToken",
              "type": "address"
            },
            {
              "internalType": "uint8",
              "name": "riskTier",
              "type": "uint8"
            }
          ],
          "internalType": "struct MarketCreationParams",
          "name": "marketCreationParams",
          "type": "tuple"
        },
        {
          "internalType": "uint256",
          "name": "assets",
          "type": "uint256"
        },
        {
          "internalType": "uint256",
          "name": "shares",
          "type": "uint256"
        },
        {
          "internalType": "address",
          "name": "onBehalf",
          "type": "address"
        }
      ],
      "name": "addLiquidity",
      "outputs": [
        {
          "internalType": "uint256",
          "name": "assetsAdded",
          "type": "uint256"
        },
        {
          "internalType": "uint256",
          "name": "sharesMinted",
          "type": "uint256"
        }
      ],
      "stateMutability": "nonpayable",
      "type": "function"
    },
    {
      "inputs": [
        {
          "components": [
            {
              "internalType": "address",
              "name": "loanToken",
              "type": "address"
            },
            {
              "internalType": "address",
              "name": "collateralToken",
              "type": "address"
            },
            {
              "internalType": "uint8",
              "name": "riskTier",
              "type": "uint8"
            }
          ],
          "internalType": "struct MarketCreationParams",
          "name": "marketCreationParams",
          "type": "tuple"
        },
        {
          "internalType": "uint256",
          "name": "assets",
          "type": "uint256"
        },
        {
          "internalType": "uint256",
          "name": "shares",
          "type": "uint256"
        },
        {
          "internalType": "address",
          "name": "onBehalf",
          "type": "address"
        },
        {
          "internalType": "address",
          "name": "receiver",
          "type": "address"
        }
      ],
      "name": "borrow",
      "outputs": [
        {
          "internalType": "uint256",
          "name": "assetsBorrowed",
          "type": "uint256"
        },
        {
          "internalType": "uint256",
          "name": "sharesBorrowed",
          "type": "uint256"
        }
      ],
      "stateMutability": "nonpayable",
      "type": "function"
    },
    {
      "inputs": [
        {
          "components": [
            {
              "internalType": "address",
              "name": "loanToken",
              "type": "address"
            },
            {
              "internalType": "address",
              "name": "collateralToken",
              "type": "address"
            },
            {
              "internalType": "uint8",
              "name": "riskTier",
              "type": "uint8"
            }
          ],
          "internalType": "struct MarketCreationParams",
          "name": "marketCreationParams",
          "type": "tuple"
        }
      ],
      "name": "createMarket",
      "outputs": [],
      "stateMutability": "nonpayable",
      "type": "function"
    },
    {
      "inputs": [],
      "name": "feeRecipient",
      "outputs": [
        {
          "internalType": "address",
          "name": "",
          "type": "address"
        }
      ],
      "stateMutability": "view",
      "type": "function"
    },
    {
      "inputs": [
        {
          "internalType": "uint256",
          "name": "",
          "type": "uint256"
        }
      ],
      "name": "fees",
      "outputs": [
        {
          "internalType": "uint256",
          "name": "",
          "type": "uint256"
        }
      ],
      "stateMutability": "view",
      "type": "function"
    },
    {
      "inputs": [
        {
          "internalType": "address",
          "name": "token",
          "type": "address"
        },
        {
          "internalType": "uint256",
          "name": "assets",
          "type": "uint256"
        }
      ],
      "name": "flashLoan",
      "outputs": [],
      "stateMutability": "nonpayable",
      "type": "function"
    },
    {
      "inputs": [
        {
          "internalType": "address",
          "name": "collateralToken",
          "type": "address"
        },
        {
          "internalType": "address",
          "name": "loanToken",
          "type": "address"
        }
      ],
      "name": "getCollateralPrice",
      "outputs": [
        {
          "internalType": "uint256",
          "name": "",
          "type": "uint256"
        }
      ],
      "stateMutability": "view",
      "type": "function"
    },
    {
      "inputs": [
        {
          "components": [
            {
              "internalType": "address",
              "name": "loanToken",
              "type": "address"
            },
            {
              "internalType": "address",
              "name": "collateralToken",
              "type": "address"
            },
            {
              "internalType": "uint8",
              "name": "riskTier",
              "type": "uint8"
            },
            {
              "internalType": "uint256",
              "name": "lltv",
              "type": "uint256"
            },
            {
              "internalType": "address",
              "name": "irm",
              "type": "address"
            }
          ],
          "internalType": "struct MarketParams",
          "name": "marketParams",
          "type": "tuple"
        },
        {
          "internalType": "address",
          "name": "user",
          "type": "address"
        }
      ],
      "name": "getExpectedBorrowAssets",
      "outputs": [
        {
          "internalType": "uint256",
          "name": "",
          "type": "uint256"
        }
      ],
      "stateMutability": "view",
      "type": "function"
    },
    {
      "inputs": [
        {
          "components": [
            {
              "internalType": "address",
              "name": "loanToken",
              "type": "address"
            },
            {
              "internalType": "address",
              "name": "collateralToken",
              "type": "address"
            },
            {
              "internalType": "uint8",
              "name": "riskTier",
              "type": "uint8"
            },
            {
              "internalType": "uint256",
              "name": "lltv",
              "type": "uint256"
            },
            {
              "internalType": "address",
              "name": "irm",
              "type": "address"
            }
          ],
          "internalType": "struct MarketParams",
          "name": "marketParams",
          "type": "tuple"
        }
      ],
      "name": "getExpectedMarketBalances",
      "outputs": [
        {
          "internalType": "uint256",
          "name": "",
          "type": "uint256"
        },
        {
          "internalType": "uint256",
          "name": "",
          "type": "uint256"
        },
        {
          "internalType": "uint256",
          "name": "",
          "type": "uint256"
        },
        {
          "internalType": "uint256",
          "name": "",
          "type": "uint256"
        }
      ],
      "stateMutability": "view",
      "type": "function"
    },
    {
      "inputs": [
        {
          "components": [
            {
              "internalType": "address",
              "name": "loanToken",
              "type": "address"
            },
            {
              "internalType": "address",
              "name": "collateralToken",
              "type": "address"
            },
            {
              "internalType": "uint8",
              "name": "riskTier",
              "type": "uint8"
            },
            {
              "internalType": "uint256",
              "name": "lltv",
              "type": "uint256"
            },
            {
              "internalType": "address",
              "name": "irm",
              "type": "address"
            }
          ],
          "internalType": "struct MarketParams",
          "name": "marketParams",
          "type": "tuple"
        },
        {
          "internalType": "address",
          "name": "user",
          "type": "address"
        }
      ],
      "name": "getExpectedSupplyAssets",
      "outputs": [
        {
          "internalType": "uint256",
          "name": "",
          "type": "uint256"
        }
      ],
      "stateMutability": "view",
      "type": "function"
    },
    {
      "inputs": [
        {
          "components": [
            {
              "internalType": "address",
              "name": "loanToken",
              "type": "address"
            },
            {
              "internalType": "address",
              "name": "collateralToken",
              "type": "address"
            },
            {
              "internalType": "uint8",
              "name": "riskTier",
              "type": "uint8"
            },
            {
              "internalType": "uint256",
              "name": "lltv",
              "type": "uint256"
            },
            {
              "internalType": "address",
              "name": "irm",
              "type": "address"
            }
          ],
          "internalType": "struct MarketParams",
          "name": "marketParams",
          "type": "tuple"
        }
      ],
      "name": "getExpectedTotalBorrowAssets",
      "outputs": [
        {
          "internalType": "uint256",
          "name": "totalBorrowAssets",
          "type": "uint256"
        }
      ],
      "stateMutability": "view",
      "type": "function"
    },
    {
      "inputs": [
        {
          "components": [
            {
              "internalType": "address",
              "name": "loanToken",
              "type": "address"
            },
            {
              "internalType": "address",
              "name": "collateralToken",
              "type": "address"
            },
            {
              "internalType": "uint8",
              "name": "riskTier",
              "type": "uint8"
            },
            {
              "internalType": "uint256",
              "name": "lltv",
              "type": "uint256"
            },
            {
              "internalType": "address",
              "name": "irm",
              "type": "address"
            }
          ],
          "internalType": "struct MarketParams",
          "name": "marketParams",
          "type": "tuple"
        }
      ],
      "name": "getExpectedTotalSupplyAssets",
      "outputs": [
        {
          "internalType": "uint256",
          "name": "totalSupplyAssets",
          "type": "uint256"
        }
      ],
      "stateMutability": "view",
      "type": "function"
    },
    {
      "inputs": [
        {
          "components": [
            {
              "internalType": "address",
              "name": "loanToken",
              "type": "address"
            },
            {
              "internalType": "address",
              "name": "collateralToken",
              "type": "address"
            },
            {
              "internalType": "uint8",
              "name": "riskTier",
              "type": "uint8"
            },
            {
              "internalType": "uint256",
              "name": "lltv",
              "type": "uint256"
            },
            {
              "internalType": "address",
              "name": "irm",
              "type": "address"
            }
          ],
          "internalType": "struct MarketParams",
          "name": "marketParams",
          "type": "tuple"
        }
      ],
      "name": "getExpectedTotalSupplyShares",
      "outputs": [
        {
          "internalType": "uint256",
          "name": "totalSupplyShares",
          "type": "uint256"
        }
      ],
      "stateMutability": "view",
      "type": "function"
    },
    {
      "inputs": [
        {
          "internalType": "enum RiskTier",
          "name": "riskTier",
          "type": "uint8"
        }
      ],
      "name": "getLltvBounds",
      "outputs": [
        {
          "internalType": "uint256",
          "name": "min",
          "type": "uint256"
        },
        {
          "internalType": "uint256",
          "name": "max",
          "type": "uint256"
        }
      ],
      "stateMutability": "pure",
      "type": "function"
    },
    {
      "inputs": [
        {
          "internalType": "Id",
          "name": "id",
          "type": "bytes32"
        }
      ],
      "name": "getMarketBalances",
      "outputs": [
        {
          "components": [
            {
              "internalType": "uint128",
              "name": "totalSupplyAssets",
              "type": "uint128"
            },
            {
              "internalType": "uint128",
              "name": "totalSupplyShares",
              "type": "uint128"
            },
            {
              "internalType": "uint128",
              "name": "totalBorrowAssets",
              "type": "uint128"
            },
            {
              "internalType": "uint128",
              "name": "totalBorrowShares",
              "type": "uint128"
            },
            {
              "internalType": "uint128",
              "name": "lastUpdate",
              "type": "uint128"
            },
            {
              "internalType": "uint128",
              "name": "fee",
              "type": "uint128"
            },
            {
              "components": [
                {
                  "internalType": "bool",
                  "name": "isAddLiquidityPaused",
                  "type": "bool"
                },
                {
                  "internalType": "bool",
                  "name": "isAddCollateralPaused",
                  "type": "bool"
                },
                {
                  "internalType": "bool",
                  "name": "isBorrowPaused",
                  "type": "bool"
                },
                {
                  "internalType": "bool",
                  "name": "isWithdrawLiquidityPaused",
                  "type": "bool"
                },
                {
                  "internalType": "bool",
                  "name": "isWithdrawCollateralPaused",
                  "type": "bool"
                },
                {
                  "internalType": "bool",
                  "name": "isRepayPaused",
                  "type": "bool"
                },
                {
                  "internalType": "bool",
                  "name": "isLiquidatePaused",
                  "type": "bool"
                }
              ],
              "internalType": "struct PauseStatuses",
              "name": "pauseStatuses",
              "type": "tuple"
            }
          ],
          "internalType": "struct Market",
          "name": "",
          "type": "tuple"
        }
      ],
      "stateMutability": "view",
      "type": "function"
    },
    {
      "inputs": [
        {
          "components": [
            {
              "internalType": "address",
              "name": "loanToken",
              "type": "address"
            },
            {
              "internalType": "address",
              "name": "collateralToken",
              "type": "address"
            },
            {
              "internalType": "uint8",
              "name": "riskTier",
              "type": "uint8"
            }
          ],
          "internalType": "struct MarketCreationParams",
          "name": "marketCreationParams",
          "type": "tuple"
        }
      ],
      "name": "getMarketIdWithMarketCreationParams",
      "outputs": [
        {
          "internalType": "Id",
          "name": "id",
          "type": "bytes32"
        }
      ],
      "stateMutability": "pure",
      "type": "function"
    },
    {
      "inputs": [
        {
          "components": [
            {
              "internalType": "address",
              "name": "loanToken",
              "type": "address"
            },
            {
              "internalType": "address",
              "name": "collateralToken",
              "type": "address"
            },
            {
              "internalType": "uint8",
              "name": "riskTier",
              "type": "uint8"
            },
            {
              "internalType": "uint256",
              "name": "lltv",
              "type": "uint256"
            },
            {
              "internalType": "address",
              "name": "irm",
              "type": "address"
            }
          ],
          "internalType": "struct MarketParams",
          "name": "marketParams",
          "type": "tuple"
        }
      ],
      "name": "getMarketIdWithMarketParams",
      "outputs": [
        {
          "internalType": "Id",
          "name": "id",
          "type": "bytes32"
        }
      ],
      "stateMutability": "pure",
      "type": "function"
    },
    {
      "inputs": [
        {
          "internalType": "Id",
          "name": "id",
          "type": "bytes32"
        }
      ],
      "name": "getMarketParams",
      "outputs": [
        {
          "components": [
            {
              "internalType": "address",
              "name": "loanToken",
              "type": "address"
            },
            {
              "internalType": "address",
              "name": "collateralToken",
              "type": "address"
            },
            {
              "internalType": "uint8",
              "name": "riskTier",
              "type": "uint8"
            },
            {
              "internalType": "uint256",
              "name": "lltv",
              "type": "uint256"
            },
            {
              "internalType": "address",
              "name": "irm",
              "type": "address"
            }
          ],
          "internalType": "struct MarketParams",
          "name": "",
          "type": "tuple"
        }
      ],
      "stateMutability": "view",
      "type": "function"
    },
    {
      "inputs": [],
      "name": "getMarketsCreated",
      "outputs": [
        {
          "internalType": "Id[]",
          "name": "",
          "type": "bytes32[]"
        }
      ],
      "stateMutability": "view",
      "type": "function"
    },
    {
      "inputs": [
        {
          "internalType": "Id",
          "name": "id",
          "type": "bytes32"
        },
        {
          "internalType": "address",
          "name": "account",
          "type": "address"
        }
      ],
      "name": "getPosition",
      "outputs": [
        {
          "internalType": "uint256",
          "name": "supplyShares",
          "type": "uint256"
        },
        {
          "internalType": "uint128",
          "name": "borrowShares",
          "type": "uint128"
        },
        {
          "internalType": "uint128",
          "name": "collateral",
          "type": "uint128"
        }
      ],
      "stateMutability": "view",
      "type": "function"
    },
    {
      "inputs": [
        {
          "internalType": "Id",
          "name": "",
          "type": "bytes32"
        }
      ],
      "name": "idToMarketParams",
      "outputs": [
        {
          "internalType": "address",
          "name": "loanToken",
          "type": "address"
        },
        {
          "internalType": "address",
          "name": "collateralToken",
          "type": "address"
        },
        {
          "internalType": "uint8",
          "name": "riskTier",
          "type": "uint8"
        },
        {
          "internalType": "uint256",
          "name": "lltv",
          "type": "uint256"
        },
        {
          "internalType": "address",
          "name": "irm",
          "type": "address"
        }
      ],
      "stateMutability": "view",
      "type": "function"
    },
    {
      "inputs": [
        {
          "internalType": "uint256",
          "name": "",
          "type": "uint256"
        }
      ],
      "name": "irmAddressProvider",
      "outputs": [
        {
          "internalType": "address",
          "name": "",
          "type": "address"
        }
      ],
      "stateMutability": "view",
      "type": "function"
    },
    {
      "inputs": [
        {
          "internalType": "address",
          "name": "",
          "type": "address"
        },
        {
          "internalType": "address",
          "name": "",
          "type": "address"
        }
      ],
      "name": "isApproved",
      "outputs": [
        {
          "internalType": "bool",
          "name": "",
          "type": "bool"
        }
      ],
      "stateMutability": "view",
      "type": "function"
    },
    {
      "inputs": [
        {
          "components": [
            {
              "internalType": "address",
              "name": "loanToken",
              "type": "address"
            },
            {
              "internalType": "address",
              "name": "collateralToken",
              "type": "address"
            },
            {
              "internalType": "uint8",
              "name": "riskTier",
              "type": "uint8"
            }
          ],
          "internalType": "struct MarketCreationParams",
          "name": "marketCreationParams",
          "type": "tuple"
        },
        {
          "internalType": "address",
          "name": "borrower",
          "type": "address"
        },
        {
          "internalType": "uint256",
          "name": "seizedAssets",
          "type": "uint256"
        },
        {
          "internalType": "uint256",
          "name": "repaidShares",
          "type": "uint256"
        }
      ],
      "name": "liquidate",
      "outputs": [
        {
          "internalType": "uint256",
          "name": "",
          "type": "uint256"
        },
        {
          "internalType": "uint256",
          "name": "",
          "type": "uint256"
        }
      ],
      "stateMutability": "nonpayable",
      "type": "function"
    },
    {
      "inputs": [
        {
          "internalType": "Id",
          "name": "",
          "type": "bytes32"
        }
      ],
      "name": "market",
      "outputs": [
        {
          "internalType": "uint128",
          "name": "totalSupplyAssets",
          "type": "uint128"
        },
        {
          "internalType": "uint128",
          "name": "totalSupplyShares",
          "type": "uint128"
        },
        {
          "internalType": "uint128",
          "name": "totalBorrowAssets",
          "type": "uint128"
        },
        {
          "internalType": "uint128",
          "name": "totalBorrowShares",
          "type": "uint128"
        },
        {
          "internalType": "uint128",
          "name": "lastUpdate",
          "type": "uint128"
        },
        {
          "internalType": "uint128",
          "name": "fee",
          "type": "uint128"
        },
        {
          "components": [
            {
              "internalType": "bool",
              "name": "isAddLiquidityPaused",
              "type": "bool"
            },
            {
              "internalType": "bool",
              "name": "isAddCollateralPaused",
              "type": "bool"
            },
            {
              "internalType": "bool",
              "name": "isBorrowPaused",
              "type": "bool"
            },
            {
              "internalType": "bool",
              "name": "isWithdrawLiquidityPaused",
              "type": "bool"
            },
            {
              "internalType": "bool",
              "name": "isWithdrawCollateralPaused",
              "type": "bool"
            },
            {
              "internalType": "bool",
              "name": "isRepayPaused",
              "type": "bool"
            },
            {
              "internalType": "bool",
              "name": "isLiquidatePaused",
              "type": "bool"
            }
          ],
          "internalType": "struct PauseStatuses",
          "name": "pauseStatuses",
          "type": "tuple"
        }
      ],
      "stateMutability": "view",
      "type": "function"
    },
    {
      "inputs": [],
      "name": "marketGovernor",
      "outputs": [
        {
          "internalType": "address",
          "name": "",
          "type": "address"
        }
      ],
      "stateMutability": "view",
      "type": "function"
    },
    {
      "inputs": [
        {
          "internalType": "bytes[]",
          "name": "data",
          "type": "bytes[]"
        }
      ],
      "name": "multicall",
      "outputs": [
        {
          "internalType": "bytes[]",
          "name": "results",
          "type": "bytes[]"
        }
      ],
      "stateMutability": "payable",
      "type": "function"
    },
    {
      "inputs": [
        {
          "internalType": "address",
          "name": "",
          "type": "address"
        }
      ],
      "name": "nonce",
      "outputs": [
        {
          "internalType": "uint256",
          "name": "",
          "type": "uint256"
        }
      ],
      "stateMutability": "view",
      "type": "function"
    },
    {
      "inputs": [
        {
          "internalType": "Id",
          "name": "",
          "type": "bytes32"
        },
        {
          "internalType": "address",
          "name": "",
          "type": "address"
        }
      ],
      "name": "position",
      "outputs": [
        {
          "internalType": "uint256",
          "name": "supplyShares",
          "type": "uint256"
        },
        {
          "internalType": "uint128",
          "name": "borrowShares",
          "type": "uint128"
        },
        {
          "internalType": "uint128",
          "name": "collateral",
          "type": "uint128"
        }
      ],
      "stateMutability": "view",
      "type": "function"
    },
    {
      "inputs": [],
      "name": "priceOracle",
      "outputs": [
        {
          "internalType": "address",
          "name": "",
          "type": "address"
        }
      ],
      "stateMutability": "view",
      "type": "function"
    },
    {
      "inputs": [],
      "name": "protocolGovernor",
      "outputs": [
        {
          "internalType": "address",
          "name": "",
          "type": "address"
        }
      ],
      "stateMutability": "view",
      "type": "function"
    },
    {
      "inputs": [
        {
          "components": [
            {
              "internalType": "address",
              "name": "loanToken",
              "type": "address"
            },
            {
              "internalType": "address",
              "name": "collateralToken",
              "type": "address"
            },
            {
              "internalType": "uint8",
              "name": "riskTier",
              "type": "uint8"
            }
          ],
          "internalType": "struct MarketCreationParams",
          "name": "marketCreationParams",
          "type": "tuple"
        },
        {
          "internalType": "uint256",
          "name": "assets",
          "type": "uint256"
        },
        {
          "internalType": "uint256",
          "name": "shares",
          "type": "uint256"
        },
        {
          "internalType": "address",
          "name": "onBehalf",
          "type": "address"
        }
      ],
      "name": "repay",
      "outputs": [
        {
          "internalType": "uint256",
          "name": "assetsRepaid",
          "type": "uint256"
        },
        {
          "internalType": "uint256",
          "name": "sharesRepaid",
          "type": "uint256"
        }
      ],
      "stateMutability": "nonpayable",
      "type": "function"
    },
    {
      "inputs": [
        {
          "internalType": "address",
          "name": "approved",
          "type": "address"
        },
        {
          "internalType": "bool",
          "name": "newisApproved",
          "type": "bool"
        }
      ],
      "name": "setApproved",
      "outputs": [],
      "stateMutability": "nonpayable",
      "type": "function"
    },
    {
      "inputs": [
        {
          "components": [
            {
              "internalType": "address",
              "name": "loanToken",
              "type": "address"
            },
            {
              "internalType": "address",
              "name": "collateralToken",
              "type": "address"
            },
            {
              "internalType": "uint8",
              "name": "riskTier",
              "type": "uint8"
            },
            {
              "internalType": "uint256",
              "name": "lltv",
              "type": "uint256"
            },
            {
              "internalType": "address",
              "name": "irm",
              "type": "address"
            }
          ],
          "internalType": "struct MarketParams",
          "name": "marketParams",
          "type": "tuple"
        },
        {
          "internalType": "uint256",
          "name": "newBorrowRate",
          "type": "uint256"
        }
      ],
      "name": "setBorrowRate",
      "outputs": [],
      "stateMutability": "nonpayable",
      "type": "function"
    },
    {
      "inputs": [
        {
          "internalType": "uint256",
          "name": "minBorrowRateThreshold",
          "type": "uint256"
        },
        {
          "internalType": "uint256",
          "name": "midBorrowRateThreshold",
          "type": "uint256"
        }
      ],
      "name": "setBorrowRateThresholds",
      "outputs": [],
      "stateMutability": "nonpayable",
      "type": "function"
    },
    {
      "inputs": [
        {
          "internalType": "uint8",
          "name": "riskTier",
          "type": "uint8"
        },
        {
          "internalType": "uint256",
          "name": "newFee",
          "type": "uint256"
        }
      ],
      "name": "setDefaultMarketFee",
      "outputs": [],
      "stateMutability": "nonpayable",
      "type": "function"
    },
    {
      "inputs": [
        {
          "internalType": "address",
          "name": "newFeeRecipient",
          "type": "address"
        }
      ],
      "name": "setFeeRecipient",
      "outputs": [],
      "stateMutability": "nonpayable",
      "type": "function"
    },
    {
      "inputs": [
        {
          "internalType": "address",
          "name": "irm",
          "type": "address"
        },
        {
          "internalType": "enum InterestRateMode",
          "name": "mode",
          "type": "uint8"
        }
      ],
      "name": "setIrmAddress",
      "outputs": [],
      "stateMutability": "nonpayable",
      "type": "function"
    },
    {
      "inputs": [
        {
          "components": [
            {
              "internalType": "address",
              "name": "loanToken",
              "type": "address"
            },
            {
              "internalType": "address",
              "name": "collateralToken",
              "type": "address"
            },
            {
              "internalType": "uint8",
              "name": "riskTier",
              "type": "uint8"
            },
            {
              "internalType": "uint256",
              "name": "lltv",
              "type": "uint256"
            },
            {
              "internalType": "address",
              "name": "irm",
              "type": "address"
            }
          ],
          "internalType": "struct MarketParams",
          "name": "marketParams",
          "type": "tuple"
        },
        {
          "internalType": "bool",
          "name": "isPaused",
          "type": "bool"
        }
      ],
      "name": "setIsAddCollateralPaused",
      "outputs": [],
      "stateMutability": "nonpayable",
      "type": "function"
    },
    {
      "inputs": [
        {
          "components": [
            {
              "internalType": "address",
              "name": "loanToken",
              "type": "address"
            },
            {
              "internalType": "address",
              "name": "collateralToken",
              "type": "address"
            },
            {
              "internalType": "uint8",
              "name": "riskTier",
              "type": "uint8"
            },
            {
              "internalType": "uint256",
              "name": "lltv",
              "type": "uint256"
            },
            {
              "internalType": "address",
              "name": "irm",
              "type": "address"
            }
          ],
          "internalType": "struct MarketParams",
          "name": "marketParams",
          "type": "tuple"
        },
        {
          "internalType": "bool",
          "name": "isPaused",
          "type": "bool"
        }
      ],
      "name": "setIsAddLiquidityPaused",
      "outputs": [],
      "stateMutability": "nonpayable",
      "type": "function"
    },
    {
      "inputs": [
        {
          "components": [
            {
              "internalType": "address",
              "name": "loanToken",
              "type": "address"
            },
            {
              "internalType": "address",
              "name": "collateralToken",
              "type": "address"
            },
            {
              "internalType": "uint8",
              "name": "riskTier",
              "type": "uint8"
            },
            {
              "internalType": "uint256",
              "name": "lltv",
              "type": "uint256"
            },
            {
              "internalType": "address",
              "name": "irm",
              "type": "address"
            }
          ],
          "internalType": "struct MarketParams",
          "name": "marketParams",
          "type": "tuple"
        },
        {
          "internalType": "bool",
          "name": "isPaused",
          "type": "bool"
        }
      ],
      "name": "setIsBorrowPaused",
      "outputs": [],
      "stateMutability": "nonpayable",
      "type": "function"
    },
    {
      "inputs": [
        {
          "internalType": "bool",
          "name": "isPaused",
          "type": "bool"
        }
      ],
      "name": "setIsClaimRewardsPaused",
      "outputs": [],
      "stateMutability": "nonpayable",
      "type": "function"
    },
    {
      "inputs": [
        {
          "components": [
            {
              "internalType": "address",
              "name": "loanToken",
              "type": "address"
            },
            {
              "internalType": "address",
              "name": "collateralToken",
              "type": "address"
            },
            {
              "internalType": "uint8",
              "name": "riskTier",
              "type": "uint8"
            },
            {
              "internalType": "uint256",
              "name": "lltv",
              "type": "uint256"
            },
            {
              "internalType": "address",
              "name": "irm",
              "type": "address"
            }
          ],
          "internalType": "struct MarketParams",
          "name": "marketParams",
          "type": "tuple"
        },
        {
          "internalType": "bool",
          "name": "isPaused",
          "type": "bool"
        }
      ],
      "name": "setIsLiquidatePaused",
      "outputs": [],
      "stateMutability": "nonpayable",
      "type": "function"
    },
    {
      "inputs": [
        {
          "components": [
            {
              "internalType": "address",
              "name": "loanToken",
              "type": "address"
            },
            {
              "internalType": "address",
              "name": "collateralToken",
              "type": "address"
            },
            {
              "internalType": "uint8",
              "name": "riskTier",
              "type": "uint8"
            },
            {
              "internalType": "uint256",
              "name": "lltv",
              "type": "uint256"
            },
            {
              "internalType": "address",
              "name": "irm",
              "type": "address"
            }
          ],
          "internalType": "struct MarketParams",
          "name": "marketParams",
          "type": "tuple"
        },
        {
          "internalType": "bool",
          "name": "isPaused",
          "type": "bool"
        }
      ],
      "name": "setIsPaused",
      "outputs": [],
      "stateMutability": "nonpayable",
      "type": "function"
    },
    {
      "inputs": [
        {
          "components": [
            {
              "internalType": "address",
              "name": "loanToken",
              "type": "address"
            },
            {
              "internalType": "address",
              "name": "collateralToken",
              "type": "address"
            },
            {
              "internalType": "uint8",
              "name": "riskTier",
              "type": "uint8"
            },
            {
              "internalType": "uint256",
              "name": "lltv",
              "type": "uint256"
            },
            {
              "internalType": "address",
              "name": "irm",
              "type": "address"
            }
          ],
          "internalType": "struct MarketParams",
          "name": "marketParams",
          "type": "tuple"
        },
        {
          "internalType": "bool",
          "name": "isPaused",
          "type": "bool"
        }
      ],
      "name": "setIsRepayPaused",
      "outputs": [],
      "stateMutability": "nonpayable",
      "type": "function"
    },
    {
      "inputs": [
        {
          "components": [
            {
              "internalType": "address",
              "name": "loanToken",
              "type": "address"
            },
            {
              "internalType": "address",
              "name": "collateralToken",
              "type": "address"
            },
            {
              "internalType": "uint8",
              "name": "riskTier",
              "type": "uint8"
            },
            {
              "internalType": "uint256",
              "name": "lltv",
              "type": "uint256"
            },
            {
              "internalType": "address",
              "name": "irm",
              "type": "address"
            }
          ],
          "internalType": "struct MarketParams",
          "name": "marketParams",
          "type": "tuple"
        },
        {
          "internalType": "bool",
          "name": "isPaused",
          "type": "bool"
        }
      ],
      "name": "setIsWithdrawCollateralPaused",
      "outputs": [],
      "stateMutability": "nonpayable",
      "type": "function"
    },
    {
      "inputs": [
        {
          "components": [
            {
              "internalType": "address",
              "name": "loanToken",
              "type": "address"
            },
            {
              "internalType": "address",
              "name": "collateralToken",
              "type": "address"
            },
            {
              "internalType": "uint8",
              "name": "riskTier",
              "type": "uint8"
            },
            {
              "internalType": "uint256",
              "name": "lltv",
              "type": "uint256"
            },
            {
              "internalType": "address",
              "name": "irm",
              "type": "address"
            }
          ],
          "internalType": "struct MarketParams",
          "name": "marketParams",
          "type": "tuple"
        },
        {
          "internalType": "bool",
          "name": "isPaused",
          "type": "bool"
        }
      ],
      "name": "setIsWithdrawLiquidityPaused",
      "outputs": [],
      "stateMutability": "nonpayable",
      "type": "function"
    },
    {
      "inputs": [
        {
          "components": [
            {
              "internalType": "address",
              "name": "loanToken",
              "type": "address"
            },
            {
              "internalType": "address",
              "name": "collateralToken",
              "type": "address"
            },
            {
              "internalType": "uint8",
              "name": "riskTier",
              "type": "uint8"
            },
            {
              "internalType": "uint256",
              "name": "lltv",
              "type": "uint256"
            },
            {
              "internalType": "address",
              "name": "irm",
              "type": "address"
            }
          ],
          "internalType": "struct MarketParams",
          "name": "marketParams",
          "type": "tuple"
        },
        {
          "internalType": "uint256",
          "name": "newFee",
          "type": "uint256"
        }
      ],
      "name": "setMarketFee",
      "outputs": [],
      "stateMutability": "nonpayable",
      "type": "function"
    },
    {
      "inputs": [
        {
          "components": [
            {
              "internalType": "address",
              "name": "loanToken",
              "type": "address"
            },
            {
              "internalType": "address",
              "name": "collateralToken",
              "type": "address"
            },
            {
              "internalType": "uint8",
              "name": "riskTier",
              "type": "uint8"
            },
            {
              "internalType": "uint256",
              "name": "lltv",
              "type": "uint256"
            },
            {
              "internalType": "address",
              "name": "irm",
              "type": "address"
            }
          ],
          "internalType": "struct MarketParams",
          "name": "marketParams",
          "type": "tuple"
        },
        {
          "internalType": "enum InterestRateMode",
          "name": "mode",
          "type": "uint8"
        }
      ],
      "name": "setMarketIrm",
      "outputs": [],
      "stateMutability": "nonpayable",
      "type": "function"
    },
    {
      "inputs": [
        {
          "components": [
            {
              "internalType": "address",
              "name": "loanToken",
              "type": "address"
            },
            {
              "internalType": "address",
              "name": "collateralToken",
              "type": "address"
            },
            {
              "internalType": "uint8",
              "name": "riskTier",
              "type": "uint8"
            },
            {
              "internalType": "uint256",
              "name": "lltv",
              "type": "uint256"
            },
            {
              "internalType": "address",
              "name": "irm",
              "type": "address"
            }
          ],
          "internalType": "struct MarketParams",
          "name": "marketParams",
          "type": "tuple"
        },
        {
          "internalType": "uint256",
          "name": "lltv",
          "type": "uint256"
        }
      ],
      "name": "setMarketLltv",
      "outputs": [],
      "stateMutability": "nonpayable",
      "type": "function"
    },
    {
      "inputs": [
        {
          "internalType": "address",
          "name": "priceOracle_",
          "type": "address"
        }
      ],
      "name": "setPriceOracle",
      "outputs": [],
      "stateMutability": "nonpayable",
      "type": "function"
    },
    {
      "inputs": [
        {
          "internalType": "enum Governors",
          "name": "govToSet",
          "type": "uint8"
        },
        {
          "internalType": "address",
          "name": "newGovernor",
          "type": "address"
        }
      ],
      "name": "transferGovernance",
      "outputs": [],
      "stateMutability": "nonpayable",
      "type": "function"
    },
    {
      "inputs": [
        {
          "components": [
            {
              "internalType": "address",
              "name": "loanToken",
              "type": "address"
            },
            {
              "internalType": "address",
              "name": "collateralToken",
              "type": "address"
            },
            {
              "internalType": "uint8",
              "name": "riskTier",
              "type": "uint8"
            }
          ],
          "internalType": "struct MarketCreationParams",
          "name": "marketCreationParams",
          "type": "tuple"
        },
        {
          "internalType": "uint256",
          "name": "assets",
          "type": "uint256"
        },
        {
          "internalType": "address",
          "name": "onBehalf",
          "type": "address"
        },
        {
          "internalType": "address",
          "name": "receiver",
          "type": "address"
        }
      ],
      "name": "withdrawCollateral",
      "outputs": [],
      "stateMutability": "nonpayable",
      "type": "function"
    },
    {
      "inputs": [
        {
          "components": [
            {
              "internalType": "address",
              "name": "loanToken",
              "type": "address"
            },
            {
              "internalType": "address",
              "name": "collateralToken",
              "type": "address"
            },
            {
              "internalType": "uint8",
              "name": "riskTier",
              "type": "uint8"
            }
          ],
          "internalType": "struct MarketCreationParams",
          "name": "marketCreationParams",
          "type": "tuple"
        },
        {
          "internalType": "uint256",
          "name": "assets",
          "type": "uint256"
        },
        {
          "internalType": "uint256",
          "name": "shares",
          "type": "uint256"
        },
        {
          "internalType": "address",
          "name": "onBehalf",
          "type": "address"
        },
        {
          "internalType": "address",
          "name": "receiver",
          "type": "address"
        }
      ],
      "name": "withdrawLiquidity",
      "outputs": [
        {
          "internalType": "uint256",
          "name": "assetsWithdrawn",
          "type": "uint256"
        },
        {
          "internalType": "uint256",
          "name": "sharesWithdrawn",
          "type": "uint256"
        }
      ],
      "stateMutability": "nonpayable",
      "type": "function"
    }
  ],
  "bytecode": "0x60a06040523480156200001157600080fd5b5060405162005fa538038062005fa5833981016040819052620000349162000211565b84846001600160a01b03821615806200005457506001600160a01b038116155b1562000073576040516301b2f36d60e11b815260040160405180910390fd5b600b80546001600160a01b03199081166001600160a01b0393841617909155600a80549091169282169290921790915585161580620000b957506001600160a01b038416155b80620000cc57506001600160a01b038316155b80620000df57506001600160a01b038216155b80620000f257506001600160a01b038116155b1562000111576040516301b2f36d60e11b815260040160405180910390fd5b600180546001600160a01b03199081166001600160a01b03958616178255600760209081527f6d5257204ebe7d88fd91ae87941cb2dd9d8062b64ae5a2bd2d28ec40b9fbf6df80548316958716959095179094556000919091527fb39221ace053465ec3453ce2b36430bd138b997ecea25c1043da0c366812b828805492909416911617909155604080517f47e79534a245952e8b16893a336b85a3d9ea9fa8c573f3d803afb92a794692188184015246818301523060608083019190915282518083039091018152608091820190925281519190920120905250620002819050565b80516001600160a01b03811681146200020c57600080fd5b919050565b600080600080600060a086880312156200022a57600080fd5b6200023586620001f4565b94506200024560208701620001f4565b93506200025560408701620001f4565b92506200026560608701620001f4565b91506200027560808701620001f4565b90509295509295909350565b608051615d086200029d600039600061049c0152615d086000f3fe6080604052600436106102965760003560e01c806397662c281161016157806397662c281461091b5780639cf59af31461093b5780639d9e465c1461095b5780639f1d41981461097b578063a1d6000c1461099b578063a389783e146109bd578063a49fbad414610a08578063ac9650d814610a28578063b41f5a4c14610a48578063b98b660414610a68578063d6080d2014610a88578063d7afe21014610aa8578063d9d2fb0f14610ac8578063dc0fa5ff14610ae8578063dd407d6414610b15578063e35ac7c714610b35578063e3c425ae14610b55578063e5af9aa414610b75578063e74b981b14610b90578063ebbd372814610bb0578063eda5102c14610bd0578063f05faa6714610c06578063f159642814610c26578063f2dbd07014610c46578063f31b5bc214610c66578063f52117d414610c86578063f58f36e714610ca6578063fcf80b2d14610cc6578063fd1e77f614610ce657600080fd5b80630491e5bf1461029b5780631bb07c68146102d55780631c6a47ec146102f75780632468c6d1146103245780632511434f146103445780632630c12f1461036457806326627ed8146103845780632c3c9157146103b25780632c9987d41461044a578063336fb2591461046a5780633644e5151461048a57806346904840146104be57806346fc0b16146104de5780634acc79ed146104fe5780634d0ee9f31461052b578063530e784f146105e05780635c388821146106005780635c60e39a146106855780635e674e561461077b578063651ec22a1461079b578063694e6042146107bb5780636958354d146107db57806370ae92d2146107fb57806374b308561461082857806382fb0c481461084857806384cfb68014610888578063908c56da146108a857806393c52062146108c8575b600080fd5b3480156102a757600080fd5b506102bb6102b6366004615087565b610d06565b604080519283526020830191909152015b60405180910390f35b3480156102e157600080fd5b506102f56102f036600461517e565b610dc7565b005b34801561030357600080fd5b50600b54610317906001600160a01b031681565b6040516102cc91906151a9565b34801561033057600080fd5b506102f561033f3660046151cb565b610ecd565b34801561035057600080fd5b506102f561035f3660046151e8565b610f50565b34801561037057600080fd5b50600154610317906001600160a01b031681565b34801561039057600080fd5b506103a461039f366004615220565b611041565b6040519081526020016102cc565b3480156103be57600080fd5b5061040f6103cd36600461523c565b60046020526000908152604090208054600182015460028301546003909301546001600160a01b039283169383831693600160a01b90930460ff169290911685565b604080516001600160a01b039687168152948616602086015260ff90931692840192909252606083015291909116608082015260a0016102cc565b34801561045657600080fd5b506102bb610465366004615255565b611055565b34801561047657600080fd5b506102bb610485366004615276565b611112565b34801561049657600080fd5b506103a47f000000000000000000000000000000000000000000000000000000000000000081565b3480156104ca57600080fd5b50600054610317906001600160a01b031681565b3480156104ea57600080fd5b506102f56104f93660046152ce565b6111cf565b34801561050a57600080fd5b506103a461051936600461523c565b60036020526000908152604090205481565b34801561053757600080fd5b506105d361054636600461523c565b6040805160a08101825260008082526020820181905291810182905260608101829052608081019190915250600090815260046020908152604091829020825160a08101845281546001600160a01b039081168252600183015480821694830194909452600160a01b90930460ff1693810193909352600281015460608401526003015416608082015290565b6040516102cc919061534f565b3480156105ec57600080fd5b506102f56105fb36600461535d565b611280565b34801561060c57600080fd5b5061066061061b366004615378565b60009182526006602090815260408084206001600160a01b039390931684529190529020805460019091015490916001600160801b0380831692600160801b90041690565b604080519384526001600160801b0392831660208501529116908201526060016102cc565b34801561069157600080fd5b506107686106a036600461523c565b600560209081526000918252604091829020805460018201546002830154855160e08101875260039094015460ff8082161515865261010082048116151596860196909652620100008104861615159685019690965263010000008604851615156060850152600160201b8604851615156080850152600160281b86048516151560a0850152600160301b909504909316151560c08301526001600160801b0380821694600160801b9283900482169480831694908490048316938284169392049091169087565b6040516102cc97969594939291906153f6565b34801561078757600080fd5b506102f56107963660046151e8565b61131c565b3480156107a757600080fd5b506102f56107b6366004615448565b6113f3565b3480156107c757600080fd5b506103a46107d6366004615472565b6114bf565b3480156107e757600080fd5b506102f56107f636600461517e565b61152b565b34801561080757600080fd5b506103a461081636600461535d565b60096020526000908152604090205481565b34801561083457600080fd5b506102f561084336600461549d565b6115ce565b34801561085457600080fd5b50610868610863366004615220565b611683565b6040805194855260208501939093529183015260608201526080016102cc565b34801561089457600080fd5b506102f56108a33660046154b9565b611989565b3480156108b457600080fd5b506102f56108c336600461517e565b6119f7565b3480156108d457600080fd5b506106606108e3366004615378565b6006602090815260009283526040808420909152908252902080546001909101546001600160801b0380821691600160801b90041683565b34801561092757600080fd5b506102f56109363660046151e8565b611b10565b34801561094757600080fd5b506102f561095636600461549d565b611bf2565b34801561096757600080fd5b506102f56109763660046154e5565b6121e1565b34801561098757600080fd5b506102bb610996366004615087565b61226f565b3480156109a757600080fd5b506109b061231a565b6040516102cc9190615501565b3480156109c957600080fd5b506109f86109d8366004615545565b600860209081526000928352604080842090915290825290205460ff1681565b60405190151581526020016102cc565b348015610a1457600080fd5b506102f5610a2336600461557c565b612372565b610a3b610a363660046155a8565b612457565b6040516102cc919061566c565b348015610a5457600080fd5b506102f5610a633660046156d0565b6125ac565b348015610a7457600080fd5b506102bb610a833660046156ee565b6126bf565b348015610a9457600080fd5b506103a4610aa3366004615731565b6128d1565b348015610ab457600080fd5b506102f5610ac336600461579c565b612919565b348015610ad457600080fd5b506102f5610ae33660046151e8565b6129e9565b348015610af457600080fd5b50610b08610b0336600461523c565b612ac7565b6040516102cc9190615825565b348015610b2157600080fd5b506102f5610b303660046151e8565b612c2f565b348015610b4157600080fd5b506103a4610b50366004615472565b612d0f565b348015610b6157600080fd5b506103a4610b70366004615220565b612d5e565b348015610b8157600080fd5b506103a4610aa3366004615220565b348015610b9c57600080fd5b506102f5610bab36600461535d565b612d73565b348015610bbc57600080fd5b506102bb610bcb366004615276565b612de6565b348015610bdc57600080fd5b50610317610beb36600461523c565b6007602052600090815260409020546001600160a01b031681565b348015610c1257600080fd5b506102f5610c213660046151e8565b612e92565b348015610c3257600080fd5b506102f5610c41366004615834565b612f74565b348015610c5257600080fd5b506103a4610c61366004615545565b613042565b348015610c7257600080fd5b506103a4610c81366004615220565b6130bd565b348015610c9257600080fd5b506102f5610ca13660046151e8565b6130d2565b348015610cb257600080fd5b506102f5610cc1366004615856565b613202565b348015610cd257600080fd5b506102f5610ce13660046151e8565b6132b0565b348015610cf257600080fd5b50600a54610317906001600160a01b031681565b6000806001600160a01b038316610d30576040516301b2f36d60e11b815260040160405180910390fd5b6000610d4b610d4436899003890189615731565b6060902090565b600081815260046020908152604091829020825160a08101845281546001600160a01b039081168252600183015480821694830194909452600160a01b90930460ff16938101939093526002810154606084015260030154166080820152909150610db881888888613392565b90999098509650505050505050565b600a546001600160a01b03163314610df257604051636502a37160e01b815260040160405180910390fd5b6000610dfd836128d1565b60008181526005602052604081206002810154929350916001600160801b03169003610e3c5760405163e5add0eb60e01b815260040160405180910390fd5b6703782dace9d90000831115610e65576040516321ad6b2b60e11b815260040160405180910390fd5b610e6f848361346f565b6002810180546001600160801b03808616600160801b02911617905560405182907f9252c2776ddac055f801fc774e3ea2d73720b3bcacfc86f7d8afc8885edea09490610ebf9086815260200190565b60405180910390a250505050565b600a546001600160a01b03163314610ef857604051636502a37160e01b815260040160405180910390fd5b60018054821515600160a01b0260ff60a01b199091161790556040517f8783c4cdd1731cde3a3c95b6bc5252fc5d4f162cc4a1bc3f0123f06b1186463e90610f4590831515815260200190565b60405180910390a150565b600a546001600160a01b03163314610f7b57604051636502a37160e01b815260040160405180910390fd5b816000610f87826128d1565b6000818152600560205260408120600201549192506001600160801b039091169003610fc65760405163e5add0eb60e01b815260040160405180910390fd5b6000610fd1856128d1565b600081815260056020526040908190206003018054871515600160301b0260ff60301b199091161790555190915081907f26aadb5680b38e7f667dc4dcb2689eb43ce139a754e11679455be58bf304dd889061103290871515815260200190565b60405180910390a25050505050565b600061104c82611683565b50949350505050565b60008082600281111561106a5761106a615893565b60ff1660000361108d5750662386f26fc1000090506704a01e9587a34000915091565b82600281111561109f5761109f615893565b60ff166001036110c357506704a07988981d800090506709403d2b0f468000915091565b8260028111156110d5576110d5615893565b60ff166002036110f95750670940981e1fc0c0009050670d2f13f7789f0000915091565b60405163371d48c560e11b815260040160405180910390fd5b6000808361111f816137c5565b61113c5760405163264a12f960e01b815260040160405180910390fd5b6000611150610d44368b90038b018b615731565b600081815260046020908152604091829020825160a08101845281546001600160a01b039081168252600183015480821694830194909452600160a01b90930460ff169381019390935260028101546060840152600301541660808201529091506111be818a8a8a8a613803565b909b909a5098505050505050505050565b816111d9816137c5565b6111f65760405163264a12f960e01b815260040160405180910390fd5b600061120a610d4436889003880188615731565b600081815260046020908152604091829020825160a08101845281546001600160a01b039081168252600183015480821694830194909452600160a01b90930460ff16938101939093526002810154606084015260030154166080820152909150611277818787876138d1565b50505050505050565b600a546001600160a01b031633146112ab57604051636502a37160e01b815260040160405180910390fd5b6001600160a01b0381166112d2576040516301b2f36d60e11b815260040160405180910390fd5b600180546001600160a01b0319166001600160a01b0383169081179091556040517fba1e12dba92bd462e9e45efc4685ba22658ce0ca6bd653a06e475867696debca90600090a250565b600a546001600160a01b0316331461134757604051636502a37160e01b815260040160405180910390fd5b816000611353826128d1565b6000818152600560205260408120600201549192506001600160801b0390911690036113925760405163e5add0eb60e01b815260040160405180910390fd5b600061139d856128d1565b600081815260056020908152604091829020600301805460ff1916881515908117909155915191825291925082917f7c5c0087c35f3e77cf4bdce2681d1dcfcb87ba0a643cbfddee6c431ea57f45bb9101611032565b600a546001600160a01b0316331461141e57604051636502a37160e01b815260040160405180910390fd5b60028260ff1611156114435760405163371d48c560e11b815260040160405180910390fd5b6703782dace9d9000081111561146c576040516321ad6b2b60e11b815260040160405180910390fd5b60ff821660008181526003602052604090819020839055517f4bf4f32393faa289f9a1d97b52ee7bfc040441fbbd563a370c9f091978ccdcaf906114b39084815260200190565b60405180910390a25050565b6000806114cb846128d1565b60008181526006602090815260408083206001600160a01b03881684529091528120600101549192506001600160801b03909116908061150a87611683565b909450925061151e91508490508383613a3c565b9450505050505b92915050565b600b546001600160a01b0316331461155657604051633d4b038b60e21b815260040160405180910390fd5b600080526007602052600080516020615cb383398151915254604051636958354d60e01b81526001600160a01b03909116908190636958354d906115a090869086906004016158a9565b600060405180830381600087803b1580156115ba57600080fd5b505af1158015611277573d6000803e3d6000fd5b60006115e2610d4436849003840184615731565b6000818152600460209081526040808320815160a08101835281546001600160a01b039081168252600183015480821683870152600160a01b900460ff1682850152600280840154606084015260039093015416608082015285855260059093529083200154929350916001600160801b031690036116745760405163e5add0eb60e01b815260040160405180910390fd5b61167e818361346f565b505050565b6000806000806000611694866128d1565b6000818152600560209081526040808320815160e0808201845282546001600160801b038082168452600160801b9182900481168488015260018501548082168588015282900481166060808601919091526002860154808316608080880191825294909104831660a0808801919091528851958601895260039097015460ff808216151587526101008204811615159a87019a909a526201000081048a16151598860198909852630100000088048916151591850191909152600160201b87048816151592840192909252600160281b86048716151594830194909452600160301b909404909416151560c085810191909152810193909352905193945090926117a09116426158da565b905080158015906117bd575060408201516001600160801b031615155b80156117d5575060808801516001600160a01b031615155b15611956576080880151604051630e15504b60e41b81526000916001600160a01b03169063e15504b09061180f908c9087906004016158ed565b602060405180830381865afa15801561182c573d6000803e3d6000fd5b505050506040513d601f19601f820116820180604052508101906118509190615909565b905060006118756118618385613a69565b60408601516001600160801b031690613ad4565b905061188081613ae9565b846040018181516118919190615922565b6001600160801b03169052506118a681613ae9565b845185906118b5908390615922565b6001600160801b0390811690915260a0860151161590506119535760006118f28560a001516001600160801b031683613ad490919063ffffffff16565b905060006119288287600001516001600160801b031661191291906158da565b60208801518491906001600160801b0316613b17565b905061193381613ae9565b866020018181516119449190615922565b6001600160801b031690525050505b50505b508051602082015160408301516060909301516001600160801b039283169a918316995092821697509116945092505050565b3360008181526008602090815260408083206001600160a01b03871680855290835292819020805460ff1916861515908117909155905190815291929182917f946da2e420f5d525b516e2dd9631143fb9e00d6d87484f843e3ddb12c08b8b0d910160405180910390a45050565b600b546001600160a01b03163314611a2257604051633d4b038b60e21b815260040160405180910390fd5b6000611a2d836128d1565b60008181526004602052604081206001810154929350918190611a6590600160a01b900460ff16600281111561046557610465615893565b915091508160001480611a7f5750670de0b6b3a764000082115b80611a88575080155b80611a9a5750670de0b6b3a764000081115b80611aa457508185105b80611aae57508085115b15611acc57604051637e4f6ec360e01b815260040160405180910390fd5b6002830185905560405185815284907f2224c3c58959efc7c499f4577b0c3ea1d8ead6f052d2dda2f362eb00336b41569060200160405180910390a2505050505050565b600a546001600160a01b03163314611b3b57604051636502a37160e01b815260040160405180910390fd5b816000611b47826128d1565b6000818152600560205260408120600201549192506001600160801b039091169003611b865760405163e5add0eb60e01b815260040160405180910390fd5b6000611b91856128d1565b600081815260056020526040908190206003018054871515600160281b0260ff60281b199091161790555190915081907f3deb82a193d9e5041dade662c614320a280990ecee78b08c98159a51f45bbacd9061103290871515815260200190565b6000611c06610d4436849003840184615731565b6000818152600460209081526040808320600590925290912060020154919250906001600160801b031615611c4e576040516369ae0ca760e11b815260040160405180910390fd5b6000805260076020908152600080516020615cb3833981519152546003830180546001600160a01b0319166001600160a01b039283161790556001541690632b00490d90611ca2906040870190870161535d565b611caf602087018761535d565b6040518363ffffffff1660e01b8152600401611ccc929190615942565b602060405180830381865afa158015611ce9573d6000803e3d6000fd5b505050506040513d601f19601f82011682018060405250810190611d0d9190615909565b600003611d2d576040516305d6019760e01b815260040160405180910390fd5b6000611d56611d42606086016040870161595c565b60ff16600281111561046557610465615893565b600284018190559150600390506000611d75606087016040880161595c565b60ff16815260200190815260200160002054600003611da757604051632bb2352f60e11b815260040160405180910390fd5b611db7604085016020860161535d565b6001830180546001600160a01b0319166001600160a01b0392909216919091179055611de6602085018561535d565b82546001600160a01b0319166001600160a01b0391909116178255611e11606085016040860161595c565b60018301805460ff60a01b1916600160a01b60ff939093169290920291909117905560008381526005602052604080822060020180546001600160801b031916426001600160801b031617905560039190611e72906060880190880161595c565b60ff16815260208082019290925260409081016000908120548682526005845282822060020180546001600160801b03928316600160801b0292169190911790558080526007909252600080516020615cb3833981519152546001600160a01b03169190611ee6906060880190880161595c565b60ff1603611fbe57806001600160a01b0316636958354d846002846001600160a01b031663d29451296040518163ffffffff1660e01b81526004016020604051808303816000875af1158015611f40573d6000803e3d6000fd5b505050506040513d601f19601f82011682018060405250810190611f649190615909565b611f6e9190615977565b6040518363ffffffff1660e01b8152600401611f8b9291906159d9565b600060405180830381600087803b158015611fa557600080fd5b505af1158015611fb9573d6000803e3d6000fd5b505050505b6001611fd0606087016040880161595c565b60ff160361209c57806001600160a01b0316636958354d84836001600160a01b031663d29451296040518163ffffffff1660e01b81526004016020604051808303816000875af1158015612028573d6000803e3d6000fd5b505050506040513d601f19601f8201168201806040525081019061204c9190615909565b6040518363ffffffff1660e01b81526004016120699291906159d9565b600060405180830381600087803b15801561208357600080fd5b505af1158015612097573d6000803e3d6000fd5b505050505b60026120ae606087016040880161595c565b60ff160361217a57806001600160a01b0316636958354d84836001600160a01b0316632fcc2f0e6040518163ffffffff1660e01b81526004016020604051808303816000875af1158015612106573d6000803e3d6000fd5b505050506040513d601f19601f8201168201806040525081019061212a9190615909565b6040518363ffffffff1660e01b81526004016121479291906159d9565b600060405180830381600087803b15801561216157600080fd5b505af1158015612175573d6000803e3d6000fd5b505050505b600280546001810182556000919091527f405787fa12a823e0f2b7631cc41b3ba8828b3321ca811111fa75cd3aa3bb5ace0184905560405184907f60d8714268371dee40210acb3f7a911fec0fe310cac7efdd6049c197b3804482906110329086906159e7565b8060000361220257604051630b21e32f60e41b815260040160405180910390fd5b6040518181526001600160a01b0383169033907f7b584bac796527e42ef91994d78b719fb7b069d50bdddcfa7b7438c56ff527c19060200160405180910390a36122566001600160a01b0383163383613b3c565b61226b6001600160a01b038316333084613b94565b5050565b6000806001600160a01b038316612299576040516301b2f36d60e11b815260040160405180910390fd5b60006122ad610d4436899003890189615731565b600081815260046020908152604091829020825160a08101845281546001600160a01b039081168252600183015480821694830194909452600160a01b90930460ff16938101939093526002810154606084015260030154166080820152909150610db881888888613bd3565b6060600280548060200260200160405190810160405280929190818152602001828054801561236857602002820191906000526020600020905b815481526020019060010190808311612354575b5050505050905090565b600a546001600160a01b0316331461239d57604051636502a37160e01b815260040160405180910390fd5b6001600160a01b0382166123c4576040516301b2f36d60e11b815260040160405180910390fd5b81600760008360018111156123db576123db615893565b815260200190815260200160002060006101000a8154816001600160a01b0302191690836001600160a01b0316021790555080600181111561241f5761241f615893565b6040516001600160a01b038416907f59ad4d405e5d684eb63ef5c2daaf678a6373f1f05198c34acb4e761d31a5db1890600090a35050565b6060816001600160401b03811115612471576124716150ce565b6040519080825280602002602001820160405280156124a457816020015b606081526020019060019003908161248f5790505b50905060005b828110156125a557600080308686858181106124c8576124c86159f5565b90506020028101906124da9190615a0b565b6040516124e8929190615a51565b600060405180830381855af49150503d8060008114612523576040519150601f19603f3d011682016040523d82523d6000602084013e612528565b606091505b50915091508161257d5760448151101561254157600080fd5b6004810190508080602001905181019061255b9190615a61565b60405162461bcd60e51b81526004016125749190615b0d565b60405180910390fd5b80848481518110612590576125906159f5565b602090810291909101015250506001016124aa565b5092915050565b600a546001600160a01b031633146125d757604051636502a37160e01b815260040160405180910390fd5b60008260018111156125eb576125eb615893565b0361264b57600a546040516001600160a01b038084169216907f94cccd352f1345e2d709b2b7bde4affb4374c3927c5edb4f4e67ac458432e6f190600090a3600a80546001600160a01b0383166001600160a01b03199091161790555050565b600182600181111561265f5761265f615893565b0361226b57600b546040516001600160a01b038084169216907f70a937dba4415c70697088d4c45fc408e5d56d09aa7b526252fd295e3f123fa790600090a3600b80546001600160a01b0383166001600160a01b03199091161790555050565b600080806126d5610d4436899003890189615731565b6000818152600460209081526040808320815160a08101835281546001600160a01b039081168252600183015480821683870152600160a01b900460ff1682850152600280840154606084015260039093015416608082015285855260059093529083200154929350916001600160801b031690036127675760405163e5add0eb60e01b815260040160405180910390fd5b600082815260056020526040902060030154600160301b900460ff16156127a157604051633e99e7a360e01b815260040160405180910390fd5b84158615186127c3576040516374b94ce160e01b815260040160405180910390fd5b6127cd818361346f565b6127da8183898989613ca4565b600084815260056020526040812060010154929850909650906128129087906001600160801b0380821691600160801b900416613a3c565b90506128218389898985613e3d565b60008061282e858b613fce565b60408051868152602081018c90529081018c9052606081018290526080810183905291935091506001600160a01b038b1690339087907fc9e07ffc2cd38708183bfddcec5ef0b75e8f242af160d374fee0917ecf1ea4499060a00160405180910390a460208401516128aa906001600160a01b0316338b613b3c565b83516128c1906001600160a01b0316333086613b94565b5096999098509650505050505050565b6000611525604051806060016040528084600001516001600160a01b0316815260200184602001516001600160a01b03168152602001846040015160ff168152506060902090565b600b546001600160a01b0316331461294457604051633d4b038b60e21b815260040160405180910390fd5b600061294f836128d1565b600081815260046020526040812091925060079084600181111561297557612975615893565b81526020810191909152604001600020546003820180546001600160a01b0319166001600160a01b03909216919091179055817f9844dc004a02e7b2a352d72a72db5ea07c75a9f88e733f8117faee1b69e2573f8460018111156129db576129db615893565b604051908152602001610ebf565b600a546001600160a01b03163314612a1457604051636502a37160e01b815260040160405180910390fd5b816000612a20826128d1565b6000818152600560205260408120600201549192506001600160801b039091169003612a5f5760405163e5add0eb60e01b815260040160405180910390fd5b6000612a6a856128d1565b6000818152600560205260409081902060030180548715156101000261ff00199091161790555190915081907f49dde8a5046ce2e5cdc896877c1c7ae6e3383c18e3c8fbca96384efec92ef8d09061103290871515815260200190565b612b386040805160e08082018352600080835260208084018290528385018290526060808501839052608080860184905260a080870185905287519586018852848652928501849052958401839052830182905293820181905292810183905260c081810193909352909182015290565b50600090815260056020908152604091829020825160e0808201855282546001600160801b038082168452600160801b918290048116848701526001850154808216858901528290048116606080860191909152600286015480831660808088019190915293900490911660a0808601919091528751938401885260039095015460ff80821615158552610100820481161515978501979097526201000081048716151597840197909752630100000087048616151590830152600160201b86048516151590820152600160281b85048416151592810192909252600160301b909304909116151560c08281019190915282015290565b600a546001600160a01b03163314612c5a57604051636502a37160e01b815260040160405180910390fd5b816000612c66826128d1565b6000818152600560205260408120600201549192506001600160801b039091169003612ca55760405163e5add0eb60e01b815260040160405180910390fd5b6000612cb0856128d1565b600081815260056020526040908190206003018054871515620100000262ff0000199091161790555190915081907f5a476789f1a249cf5648c1a6130c344a4c32decba3161bcc49263ad92b2da1369061103290871515815260200190565b600080612d1b846128d1565b60008181526006602090815260408083206001600160a01b038816845290915281205491925080612d4b87611683565b50919350915061151e90508383836141b2565b6000612d6982611683565b5090949350505050565b600a546001600160a01b03163314612d9e57604051636502a37160e01b815260040160405180910390fd5b600080546001600160a01b0319166001600160a01b038316908117825560405190917f69b6c9c121c973e2d33a1fc76c87b97ba518a6d00d21f2c9d116990e738b701d91a250565b60008083612df3816137c5565b612e105760405163264a12f960e01b815260040160405180910390fd5b6000612e24610d44368b90038b018b615731565b600081815260046020908152604091829020825160a08101845281546001600160a01b039081168252600183015480821694830194909452600160a01b90930460ff169381019390935260028101546060840152600301541660808201529091506111be818a8a8a8a6141cf565b600a546001600160a01b03163314612ebd57604051636502a37160e01b815260040160405180910390fd5b816000612ec9826128d1565b6000818152600560205260408120600201549192506001600160801b039091169003612f085760405163e5add0eb60e01b815260040160405180910390fd5b6000612f13856128d1565b60008181526005602052604090819020600301805487151563010000000263ff000000199091161790555190915081907f7094f8509a8fb92b1e76080dce304f17b5da18e3bbeeced9447ddebca92986519061103290871515815260200190565b600a546001600160a01b03163314612f9f57604051636502a37160e01b815260040160405180910390fd5b600080526007602052600080516020615cb383398151915254604051637eba60db60e11b8152600481018490526001600160a01b0390911690819063fd74c1b690602401600060405180830381600087803b158015612ffd57600080fd5b505af1158015613011573d6000803e3d6000fd5b5050604051636aebf4ff60e11b8152600481018590526001600160a01b038416925063d5d7e9fe91506024016115a0565b600154604051632b00490d60e01b81526000916001600160a01b031690632b00490d906130759086908690600401615942565b602060405180830381865afa158015613092573d6000803e3d6000fd5b505050506040513d601f19601f820116820180604052508101906130b69190615909565b9392505050565b60006130c882611683565b5091949350505050565b600a546001600160a01b031633146130fd57604051636502a37160e01b815260040160405180910390fd5b816000613109826128d1565b6000818152600560205260408120600201549192506001600160801b0390911690036131485760405163e5add0eb60e01b815260040160405180910390fd5b6000613153856128d1565b6000818152600560205260409020600301805462ff00ff60201b1916600160301b87151590810260ff60201b191691909117600160201b82021765ff00ff00000019166301000000820260ff60281b191617600160281b82021762ffff00191662010000820261ff0019161761010082021760ff19161790559050807fb6c2650b24f002aefca806e72a636fb94537db78fd834e7c5ae15fed0e1c70c485604051611032911515815260200190565b6001600160a01b038116613229576040516301b2f36d60e11b815260040160405180910390fd5b600061323d610d4436869003860186615731565b600081815260046020908152604091829020825160a08101845281546001600160a01b039081168252600183015480821694830194909452600160a01b90930460ff169381019390935260028101546060840152600301541660808201529091506132a981858561429c565b5050505050565b600a546001600160a01b031633146132db57604051636502a37160e01b815260040160405180910390fd5b8160006132e7826128d1565b6000818152600560205260408120600201549192506001600160801b0390911690036133265760405163e5add0eb60e01b815260040160405180910390fd5b6000613331856128d1565b600081815260056020526040908190206003018054871515600160201b0260ff60201b199091161790555190915081907fd2f552f7a47bccf6de9a7482379d25057fd9a469b5a66041db98719bc9278a759061103290871515815260200190565b6000808560006133a1826128d1565b6000818152600560205260408120600201549192506001600160801b0390911690036133e05760405163e5add0eb60e01b815260040160405180910390fd5b8760006133ec826128d1565b60008181526005602052604090206003015490915060ff16156134225760405163dbd3f4cf60e01b815260040160405180910390fd5b600061342d8b6128d1565b905061343a8a8a8a6143d1565b6000613449828d8d8d8d61441a565b905061345c828d60000151838d8d614585565b909d909c509a5050505050505050505050565b600081815260056020526040812060020154613494906001600160801b0316426158da565b9050806000036134a357505050565b60808301516001600160a01b03161561379757608083015160008381526005602052604080822090516344e8a38360e01b815291926001600160a01b0316916344e8a383916134f791889190600401615b20565b6020604051808303816000875af1158015613516573d6000803e3d6000fd5b505050506040513d601f19601f8201168201806040525081019061353a9190615909565b9050600061356c61354b8385613a69565b6000868152600560205260409020600101546001600160801b031690613ad4565b905061357781613ae9565b600085815260056020526040812060010180549091906135a19084906001600160801b0316615922565b92506101000a8154816001600160801b0302191690836001600160801b031602179055506135ce81613ae9565b600085815260056020526040812080549091906135f59084906001600160801b0316615922565b82546101009290920a6001600160801b03818102199093169183160217909155600086815260056020526040812060020154909250600160801b9004161561375057600085815260056020526040812060020154613664908490600160801b90046001600160801b0316613ad4565b6000878152600560205260409020549091506136b59061368e9083906001600160801b03166158da565b600088815260056020526040902054839190600160801b90046001600160801b0316613b17565b600087815260066020908152604080832083546001600160a01b031684529091528120805492945084929091906136ed908490615bf5565b909155506136fc905082613ae9565b6000878152600560205260409020805460109061372a908490600160801b90046001600160801b0316615922565b92506101000a8154816001600160801b0302191690836001600160801b03160217905550505b604080518481526020810184905290810182905285907f7403fb2459e99afafdd768ecf0880d7982ec4b1e60e335065dc6e9dcd148945e9060600160405180910390a25050505b50600090815260056020526040902060020180546001600160801b031916426001600160801b031617905550565b6000336001600160a01b03831614806115255750506001600160a01b0316600090815260086020908152604080832033845290915290205460ff1690565b600080866000613812826128d1565b6000818152600560205260408120600201549192506001600160801b0390911690036138515760405163e5add0eb60e01b815260040160405180910390fd5b88600061385d826128d1565b6000818152600560205260409020600301549091506301000000900460ff161561389a5760405163dd32506560e01b815260040160405180910390fd5b60006138a58c6128d1565b90506138b28b8b8a6143d1565b6138bf818d8d8d8d614601565b61345c818d600001518d8d8d8d614797565b8360006138dd826128d1565b6000818152600560205260408120600201549192506001600160801b03909116900361391c5760405163e5add0eb60e01b815260040160405180910390fd5b856000613928826128d1565b600081815260056020526040902060030154909150600160201b900460ff161561396557604051630a2e590560e31b815260040160405180910390fd5b6000613970896128d1565b905061397c888761480c565b613986898261346f565b61398f88613ae9565b60008281526006602090815260408083206001600160a01b038c168452909152902060010180546010906139d4908490600160801b90046001600160801b0316615c08565b92506101000a8154816001600160801b0302191690836001600160801b03160217905550613a03898289614854565b613a205760405163da9dbb4960e01b815260040160405180910390fd5b613a31818a602001518a8a8a6148bc565b505050505050505050565b6000613a61613a4c600185615bf5565b613a59620f424085615bf5565b86919061491e565b949350505050565b600080613a768385615c28565b90506000613a978280613a92670de0b6b3a76400006002615c28565b61494a565b90506000613ab38284613a92670de0b6b3a76400006003615c28565b905080613ac08385615bf5565b613aca9190615bf5565b9695505050505050565b60006130b68383670de0b6b3a764000061494a565b60006001600160801b03821115613b135760405163293e3f3160e21b815260040160405180910390fd5b5090565b6000613a61613b29620f424084615bf5565b613b34600186615bf5565b86919061494a565b61167e83846001600160a01b031663a9059cbb8585604051602401613b62929190615c3f565b604051602081830303815290604052915060e01b6020820180516001600160e01b038381831617835250505050614957565b6040516001600160a01b038481166024830152838116604483015260648201839052613bcd9186918216906323b872dd90608401613b62565b50505050565b600080856000613be2826128d1565b6000818152600560205260408120600201549192506001600160801b039091169003613c215760405163e5add0eb60e01b815260040160405180910390fd5b876000613c2d826128d1565b600081815260056020526040902060030154909150600160281b900460ff1615613c6a5760405163b36f19c760e01b815260040160405180910390fd5b6000613c758b6128d1565b9050613c828a8a8a6143d1565b6000613c91828d8d8d8d6149b1565b905061345c828d60000151838d8d614b52565b600080613cc4878787613cbf8b602001518c60000151613042565b614ba4565b15613ce257604051631ccf386960e21b815260040160405180910390fd5b6000613d49670ff59ee833b30000613d3e613d1d8b60600151670de0b6b3a7640000613d0e91906158da565b670429d069189e000090613ad4565b613d2f90670de0b6b3a76400006158da565b670de0b6b3a764000090614c66565b808218908211021890565b90508415613dc4576000613d7e613d688a602001518b60000151613042565b87906a0c097ce7bc90715b34b9f160241b61491e565b600089815260056020526040902060010154909150613dbc906001600160801b0380821691600160801b900416613db58486614c7b565b9190614c90565b945050613e2f565b613e2c6a0c097ce7bc90715b34b9f160241b613de88a602001518b60000151613042565b60008a815260056020526040902060010154613e25908590613e1f908a906001600160801b0380821691600160801b9004166141b2565b90613ad4565b919061494a565b94505b509296919550909350505050565b613e4682613ae9565b60008681526006602090815260408083206001600160a01b038916845290915281206001018054909190613e849084906001600160801b0316615c08565b92506101000a8154816001600160801b0302191690836001600160801b03160217905550613eb182613ae9565b60008681526005602052604090206001018054601090613ee2908490600160801b90046001600160801b0316615c08565b82546101009290920a6001600160801b03818102199093169183160217909155600087815260056020526040902060010154613f2692501682810390831002613ae9565b600086815260056020526040902060010180546001600160801b0319166001600160801b0392909216919091179055613f5e83613ae9565b60008681526006602090815260408083206001600160a01b038916845290915290206001018054601090613fa3908490600160801b90046001600160801b0316615c08565b92506101000a8154816001600160801b0302191690836001600160801b031602179055505050505050565b60008281526006602090815260408083206001600160a01b03851684529091528120600101548190600160801b90046001600160801b031681036141ab5760008481526006602090815260408083206001600160a01b0387168452825280832060019081015488855260059093529220909101546001600160801b03918216935061406d9181811691613d3e9186918491600160801b90910416613a3c565b905061407881613ae9565b600085815260056020526040812060010180549091906140a29084906001600160801b0316615c08565b92506101000a8154816001600160801b0302191690836001600160801b031602179055506140cf81613ae9565b600085815260056020526040812080549091906140f69084906001600160801b0316615c08565b92506101000a8154816001600160801b0302191690836001600160801b0316021790555061412382613ae9565b60008581526005602052604090206001018054601090614154908490600160801b90046001600160801b0316615c08565b82546001600160801b039182166101009390930a92830291909202199091161790555060008481526006602090815260408083206001600160a01b0387168452909152902060010180546001600160801b03191690555b9250929050565b6000613a616141c2600185615bf5565b613b34620f424085615bf5565b6000808660006141de826128d1565b6000818152600560205260408120600201549192506001600160801b03909116900361421d5760405163e5add0eb60e01b815260040160405180910390fd5b886000614229826128d1565b60008181526005602052604090206003015490915062010000900460ff16156142655760405163f49c27ff60e01b815260040160405180910390fd5b60006142708c6128d1565b905061427d8b8b8a6143d1565b61428a818d8d8d8d614cad565b61345c818d600001518d8d8d8d614eb3565b8260006142a8826128d1565b6000818152600560205260408120600201549192506001600160801b0390911690036142e75760405163e5add0eb60e01b815260040160405180910390fd5b8460006142f3826128d1565b600081815260056020526040902060030154909150610100900460ff161561432e57604051638fb3b2e360e01b815260040160405180910390fd5b6000614339886128d1565b9050614345878761480c565b61434e87613ae9565b60008281526006602090815260408083206001600160a01b038b16845290915290206001018054601090614393908490600160801b90046001600160801b0316615922565b92506101000a8154816001600160801b0302191690836001600160801b031602179055506143c78189602001518989614efe565b5050505050505050565b81158315186143f3576040516374b94ce160e01b815260040160405180910390fd5b6001600160a01b03811661167e576040516301b2f36d60e11b815260040160405180910390fd5b6000614426858761346f565b83156144615760008681526005602052604090205461445a9085906001600160801b0380821691600160801b900416613b17565b9250614492565b60008681526005602052604090205461448f9084906001600160801b0380821691600160801b900416613a3c565b93505b60008681526006602090815260408083206001600160a01b0386168452909152812080548592906144c4908490615bf5565b909155506144d3905083613ae9565b60008781526005602052604090208054601090614501908490600160801b90046001600160801b0316615922565b92506101000a8154816001600160801b0302191690836001600160801b0316021790555061452e84613ae9565b600087815260056020526040812080549091906145559084906001600160801b0316615922565b92506101000a8154816001600160801b0302191690836001600160801b0316021790555083905095945050505050565b600080826001600160a01b0316336001600160a01b0316887f9842683874c3fce2f7d25f15eec9d4d43d471ba247637bcd7a15a993b9a957d988886040516145d7929190918252602082015260400190565b60405180910390a46145f46001600160a01b038716333088613b94565b5092959194509092505050565b61460b848661346f565b82156146465760008581526005602052604090205461463f9084906001600160801b0380821691600160801b900416614c90565b9150614677565b6000858152600560205260409020546146749083906001600160801b0380821691600160801b9004166141b2565b92505b60008581526006602090815260408083206001600160a01b0385168452909152812080548492906146a99084906158da565b909155506146b8905082613ae9565b600086815260056020526040902080546010906146e6908490600160801b90046001600160801b0316615c08565b92506101000a8154816001600160801b0302191690836001600160801b0316021790555061471383613ae9565b6000868152600560205260408120805490919061473a9084906001600160801b0316615c08565b82546101009290920a6001600160801b0381810219909316918316021790915560008781526005602052604090208054600191909101549082169116111590506132a9576040516337cdcfad60e01b815260040160405180910390fd5b600080826001600160a01b0316846001600160a01b0316897f7d4a9c55bad934e67312df08633f32b66c97af2e5c22959b4dd9c7c1a1008f69338a8a6040516147e293929190615c58565b60405180910390a46147fe6001600160a01b0388168488613b3c565b509396929550919350505050565b8160000361482d57604051630b21e32f60e41b815260040160405180910390fd5b6001600160a01b03811661226b576040516301b2f36d60e11b815260040160405180910390fd5b60008281526006602090815260408083206001600160a01b03851684529091528120600101546001600160801b03168103614891575060016130b6565b60006148a585602001518660000151613042565b90506148b385858584614ba4565b95945050505050565b806001600160a01b0316826001600160a01b0316867f102443b697d577e2afa29f102bfcda3724a5872c35b5183d84d6204fd6c7f04d3387604051614902929190615c3f565b60405180910390a46132a96001600160a01b0385168285613b3c565b60008161492c6001826158da565b6149368587615c28565b6149409190615bf5565b613a619190615977565b6000816149408486615c28565b600061496c6001600160a01b03841683614f61565b9050805160001415801561499157508080602001905181019061498f9190615c79565b155b1561167e5782604051635274afe760e01b815260040161257491906151a9565b60006149bd858761346f565b83156149fb576000868152600560205260409020600101546149f49085906001600160801b0380821691600160801b900416614c90565b9250614a2f565b600086815260056020526040902060010154614a2c9084906001600160801b0380821691600160801b9004166141b2565b93505b614a3883613ae9565b60008781526006602090815260408083206001600160a01b038716845290915281206001018054909190614a769084906001600160801b0316615c08565b92506101000a8154816001600160801b0302191690836001600160801b03160217905550614aa383613ae9565b60008781526005602052604090206001018054601090614ad4908490600160801b90046001600160801b0316615c08565b82546101009290920a6001600160801b03818102199093169183160217909155600088815260056020526040902060010154614b1892501685810390861002613ae9565b60009687526005602052604090962060010180546001600160801b0319166001600160801b03979097169690961790955550909392505050565b600080826001600160a01b0316336001600160a01b0316887f302b8d080e4972dac0aa0a05b4c84d3ab6b006c1a8039ffb19333668ccd2421388886040516145d7929190918252602082015260400190565b6000838152600560209081526040808320600190810154600684528285206001600160a01b038816865290935290832001548291614bfa916001600160801b039081169181811691600160801b90910416613a3c565b606087015160008781526006602090815260408083206001600160a01b038a16845290915281206001015492935091614c579190613e1f90600160801b90046001600160801b0316876a0c097ce7bc90715b34b9f160241b61494a565b91909110159695505050505050565b60006130b683670de0b6b3a76400008461494a565b60006130b683670de0b6b3a76400008461491e565b6000613a61614ca2620f424084615bf5565b613a59600186615bf5565b614cb7848661346f565b8215614cf557600085815260056020526040902060010154614cee9084906001600160801b0380821691600160801b900416614c90565b9150614d29565b600085815260056020526040902060010154614d269083906001600160801b0380821691600160801b9004166141b2565b92505b614d3282613ae9565b60008681526006602090815260408083206001600160a01b038616845290915281206001018054909190614d709084906001600160801b0316615922565b92506101000a8154816001600160801b0302191690836001600160801b03160217905550614d9d82613ae9565b60008681526005602052604090206001018054601090614dce908490600160801b90046001600160801b0316615922565b92506101000a8154816001600160801b0302191690836001600160801b03160217905550614dfb83613ae9565b60008681526005602052604081206001018054909190614e259084906001600160801b0316615922565b92506101000a8154816001600160801b0302191690836001600160801b03160217905550614e54848683614854565b614e715760405163da9dbb4960e01b815260040160405180910390fd5b600085815260056020526040902080546001909101546001600160801b03918216911611156132a9576040516337cdcfad60e01b815260040160405180910390fd5b600080826001600160a01b0316846001600160a01b0316897f4ead81a1a7fd66b1bf000eb968228624bb1799825cf0c6ed4eb08cc6f3e7e81a338a8a6040516147e293929190615c58565b806001600160a01b0316336001600160a01b0316857f118e45d6353cffd27d1c4ce8f2b32f1a737546b5802ec1d41771d7921e7c7ecf85604051614f4491815260200190565b60405180910390a4613bcd6001600160a01b038416333085613b94565b60606130b68383600084600080856001600160a01b03168486604051614f879190615c96565b60006040518083038185875af1925050503d8060008114614fc4576040519150601f19603f3d011682016040523d82523d6000602084013e614fc9565b606091505b5091509150613aca868383606082614fe957614fe482615027565b6130b6565b815115801561500057506001600160a01b0384163b155b156150205783604051639996b31560e01b815260040161257491906151a9565b50806130b6565b8051156150375780518082602001fd5b604051630a12f52160e11b815260040160405180910390fd5b50565b60006060828403121561506557600080fd5b50919050565b80356001600160a01b038116811461508257600080fd5b919050565b60008060008060c0858703121561509d57600080fd5b6150a78686615053565b935060608501359250608085013591506150c360a0860161506b565b905092959194509250565b634e487b7160e01b600052604160045260246000fd5b803560ff8116811461508257600080fd5b600060a0828403121561510757600080fd5b60405160a081018181106001600160401b0382111715615129576151296150ce565b6040529050806151388361506b565b81526151466020840161506b565b6020820152615157604084016150e4565b6040820152606083013560608201526151726080840161506b565b60808201525092915050565b60008060c0838503121561519157600080fd5b61519b84846150f5565b9460a0939093013593505050565b6001600160a01b0391909116815260200190565b801515811461505057600080fd5b6000602082840312156151dd57600080fd5b81356130b6816151bd565b60008060c083850312156151fb57600080fd5b61520584846150f5565b915060a0830135615215816151bd565b809150509250929050565b600060a0828403121561523257600080fd5b6130b683836150f5565b60006020828403121561524e57600080fd5b5035919050565b60006020828403121561526757600080fd5b8135600381106130b657600080fd5b600080600080600060e0868803121561528e57600080fd5b6152988787615053565b945060608601359350608086013592506152b460a0870161506b565b91506152c260c0870161506b565b90509295509295909350565b60008060008060c085870312156152e457600080fd5b6152ee8686615053565b9350606085013592506153036080860161506b565b91506150c360a0860161506b565b80516001600160a01b03908116835260208083015182169084015260408083015160ff16908401526060808301519084015260809182015116910152565b60a081016115258284615311565b60006020828403121561536f57600080fd5b6130b68261506b565b6000806040838503121561538b57600080fd5b8235915061539b6020840161506b565b90509250929050565b80511515825260208101511515602083015260408101511515604083015260608101511515606083015260808101511515608083015260a0810151151560a083015260c0810151151560c08301525050565b6001600160801b0388811682528781166020830152868116604083015285811660608301528481166080830152831660a08201526101a0810161543c60c08301846153a4565b98975050505050505050565b6000806040838503121561545b57600080fd5b615464836150e4565b946020939093013593505050565b60008060c0838503121561548557600080fd5b61548f84846150f5565b915061539b60a0840161506b565b6000606082840312156154af57600080fd5b6130b68383615053565b600080604083850312156154cc57600080fd5b6154d58361506b565b91506020830135615215816151bd565b600080604083850312156154f857600080fd5b6154648361506b565b6020808252825182820181905260009190848201906040850190845b818110156155395783518352928401929184019160010161551d565b50909695505050505050565b6000806040838503121561555857600080fd5b6155618361506b565b915061539b6020840161506b565b6002811061505057600080fd5b6000806040838503121561558f57600080fd5b6155988361506b565b915060208301356152158161556f565b600080602083850312156155bb57600080fd5b82356001600160401b03808211156155d257600080fd5b818501915085601f8301126155e657600080fd5b8135818111156155f557600080fd5b8660208260051b850101111561560a57600080fd5b60209290920196919550909350505050565b60005b8381101561563757818101518382015260200161561f565b50506000910152565b6000815180845261565881602086016020860161561c565b601f01601f19169290920160200192915050565b600060208083016020845280855180835260408601915060408160051b87010192506020870160005b828110156156c357603f198886030184526156b1858351615640565b94509285019290850190600101615695565b5092979650505050505050565b600080604083850312156156e357600080fd5b82356155618161556f565b60008060008060c0858703121561570457600080fd5b61570e8686615053565b935061571c6060860161506b565b939693955050505060808201359160a0013590565b60006060828403121561574357600080fd5b604051606081018181106001600160401b0382111715615765576157656150ce565b6040526157718361506b565b815261577f6020840161506b565b6020820152615790604084016150e4565b60408201529392505050565b60008060c083850312156157af57600080fd5b6157b984846150f5565b915060a08301356152158161556f565b60018060801b038082511683528060208301511660208401528060408301511660408401528060608301511660608401528060808301511660808401528060a08301511660a08401525060c081015161167e60c08401826153a4565b6101a0810161152582846157c9565b6000806040838503121561584757600080fd5b50508035926020909101359150565b600080600060a0848603121561586b57600080fd5b6158758585615053565b92506060840135915061588a6080850161506b565b90509250925092565b634e487b7160e01b600052602160045260246000fd5b60c081016158b78285615311565b8260a08301529392505050565b634e487b7160e01b600052601160045260246000fd5b81810381811115611525576115256158c4565b61024081016158fc8285615311565b6130b660a08301846157c9565b60006020828403121561591b57600080fd5b5051919050565b6001600160801b038181168382160190808211156125a5576125a56158c4565b6001600160a01b0392831681529116602082015260400190565b60006020828403121561596e57600080fd5b6130b6826150e4565b60008261599457634e487b7160e01b600052601260045260246000fd5b500490565b80546001600160a01b0390811683526001820154808216602085015260a01c60ff1660408401526002820154606084015260039091015416608090910152565b60c081016158b78285615999565b60a081016115258284615999565b634e487b7160e01b600052603260045260246000fd5b6000808335601e19843603018112615a2257600080fd5b8301803591506001600160401b03821115615a3c57600080fd5b6020019150368190038213156141ab57600080fd5b8183823760009101908152919050565b600060208284031215615a7357600080fd5b81516001600160401b0380821115615a8a57600080fd5b818401915084601f830112615a9e57600080fd5b815181811115615ab057615ab06150ce565b604051601f8201601f19908116603f01168101908382118183101715615ad857615ad86150ce565b81604052828152876020848701011115615af157600080fd5b615b0283602083016020880161561c565b979650505050505050565b6020815260006130b66020830184615640565b6102408101615b2f8285615311565b82546001600160801b0380821660a0850152608091821c60c0850152600185015480821660e0860152821c6101008501526002850154908116610120850152901c610140830152600383015460ff8082161515610160850152600882901c81161515610180850152601082901c811615156101a0850152601882901c811615156101c0850152602082901c811615156101e0850152615bd86102008501828460281c1615159052565b615bec6102208501828460301c1615159052565b50509392505050565b80820180821115611525576115256158c4565b6001600160801b038281168282160390808211156125a5576125a56158c4565b8082028115828204841417611525576115256158c4565b6001600160a01b03929092168252602082015260400190565b6001600160a01b039390931683526020830191909152604082015260600190565b600060208284031215615c8b57600080fd5b81516130b6816151bd565b60008251615ca881846020870161561c565b919091019291505056fe6d5257204ebe7d88fd91ae87941cb2dd9d8062b64ae5a2bd2d28ec40b9fbf6dfa26469706673582212203828c3822ad5f66389a4057511483d06871e9c4914a3ddc3774f0f2867d4102f64736f6c63430008180033",
  "linkReferences": {},
  "deployedLinkReferences": {}
}