{
  "_format": "hh-sol-artifact-1",
  "contractName": "ProtocolGovernance",
  "sourceName": "src/governance/protocol-governance/ProtocolGovernance.sol",
  "abi": [
    {
      "inputs": [
        {
          "internalType": "string",
          "name": "name_",
          "type": "string"
        },
        {
          "internalType": "contract ERC20Votes",
          "name": "tokenAddress",
          "type": "address"
        },
        {
          "internalType": "uint256",
          "name": "quorumNumeratorValue",
          "type": "uint256"
        },
        {
          "internalType": "uint48",
          "name": "initialVotingDelay",
          "type": "uint48"
        },
        {
          "internalType": "uint32",
          "name": "initialVotingPeriod",
          "type": "uint32"
        },
        {
          "internalType": "uint256",
          "name": "initialProposalThreshold",
          "type": "uint256"
        },
        {
          "internalType": "contract TimelockController",
          "name": "timelockAddress",
          "type": "address"
        }
      ],
      "stateMutability": "nonpayable",
      "type": "constructor"
    },
    {
      "inputs": [],
      "name": "CheckpointUnorderedInsertion",
      "type": "error"
    },
    {
      "inputs": [],
      "name": "FailedInnerCall",
      "type": "error"
    },
    {
      "inputs": [
        {
          "internalType": "address",
          "name": "voter",
          "type": "address"
        }
      ],
      "name": "GovernorAlreadyCastVote",
      "type": "error"
    },
    {
      "inputs": [
        {
          "internalType": "uint256",
          "name": "proposalId",
          "type": "uint256"
        }
      ],
      "name": "GovernorAlreadyQueuedProposal",
      "type": "error"
    },
    {
      "inputs": [],
      "name": "GovernorDisabledDeposit",
      "type": "error"
    },
    {
      "inputs": [
        {
          "internalType": "address",
          "name": "proposer",
          "type": "address"
        },
        {
          "internalType": "uint256",
          "name": "votes",
          "type": "uint256"
        },
        {
          "internalType": "uint256",
          "name": "threshold",
          "type": "uint256"
        }
      ],
      "name": "GovernorInsufficientProposerVotes",
      "type": "error"
    },
    {
      "inputs": [
        {
          "internalType": "uint256",
          "name": "targets",
          "type": "uint256"
        },
        {
          "internalType": "uint256",
          "name": "calldatas",
          "type": "uint256"
        },
        {
          "internalType": "uint256",
          "name": "values",
          "type": "uint256"
        }
      ],
      "name": "GovernorInvalidProposalLength",
      "type": "error"
    },
    {
      "inputs": [
        {
          "internalType": "uint256",
          "name": "quorumNumerator",
          "type": "uint256"
        },
        {
          "internalType": "uint256",
          "name": "quorumDenominator",
          "type": "uint256"
        }
      ],
      "name": "GovernorInvalidQuorumFraction",
      "type": "error"
    },
    {
      "inputs": [
        {
          "internalType": "address",
          "name": "voter",
          "type": "address"
        }
      ],
      "name": "GovernorInvalidSignature",
      "type": "error"
    },
    {
      "inputs": [],
      "name": "GovernorInvalidVoteType",
      "type": "error"
    },
    {
      "inputs": [
        {
          "internalType": "uint256",
          "name": "votingPeriod",
          "type": "uint256"
        }
      ],
      "name": "GovernorInvalidVotingPeriod",
      "type": "error"
    },
    {
      "inputs": [
        {
          "internalType": "uint256",
          "name": "proposalId",
          "type": "uint256"
        }
      ],
      "name": "GovernorNonexistentProposal",
      "type": "error"
    },
    {
      "inputs": [
        {
          "internalType": "uint256",
          "name": "proposalId",
          "type": "uint256"
        }
      ],
      "name": "GovernorNotQueuedProposal",
      "type": "error"
    },
    {
      "inputs": [
        {
          "internalType": "address",
          "name": "account",
          "type": "address"
        }
      ],
      "name": "GovernorOnlyExecutor",
      "type": "error"
    },
    {
      "inputs": [
        {
          "internalType": "address",
          "name": "account",
          "type": "address"
        }
      ],
      "name": "GovernorOnlyProposer",
      "type": "error"
    },
    {
      "inputs": [],
      "name": "GovernorQueueNotImplemented",
      "type": "error"
    },
    {
      "inputs": [
        {
          "internalType": "address",
          "name": "proposer",
          "type": "address"
        }
      ],
      "name": "GovernorRestrictedProposer",
      "type": "error"
    },
    {
      "inputs": [
        {
          "internalType": "uint256",
          "name": "proposalId",
          "type": "uint256"
        },
        {
          "internalType": "enum IGovernor.ProposalState",
          "name": "current",
          "type": "uint8"
        },
        {
          "internalType": "bytes32",
          "name": "expectedStates",
          "type": "bytes32"
        }
      ],
      "name": "GovernorUnexpectedProposalState",
      "type": "error"
    },
    {
      "inputs": [
        {
          "internalType": "address",
          "name": "account",
          "type": "address"
        },
        {
          "internalType": "uint256",
          "name": "currentNonce",
          "type": "uint256"
        }
      ],
      "name": "InvalidAccountNonce",
      "type": "error"
    },
    {
      "inputs": [],
      "name": "InvalidShortString",
      "type": "error"
    },
    {
      "inputs": [],
      "name": "QueueEmpty",
      "type": "error"
    },
    {
      "inputs": [],
      "name": "QueueFull",
      "type": "error"
    },
    {
      "inputs": [
        {
          "internalType": "uint8",
          "name": "bits",
          "type": "uint8"
        },
        {
          "internalType": "uint256",
          "name": "value",
          "type": "uint256"
        }
      ],
      "name": "SafeCastOverflowedUintDowncast",
      "type": "error"
    },
    {
      "inputs": [
        {
          "internalType": "string",
          "name": "str",
          "type": "string"
        }
      ],
      "name": "StringTooLong",
      "type": "error"
    },
    {
      "anonymous": false,
      "inputs": [],
      "name": "EIP712DomainChanged",
      "type": "event"
    },
    {
      "anonymous": false,
      "inputs": [
        {
          "indexed": false,
          "internalType": "uint256",
          "name": "proposalId",
          "type": "uint256"
        }
      ],
      "name": "ProposalCanceled",
      "type": "event"
    },
    {
      "anonymous": false,
      "inputs": [
        {
          "indexed": false,
          "internalType": "uint256",
          "name": "proposalId",
          "type": "uint256"
        },
        {
          "indexed": false,
          "internalType": "address",
          "name": "proposer",
          "type": "address"
        },
        {
          "indexed": false,
          "internalType": "address[]",
          "name": "targets",
          "type": "address[]"
        },
        {
          "indexed": false,
          "internalType": "uint256[]",
          "name": "values",
          "type": "uint256[]"
        },
        {
          "indexed": false,
          "internalType": "string[]",
          "name": "signatures",
          "type": "string[]"
        },
        {
          "indexed": false,
          "internalType": "bytes[]",
          "name": "calldatas",
          "type": "bytes[]"
        },
        {
          "indexed": false,
          "internalType": "uint256",
          "name": "voteStart",
          "type": "uint256"
        },
        {
          "indexed": false,
          "internalType": "uint256",
          "name": "voteEnd",
          "type": "uint256"
        },
        {
          "indexed": false,
          "internalType": "string",
          "name": "description",
          "type": "string"
        }
      ],
      "name": "ProposalCreated",
      "type": "event"
    },
    {
      "anonymous": false,
      "inputs": [
        {
          "indexed": false,
          "internalType": "uint256",
          "name": "proposalId",
          "type": "uint256"
        }
      ],
      "name": "ProposalExecuted",
      "type": "event"
    },
    {
      "anonymous": false,
      "inputs": [
        {
          "indexed": false,
          "internalType": "uint256",
          "name": "proposalId",
          "type": "uint256"
        },
        {
          "indexed": false,
          "internalType": "uint256",
          "name": "etaSeconds",
          "type": "uint256"
        }
      ],
      "name": "ProposalQueued",
      "type": "event"
    },
    {
      "anonymous": false,
      "inputs": [
        {
          "indexed": false,
          "internalType": "uint256",
          "name": "oldProposalThreshold",
          "type": "uint256"
        },
        {
          "indexed": false,
          "internalType": "uint256",
          "name": "newProposalThreshold",
          "type": "uint256"
        }
      ],
      "name": "ProposalThresholdSet",
      "type": "event"
    },
    {
      "anonymous": false,
      "inputs": [
        {
          "indexed": false,
          "internalType": "uint256",
          "name": "oldQuorumNumerator",
          "type": "uint256"
        },
        {
          "indexed": false,
          "internalType": "uint256",
          "name": "newQuorumNumerator",
          "type": "uint256"
        }
      ],
      "name": "QuorumNumeratorUpdated",
      "type": "event"
    },
    {
      "anonymous": false,
      "inputs": [
        {
          "indexed": false,
          "internalType": "address",
          "name": "oldTimelock",
          "type": "address"
        },
        {
          "indexed": false,
          "internalType": "address",
          "name": "newTimelock",
          "type": "address"
        }
      ],
      "name": "TimelockChange",
      "type": "event"
    },
    {
      "anonymous": false,
      "inputs": [
        {
          "indexed": true,
          "internalType": "address",
          "name": "voter",
          "type": "address"
        },
        {
          "indexed": false,
          "internalType": "uint256",
          "name": "proposalId",
          "type": "uint256"
        },
        {
          "indexed": false,
          "internalType": "uint8",
          "name": "support",
          "type": "uint8"
        },
        {
          "indexed": false,
          "internalType": "uint256",
          "name": "weight",
          "type": "uint256"
        },
        {
          "indexed": false,
          "internalType": "string",
          "name": "reason",
          "type": "string"
        }
      ],
      "name": "VoteCast",
      "type": "event"
    },
    {
      "anonymous": false,
      "inputs": [
        {
          "indexed": true,
          "internalType": "address",
          "name": "voter",
          "type": "address"
        },
        {
          "indexed": false,
          "internalType": "uint256",
          "name": "proposalId",
          "type": "uint256"
        },
        {
          "indexed": false,
          "internalType": "uint8",
          "name": "support",
          "type": "uint8"
        },
        {
          "indexed": false,
          "internalType": "uint256",
          "name": "weight",
          "type": "uint256"
        },
        {
          "indexed": false,
          "internalType": "string",
          "name": "reason",
          "type": "string"
        },
        {
          "indexed": false,
          "internalType": "bytes",
          "name": "params",
          "type": "bytes"
        }
      ],
      "name": "VoteCastWithParams",
      "type": "event"
    },
    {
      "anonymous": false,
      "inputs": [
        {
          "indexed": false,
          "internalType": "uint256",
          "name": "oldVotingDelay",
          "type": "uint256"
        },
        {
          "indexed": false,
          "internalType": "uint256",
          "name": "newVotingDelay",
          "type": "uint256"
        }
      ],
      "name": "VotingDelaySet",
      "type": "event"
    },
    {
      "anonymous": false,
      "inputs": [
        {
          "indexed": false,
          "internalType": "uint256",
          "name": "oldVotingPeriod",
          "type": "uint256"
        },
        {
          "indexed": false,
          "internalType": "uint256",
          "name": "newVotingPeriod",
          "type": "uint256"
        }
      ],
      "name": "VotingPeriodSet",
      "type": "event"
    },
    {
      "inputs": [],
      "name": "BALLOT_TYPEHASH",
      "outputs": [
        {
          "internalType": "bytes32",
          "name": "",
          "type": "bytes32"
        }
      ],
      "stateMutability": "view",
      "type": "function"
    },
    {
      "inputs": [],
      "name": "CLOCK_MODE",
      "outputs": [
        {
          "internalType": "string",
          "name": "",
          "type": "string"
        }
      ],
      "stateMutability": "view",
      "type": "function"
    },
    {
      "inputs": [],
      "name": "COUNTING_MODE",
      "outputs": [
        {
          "internalType": "string",
          "name": "",
          "type": "string"
        }
      ],
      "stateMutability": "pure",
      "type": "function"
    },
    {
      "inputs": [],
      "name": "EXTENDED_BALLOT_TYPEHASH",
      "outputs": [
        {
          "internalType": "bytes32",
          "name": "",
          "type": "bytes32"
        }
      ],
      "stateMutability": "view",
      "type": "function"
    },
    {
      "inputs": [
        {
          "internalType": "uint256",
          "name": "proposalId",
          "type": "uint256"
        }
      ],
      "name": "cancel",
      "outputs": [],
      "stateMutability": "nonpayable",
      "type": "function"
    },
    {
      "inputs": [
        {
          "internalType": "address[]",
          "name": "targets",
          "type": "address[]"
        },
        {
          "internalType": "uint256[]",
          "name": "values",
          "type": "uint256[]"
        },
        {
          "internalType": "bytes[]",
          "name": "calldatas",
          "type": "bytes[]"
        },
        {
          "internalType": "bytes32",
          "name": "descriptionHash",
          "type": "bytes32"
        }
      ],
      "name": "cancel",
      "outputs": [
        {
          "internalType": "uint256",
          "name": "",
          "type": "uint256"
        }
      ],
      "stateMutability": "nonpayable",
      "type": "function"
    },
    {
      "inputs": [
        {
          "internalType": "uint256",
          "name": "proposalId",
          "type": "uint256"
        },
        {
          "internalType": "uint8",
          "name": "support",
          "type": "uint8"
        }
      ],
      "name": "castVote",
      "outputs": [
        {
          "internalType": "uint256",
          "name": "",
          "type": "uint256"
        }
      ],
      "stateMutability": "nonpayable",
      "type": "function"
    },
    {
      "inputs": [
        {
          "internalType": "uint256",
          "name": "proposalId",
          "type": "uint256"
        },
        {
          "internalType": "uint8",
          "name": "support",
          "type": "uint8"
        },
        {
          "internalType": "address",
          "name": "voter",
          "type": "address"
        },
        {
          "internalType": "bytes",
          "name": "signature",
          "type": "bytes"
        }
      ],
      "name": "castVoteBySig",
      "outputs": [
        {
          "internalType": "uint256",
          "name": "",
          "type": "uint256"
        }
      ],
      "stateMutability": "nonpayable",
      "type": "function"
    },
    {
      "inputs": [
        {
          "internalType": "uint256",
          "name": "proposalId",
          "type": "uint256"
        },
        {
          "internalType": "uint8",
          "name": "support",
          "type": "uint8"
        },
        {
          "internalType": "string",
          "name": "reason",
          "type": "string"
        }
      ],
      "name": "castVoteWithReason",
      "outputs": [
        {
          "internalType": "uint256",
          "name": "",
          "type": "uint256"
        }
      ],
      "stateMutability": "nonpayable",
      "type": "function"
    },
    {
      "inputs": [
        {
          "internalType": "uint256",
          "name": "proposalId",
          "type": "uint256"
        },
        {
          "internalType": "uint8",
          "name": "support",
          "type": "uint8"
        },
        {
          "internalType": "string",
          "name": "reason",
          "type": "string"
        },
        {
          "internalType": "bytes",
          "name": "params",
          "type": "bytes"
        }
      ],
      "name": "castVoteWithReasonAndParams",
      "outputs": [
        {
          "internalType": "uint256",
          "name": "",
          "type": "uint256"
        }
      ],
      "stateMutability": "nonpayable",
      "type": "function"
    },
    {
      "inputs": [
        {
          "internalType": "uint256",
          "name": "proposalId",
          "type": "uint256"
        },
        {
          "internalType": "uint8",
          "name": "support",
          "type": "uint8"
        },
        {
          "internalType": "address",
          "name": "voter",
          "type": "address"
        },
        {
          "internalType": "string",
          "name": "reason",
          "type": "string"
        },
        {
          "internalType": "bytes",
          "name": "params",
          "type": "bytes"
        },
        {
          "internalType": "bytes",
          "name": "signature",
          "type": "bytes"
        }
      ],
      "name": "castVoteWithReasonAndParamsBySig",
      "outputs": [
        {
          "internalType": "uint256",
          "name": "",
          "type": "uint256"
        }
      ],
      "stateMutability": "nonpayable",
      "type": "function"
    },
    {
      "inputs": [],
      "name": "clock",
      "outputs": [
        {
          "internalType": "uint48",
          "name": "",
          "type": "uint48"
        }
      ],
      "stateMutability": "view",
      "type": "function"
    },
    {
      "inputs": [],
      "name": "eip712Domain",
      "outputs": [
        {
          "internalType": "bytes1",
          "name": "fields",
          "type": "bytes1"
        },
        {
          "internalType": "string",
          "name": "name",
          "type": "string"
        },
        {
          "internalType": "string",
          "name": "version",
          "type": "string"
        },
        {
          "internalType": "uint256",
          "name": "chainId",
          "type": "uint256"
        },
        {
          "internalType": "address",
          "name": "verifyingContract",
          "type": "address"
        },
        {
          "internalType": "bytes32",
          "name": "salt",
          "type": "bytes32"
        },
        {
          "internalType": "uint256[]",
          "name": "extensions",
          "type": "uint256[]"
        }
      ],
      "stateMutability": "view",
      "type": "function"
    },
    {
      "inputs": [
        {
          "internalType": "address[]",
          "name": "targets",
          "type": "address[]"
        },
        {
          "internalType": "uint256[]",
          "name": "values",
          "type": "uint256[]"
        },
        {
          "internalType": "bytes[]",
          "name": "calldatas",
          "type": "bytes[]"
        },
        {
          "internalType": "bytes32",
          "name": "descriptionHash",
          "type": "bytes32"
        }
      ],
      "name": "execute",
      "outputs": [
        {
          "internalType": "uint256",
          "name": "",
          "type": "uint256"
        }
      ],
      "stateMutability": "payable",
      "type": "function"
    },
    {
      "inputs": [
        {
          "internalType": "uint256",
          "name": "proposalId",
          "type": "uint256"
        }
      ],
      "name": "execute",
      "outputs": [],
      "stateMutability": "payable",
      "type": "function"
    },
    {
      "inputs": [
        {
          "internalType": "address",
          "name": "account",
          "type": "address"
        },
        {
          "internalType": "uint256",
          "name": "timepoint",
          "type": "uint256"
        }
      ],
      "name": "getVotes",
      "outputs": [
        {
          "internalType": "uint256",
          "name": "",
          "type": "uint256"
        }
      ],
      "stateMutability": "view",
      "type": "function"
    },
    {
      "inputs": [
        {
          "internalType": "address",
          "name": "account",
          "type": "address"
        },
        {
          "internalType": "uint256",
          "name": "timepoint",
          "type": "uint256"
        },
        {
          "internalType": "bytes",
          "name": "params",
          "type": "bytes"
        }
      ],
      "name": "getVotesWithParams",
      "outputs": [
        {
          "internalType": "uint256",
          "name": "",
          "type": "uint256"
        }
      ],
      "stateMutability": "view",
      "type": "function"
    },
    {
      "inputs": [
        {
          "internalType": "uint256",
          "name": "proposalId",
          "type": "uint256"
        },
        {
          "internalType": "address",
          "name": "account",
          "type": "address"
        }
      ],
      "name": "hasVoted",
      "outputs": [
        {
          "internalType": "bool",
          "name": "",
          "type": "bool"
        }
      ],
      "stateMutability": "view",
      "type": "function"
    },
    {
      "inputs": [
        {
          "internalType": "address[]",
          "name": "targets",
          "type": "address[]"
        },
        {
          "internalType": "uint256[]",
          "name": "values",
          "type": "uint256[]"
        },
        {
          "internalType": "bytes[]",
          "name": "calldatas",
          "type": "bytes[]"
        },
        {
          "internalType": "bytes32",
          "name": "descriptionHash",
          "type": "bytes32"
        }
      ],
      "name": "hashProposal",
      "outputs": [
        {
          "internalType": "uint256",
          "name": "",
          "type": "uint256"
        }
      ],
      "stateMutability": "pure",
      "type": "function"
    },
    {
      "inputs": [],
      "name": "name",
      "outputs": [
        {
          "internalType": "string",
          "name": "",
          "type": "string"
        }
      ],
      "stateMutability": "view",
      "type": "function"
    },
    {
      "inputs": [
        {
          "internalType": "address",
          "name": "owner",
          "type": "address"
        }
      ],
      "name": "nonces",
      "outputs": [
        {
          "internalType": "uint256",
          "name": "",
          "type": "uint256"
        }
      ],
      "stateMutability": "view",
      "type": "function"
    },
    {
      "inputs": [
        {
          "internalType": "address",
          "name": "",
          "type": "address"
        },
        {
          "internalType": "address",
          "name": "",
          "type": "address"
        },
        {
          "internalType": "uint256[]",
          "name": "",
          "type": "uint256[]"
        },
        {
          "internalType": "uint256[]",
          "name": "",
          "type": "uint256[]"
        },
        {
          "internalType": "bytes",
          "name": "",
          "type": "bytes"
        }
      ],
      "name": "onERC1155BatchReceived",
      "outputs": [
        {
          "internalType": "bytes4",
          "name": "",
          "type": "bytes4"
        }
      ],
      "stateMutability": "nonpayable",
      "type": "function"
    },
    {
      "inputs": [
        {
          "internalType": "address",
          "name": "",
          "type": "address"
        },
        {
          "internalType": "address",
          "name": "",
          "type": "address"
        },
        {
          "internalType": "uint256",
          "name": "",
          "type": "uint256"
        },
        {
          "internalType": "uint256",
          "name": "",
          "type": "uint256"
        },
        {
          "internalType": "bytes",
          "name": "",
          "type": "bytes"
        }
      ],
      "name": "onERC1155Received",
      "outputs": [
        {
          "internalType": "bytes4",
          "name": "",
          "type": "bytes4"
        }
      ],
      "stateMutability": "nonpayable",
      "type": "function"
    },
    {
      "inputs": [
        {
          "internalType": "address",
          "name": "",
          "type": "address"
        },
        {
          "internalType": "address",
          "name": "",
          "type": "address"
        },
        {
          "internalType": "uint256",
          "name": "",
          "type": "uint256"
        },
        {
          "internalType": "bytes",
          "name": "",
          "type": "bytes"
        }
      ],
      "name": "onERC721Received",
      "outputs": [
        {
          "internalType": "bytes4",
          "name": "",
          "type": "bytes4"
        }
      ],
      "stateMutability": "nonpayable",
      "type": "function"
    },
    {
      "inputs": [],
      "name": "proposalCount",
      "outputs": [
        {
          "internalType": "uint256",
          "name": "",
          "type": "uint256"
        }
      ],
      "stateMutability": "view",
      "type": "function"
    },
    {
      "inputs": [
        {
          "internalType": "uint256",
          "name": "proposalId",
          "type": "uint256"
        }
      ],
      "name": "proposalDeadline",
      "outputs": [
        {
          "internalType": "uint256",
          "name": "",
          "type": "uint256"
        }
      ],
      "stateMutability": "view",
      "type": "function"
    },
    {
      "inputs": [
        {
          "internalType": "uint256",
          "name": "proposalId",
          "type": "uint256"
        }
      ],
      "name": "proposalDetails",
      "outputs": [
        {
          "internalType": "address[]",
          "name": "",
          "type": "address[]"
        },
        {
          "internalType": "uint256[]",
          "name": "",
          "type": "uint256[]"
        },
        {
          "internalType": "bytes[]",
          "name": "",
          "type": "bytes[]"
        },
        {
          "internalType": "bytes32",
          "name": "",
          "type": "bytes32"
        }
      ],
      "stateMutability": "view",
      "type": "function"
    },
    {
      "inputs": [
        {
          "internalType": "uint256",
          "name": "index",
          "type": "uint256"
        }
      ],
      "name": "proposalDetailsAt",
      "outputs": [
        {
          "internalType": "uint256",
          "name": "",
          "type": "uint256"
        },
        {
          "internalType": "address[]",
          "name": "",
          "type": "address[]"
        },
        {
          "internalType": "uint256[]",
          "name": "",
          "type": "uint256[]"
        },
        {
          "internalType": "bytes[]",
          "name": "",
          "type": "bytes[]"
        },
        {
          "internalType": "bytes32",
          "name": "",
          "type": "bytes32"
        }
      ],
      "stateMutability": "view",
      "type": "function"
    },
    {
      "inputs": [
        {
          "internalType": "uint256",
          "name": "proposalId",
          "type": "uint256"
        }
      ],
      "name": "proposalEta",
      "outputs": [
        {
          "internalType": "uint256",
          "name": "",
          "type": "uint256"
        }
      ],
      "stateMutability": "view",
      "type": "function"
    },
    {
      "inputs": [
        {
          "internalType": "uint256",
          "name": "proposalId",
          "type": "uint256"
        }
      ],
      "name": "proposalNeedsQueuing",
      "outputs": [
        {
          "internalType": "bool",
          "name": "",
          "type": "bool"
        }
      ],
      "stateMutability": "view",
      "type": "function"
    },
    {
      "inputs": [
        {
          "internalType": "uint256",
          "name": "proposalId",
          "type": "uint256"
        }
      ],
      "name": "proposalProposer",
      "outputs": [
        {
          "internalType": "address",
          "name": "",
          "type": "address"
        }
      ],
      "stateMutability": "view",
      "type": "function"
    },
    {
      "inputs": [
        {
          "internalType": "uint256",
          "name": "proposalId",
          "type": "uint256"
        }
      ],
      "name": "proposalSnapshot",
      "outputs": [
        {
          "internalType": "uint256",
          "name": "",
          "type": "uint256"
        }
      ],
      "stateMutability": "view",
      "type": "function"
    },
    {
      "inputs": [],
      "name": "proposalThreshold",
      "outputs": [
        {
          "internalType": "uint256",
          "name": "",
          "type": "uint256"
        }
      ],
      "stateMutability": "view",
      "type": "function"
    },
    {
      "inputs": [
        {
          "internalType": "uint256",
          "name": "proposalId",
          "type": "uint256"
        }
      ],
      "name": "proposalVotes",
      "outputs": [
        {
          "internalType": "uint256",
          "name": "againstVotes",
          "type": "uint256"
        },
        {
          "internalType": "uint256",
          "name": "forVotes",
          "type": "uint256"
        },
        {
          "internalType": "uint256",
          "name": "abstainVotes",
          "type": "uint256"
        }
      ],
      "stateMutability": "view",
      "type": "function"
    },
    {
      "inputs": [
        {
          "internalType": "address[]",
          "name": "targets",
          "type": "address[]"
        },
        {
          "internalType": "uint256[]",
          "name": "values",
          "type": "uint256[]"
        },
        {
          "internalType": "bytes[]",
          "name": "calldatas",
          "type": "bytes[]"
        },
        {
          "internalType": "string",
          "name": "description",
          "type": "string"
        }
      ],
      "name": "propose",
      "outputs": [
        {
          "internalType": "uint256",
          "name": "",
          "type": "uint256"
        }
      ],
      "stateMutability": "nonpayable",
      "type": "function"
    },
    {
      "inputs": [
        {
          "internalType": "address[]",
          "name": "targets",
          "type": "address[]"
        },
        {
          "internalType": "uint256[]",
          "name": "values",
          "type": "uint256[]"
        },
        {
          "internalType": "bytes[]",
          "name": "calldatas",
          "type": "bytes[]"
        },
        {
          "internalType": "bytes32",
          "name": "descriptionHash",
          "type": "bytes32"
        }
      ],
      "name": "queue",
      "outputs": [
        {
          "internalType": "uint256",
          "name": "",
          "type": "uint256"
        }
      ],
      "stateMutability": "nonpayable",
      "type": "function"
    },
    {
      "inputs": [
        {
          "internalType": "uint256",
          "name": "proposalId",
          "type": "uint256"
        }
      ],
      "name": "queue",
      "outputs": [],
      "stateMutability": "nonpayable",
      "type": "function"
    },
    {
      "inputs": [
        {
          "internalType": "uint256",
          "name": "timepoint",
          "type": "uint256"
        }
      ],
      "name": "quorum",
      "outputs": [
        {
          "internalType": "uint256",
          "name": "",
          "type": "uint256"
        }
      ],
      "stateMutability": "view",
      "type": "function"
    },
    {
      "inputs": [],
      "name": "quorumDenominator",
      "outputs": [
        {
          "internalType": "uint256",
          "name": "",
          "type": "uint256"
        }
      ],
      "stateMutability": "view",
      "type": "function"
    },
    {
      "inputs": [
        {
          "internalType": "uint256",
          "name": "timepoint",
          "type": "uint256"
        }
      ],
      "name": "quorumNumerator",
      "outputs": [
        {
          "internalType": "uint256",
          "name": "",
          "type": "uint256"
        }
      ],
      "stateMutability": "view",
      "type": "function"
    },
    {
      "inputs": [],
      "name": "quorumNumerator",
      "outputs": [
        {
          "internalType": "uint256",
          "name": "",
          "type": "uint256"
        }
      ],
      "stateMutability": "view",
      "type": "function"
    },
    {
      "inputs": [
        {
          "internalType": "address",
          "name": "target",
          "type": "address"
        },
        {
          "internalType": "uint256",
          "name": "value",
          "type": "uint256"
        },
        {
          "internalType": "bytes",
          "name": "data",
          "type": "bytes"
        }
      ],
      "name": "relay",
      "outputs": [],
      "stateMutability": "payable",
      "type": "function"
    },
    {
      "inputs": [
        {
          "internalType": "uint256",
          "name": "newProposalThreshold",
          "type": "uint256"
        }
      ],
      "name": "setProposalThreshold",
      "outputs": [],
      "stateMutability": "nonpayable",
      "type": "function"
    },
    {
      "inputs": [
        {
          "internalType": "uint48",
          "name": "newVotingDelay",
          "type": "uint48"
        }
      ],
      "name": "setVotingDelay",
      "outputs": [],
      "stateMutability": "nonpayable",
      "type": "function"
    },
    {
      "inputs": [
        {
          "internalType": "uint32",
          "name": "newVotingPeriod",
          "type": "uint32"
        }
      ],
      "name": "setVotingPeriod",
      "outputs": [],
      "stateMutability": "nonpayable",
      "type": "function"
    },
    {
      "inputs": [
        {
          "internalType": "uint256",
          "name": "proposalId",
          "type": "uint256"
        }
      ],
      "name": "state",
      "outputs": [
        {
          "internalType": "enum IGovernor.ProposalState",
          "name": "",
          "type": "uint8"
        }
      ],
      "stateMutability": "view",
      "type": "function"
    },
    {
      "inputs": [
        {
          "internalType": "bytes4",
          "name": "interfaceId",
          "type": "bytes4"
        }
      ],
      "name": "supportsInterface",
      "outputs": [
        {
          "internalType": "bool",
          "name": "",
          "type": "bool"
        }
      ],
      "stateMutability": "view",
      "type": "function"
    },
    {
      "inputs": [],
      "name": "timelock",
      "outputs": [
        {
          "internalType": "address",
          "name": "",
          "type": "address"
        }
      ],
      "stateMutability": "view",
      "type": "function"
    },
    {
      "inputs": [],
      "name": "token",
      "outputs": [
        {
          "internalType": "contract IERC5805",
          "name": "",
          "type": "address"
        }
      ],
      "stateMutability": "view",
      "type": "function"
    },
    {
      "inputs": [
        {
          "internalType": "uint256",
          "name": "newQuorumNumerator",
          "type": "uint256"
        }
      ],
      "name": "updateQuorumNumerator",
      "outputs": [],
      "stateMutability": "nonpayable",
      "type": "function"
    },
    {
      "inputs": [
        {
          "internalType": "contract TimelockController",
          "name": "newTimelock",
          "type": "address"
        }
      ],
      "name": "updateTimelock",
      "outputs": [],
      "stateMutability": "nonpayable",
      "type": "function"
    },
    {
      "inputs": [],
      "name": "version",
      "outputs": [
        {
          "internalType": "string",
          "name": "",
          "type": "string"
        }
      ],
      "stateMutability": "view",
      "type": "function"
    },
    {
      "inputs": [],
      "name": "votingDelay",
      "outputs": [
        {
          "internalType": "uint256",
          "name": "",
          "type": "uint256"
        }
      ],
      "stateMutability": "view",
      "type": "function"
    },
    {
      "inputs": [],
      "name": "votingPeriod",
      "outputs": [
        {
          "internalType": "uint256",
          "name": "",
          "type": "uint256"
        }
      ],
      "stateMutability": "view",
      "type": "function"
    },
    {
      "stateMutability": "payable",
      "type": "receive"
    }
  ],
  "bytecode": "0x6101806040523480156200001257600080fd5b506040516200596b3803806200596b833981016040819052620000359162000808565b80848484888a8c806200005c6040805180820190915260018152603160f81b602082015290565b620000698260006200017d565b610120526200007a8160016200017d565b61014052815160208084019190912060e052815190820120610100524660a0526200010860e05161010051604080517f8b73c3c69bb8fe3d512ecc4cf759cc79239f7b179b0ffacaa9a75d522b39400f60208201529081019290925260608201524660808201523060a082015260009060c00160405160208183030381529060405280519060200120905090565b60805250503060c05260036200011f8282620009b1565b50506001600160a01b0316610160526200013981620001b6565b5062000145836200025a565b6200015082620002c0565b6200015b8162000363565b5050506200016f81620003a460201b60201c565b505050505050505062000b17565b60006020835110156200019d5762000195836200042c565b9050620001b0565b81620001aa8482620009b1565b5060ff90505b92915050565b606480821115620001e95760405163243e544560e01b815260048101839052602481018290526044015b60405180910390fd5b6000620001f56200046f565b90506200021a620002056200048b565b62000210856200050d565b6009919062000547565b505060408051828152602081018590527f0553476bf02ef2726e8ce5ced78d63e26e602e4a2257b1f559418e24b4633997910160405180910390a1505050565b600c546040805165ffffffffffff928316815291831660208301527fc565b045403dc03c2eea82b81a0465edad9e2e7fc4d97e11421c209da93d7a93910160405180910390a1600c805465ffffffffffff191665ffffffffffff92909216919091179055565b8063ffffffff16600003620002ec5760405163f1cfbf0560e01b815260006004820152602401620001e0565b600c546040805163ffffffff66010000000000009093048316815291831660208301527f7e3f7f0708a84de9203036abaa450dccc85ad5ff52f78c170f3edb55cf5e8828910160405180910390a1600c805463ffffffff90921666010000000000000263ffffffff60301b19909216919091179055565b600b5460408051918252602082018390527fccb45da8d5717e6c4544694297c4ba5cf151d455c9bb0ed4fc7a38411bc05461910160405180910390a1600b55565b600c54604080516001600160a01b036a01000000000000000000009093048316815291831660208301527f08f74ea46ef7894f65eabfb5e6e695de773a000b47c529ab559178069b226401910160405180910390a1600c80546001600160a01b039092166a010000000000000000000002600160501b600160f01b0319909216919091179055565b600080829050601f815111156200045a578260405163305a27a960e01b8152600401620001e0919062000a7d565b8051620004678262000ab2565b179392505050565b60006200047d600962000564565b6001600160d01b0316905090565b6000620004986101605190565b6001600160a01b03166391ddadf46040518163ffffffff1660e01b8152600401602060405180830381865afa925050508015620004f4575060408051601f3d908101601f19168201909252620004f19181019062000ad7565b60015b620005085762000503620005b4565b905090565b919050565b60006001600160d01b0382111562000543576040516306dfcc6560e41b815260d0600482015260248101839052604401620001e0565b5090565b60008062000557858585620005c1565b915091505b935093915050565b80546000908015620005aa5762000590836200058260018462000af5565b600091825260209091200190565b54660100000000000090046001600160d01b0316620005ad565b60005b9392505050565b6000620005034362000753565b825460009081908015620006f4576000620005e3876200058260018562000af5565b60408051808201909152905465ffffffffffff80821680845266010000000000009092046001600160d01b0316602084015291925090871610156200063b57604051632520601d60e01b815260040160405180910390fd5b805165ffffffffffff8088169116036200068f578462000662886200058260018662000af5565b80546001600160d01b039290921666010000000000000265ffffffffffff909216919091179055620006e3565b6040805180820190915265ffffffffffff80881682526001600160d01b0380881660208085019182528b54600181018d5560008d815291909120945191519092166601000000000000029216919091179101555b6020015192508391506200055c9050565b50506040805180820190915265ffffffffffff80851682526001600160d01b0380851660208085019182528854600181018a5560008a81529182209551925190931666010000000000000291909316179201919091559050816200055c565b600065ffffffffffff82111562000543576040516306dfcc6560e41b81526030600482015260248101839052604401620001e0565b634e487b7160e01b600052604160045260246000fd5b60005b83811015620007bb578181015183820152602001620007a1565b50506000910152565b80516001600160a01b03811681146200050857600080fd5b805165ffffffffffff811681146200050857600080fd5b805163ffffffff811681146200050857600080fd5b600080600080600080600060e0888a0312156200082457600080fd5b87516001600160401b03808211156200083c57600080fd5b818a0191508a601f8301126200085157600080fd5b81518181111562000866576200086662000788565b604051601f8201601f19908116603f0116810190838211818310171562000891576200089162000788565b816040528281528d6020848701011115620008ab57600080fd5b620008be8360208301602088016200079e565b809b505050505050620008d460208901620007c4565b955060408801519450620008eb60608901620007dc565b9350620008fb60808901620007f3565b925060a088015191506200091260c08901620007c4565b905092959891949750929550565b600181811c908216806200093557607f821691505b6020821081036200095657634e487b7160e01b600052602260045260246000fd5b50919050565b601f821115620009ac576000816000526020600020601f850160051c81016020861015620009875750805b601f850160051c820191505b81811015620009a85782815560010162000993565b5050505b505050565b81516001600160401b03811115620009cd57620009cd62000788565b620009e581620009de845462000920565b846200095c565b602080601f83116001811462000a1d576000841562000a045750858301515b600019600386901b1c1916600185901b178555620009a8565b600085815260208120601f198616915b8281101562000a4e5788860151825594840194600190910190840162000a2d565b508582101562000a6d5787850151600019600388901b60f8161c191681555b5050505050600190811b01905550565b602081526000825180602084015262000a9e8160408501602087016200079e565b601f01601f19169190910160400192915050565b80516020808301519190811015620009565760001960209190910360031b1b16919050565b60006020828403121562000aea57600080fd5b620005ad82620007dc565b81810381811115620001b057634e487b7160e01b600052601160045260246000fd5b60805160a05160c05160e05161010051610120516101405161016051614dee62000b7d6000396000611c6b015260006125b50152600061258801526000612da601526000612d7e01526000612cd901526000612d0301526000612d2d0152614dee6000f3fe6080604052600436106102795760003560e01c80637ecebe001161014b5780637ecebe00146106ee57806384b0196e146107245780638ff262e31461074c57806391ddadf41461076c57806397c3d334146107985780639a802a6d146107ac578063a7713a70146107cc578063a890c910146107e1578063a9a9529414610801578063ab58fb8e14610821578063b58131b014610841578063bc197c8114610856578063c01f9e3714610876578063c28bc2fa14610896578063c59057e4146108a9578063d33219b4146108c9578063da35c664146108de578063dd4e2ba5146108f3578063ddf0b00914610939578063deaaa7cc14610959578063e540d01d1461098d578063eb9019d4146109ad578063ece40cc1146109cd578063f23a6e61146109ed578063f8ce560a14610a0d578063fc0c546a14610a2d578063fe0d94c114610a4257600080fd5b806301ffc9a7146102b557806302a251a3146102ea57806306f3f9e61461031657806306fdde0314610336578063143489d014610358578063150b7a0214610385578063160cbed7146103be57806316e9eaec146103de5780632656227d1461040e5780632d63f693146104215780632e82db94146104415780632fe3e261146104725780633932abb1146104a65780633e4f49e6146104c357806340e58ee5146104f05780634385963214610510578063452115d61461055a5780634bf5d7e91461057a578063544ffc9c1461058f57806354fd4d50146105e4578063567813881461060e5780635b8d0e0d1461062e5780635f398a141461064e57806360c4247f1461066e578063790518871461068e5780637b3c71d3146106ae5780637d5e81e2146106ce57600080fd5b366102b05730610287610a55565b6001600160a01b0316146102ae57604051637485328f60e11b815260040160405180910390fd5b005b600080fd5b3480156102c157600080fd5b506102d56102d0366004613bb6565b610a64565b60405190151581526020015b60405180910390f35b3480156102f657600080fd5b50600c54600160301b900463ffffffff165b6040519081526020016102e1565b34801561032257600080fd5b506102ae610331366004613be0565b610ab6565b34801561034257600080fd5b5061034b610aca565b6040516102e19190613c49565b34801561036457600080fd5b50610378610373366004613be0565b610b5c565b6040516102e19190613c5c565b34801561039157600080fd5b506103a56103a0366004613d50565b610b77565b6040516001600160e01b031990911681526020016102e1565b3480156103ca57600080fd5b506103086103d9366004613f2f565b610bba565b3480156103ea57600080fd5b506103fe6103f9366004613be0565b610c89565b6040516102e1949392919061408e565b61030861041c366004613f2f565b610e93565b34801561042d57600080fd5b5061030861043c366004613be0565b610fff565b34801561044d57600080fd5b5061046161045c366004613be0565b611020565b6040516102e19594939291906140d9565b34801561047e57600080fd5b506103087f3e83946653575f9a39005e1545185629e92736b7528ab20ca3816f315424a81181565b3480156104b257600080fd5b50600c5465ffffffffffff16610308565b3480156104cf57600080fd5b506104e36104de366004613be0565b611070565b6040516102e19190614163565b3480156104fc57600080fd5b506102ae61050b366004613be0565b61107b565b34801561051c57600080fd5b506102d561052b366004614171565b6000828152600a602090815260408083206001600160a01b038516845260030190915290205460ff1692915050565b34801561056657600080fd5b50610308610575366004613f2f565b61121c565b34801561058657600080fd5b5061034b61128e565b34801561059b57600080fd5b506105c96105aa366004613be0565b6000908152600a60205260409020805460018201546002909201549092565b604080519384526020840192909252908201526060016102e1565b3480156105f057600080fd5b506040805180820190915260018152603160f81b602082015261034b565b34801561061a57600080fd5b506103086106293660046141b2565b611337565b34801561063a57600080fd5b50610308610649366004614226565b611360565b34801561065a57600080fd5b506103086106693660046142e0565b611498565b34801561067a57600080fd5b50610308610689366004613be0565b6114ed565b34801561069a57600080fd5b506102ae6106a9366004614377565b61157b565b3480156106ba57600080fd5b506103086106c9366004614394565b61158c565b3480156106da57600080fd5b506103086106e93660046143ed565b6115d4565b3480156106fa57600080fd5b506103086107093660046144a1565b6001600160a01b031660009081526002602052604090205490565b34801561073057600080fd5b50610739611688565b6040516102e197969594939291906144be565b34801561075857600080fd5b5061030861076736600461452e565b6116ce565b34801561077857600080fd5b50610781611779565b60405165ffffffffffff90911681526020016102e1565b3480156107a457600080fd5b506064610308565b3480156107b857600080fd5b506103086107c736600461457f565b6117e8565b3480156107d857600080fd5b506103086117f5565b3480156107ed57600080fd5b506102ae6107fc3660046144a1565b61180f565b34801561080d57600080fd5b506102d561081c366004613be0565b611820565b34801561082d57600080fd5b5061030861083c366004613be0565b611829565b34801561084d57600080fd5b50610308611846565b34801561086257600080fd5b506103a56108713660046145d7565b611851565b34801561088257600080fd5b50610308610891366004613be0565b611895565b6102ae6108a436600461466a565b6118d8565b3480156108b557600080fd5b506103086108c4366004613f2f565b611958565b3480156108d557600080fd5b50610378611992565b3480156108ea57600080fd5b50600754610308565b3480156108ff57600080fd5b506040805180820190915260208082527f737570706f72743d627261766f2671756f72756d3d666f722c6162737461696e9082015261034b565b34801561094557600080fd5b506102ae610954366004613be0565b6119a8565b34801561096557600080fd5b506103087ff2aad550cf55f045cb27e9c559f9889fdfb6e6cdaa032301d6ea397784ae51d781565b34801561099957600080fd5b506102ae6109a83660046146ad565b611b44565b3480156109b957600080fd5b506103086109c83660046146d3565b611b55565b3480156109d957600080fd5b506102ae6109e8366004613be0565b611b7d565b3480156109f957600080fd5b506103a5610a083660046146ff565b611b8e565b348015610a1957600080fd5b50610308610a28366004613be0565b611bd2565b348015610a3957600080fd5b50610378611c69565b6102ae610a50366004613be0565b611c8d565b6000610a5f611992565b905090565b60006001600160e01b031982166332a2ad4360e11b1480610a9557506001600160e01b03198216630271189760e51b145b80610ab057506301ffc9a760e01b6001600160e01b03198316145b92915050565b610abe611e29565b610ac781611ea3565b50565b606060038054610ad990614767565b80601f0160208091040260200160405190810160405280929190818152602001828054610b0590614767565b8015610b525780601f10610b2757610100808354040283529160200191610b52565b820191906000526020600020905b815481529060010190602001808311610b3557829003601f168201915b5050505050905090565b6000908152600460205260409020546001600160a01b031690565b600030610b82610a55565b6001600160a01b031614610ba957604051637485328f60e11b815260040160405180910390fd5b50630a85bd0160e11b949350505050565b600080610bc986868686611958565b9050610bde81610bd96004611f39565b611f5c565b506000610bee8288888888611f9b565b905065ffffffffffff811615610c6657600082815260046020908152604091829020600101805465ffffffffffff191665ffffffffffff85169081179091558251858152918201527f9a2e42fd6722813d69113e7d0079d3d940171428df7373df9c7f7617cfda2892910160405180910390a1610c7f565b604051634844252360e11b815260040160405180910390fd5b5095945050505050565b60008181526008602090815260408083208151815460a0948102820185019093526080810183815260609586958695919485949390928492849190840182828015610cfd57602002820191906000526020600020905b81546001600160a01b03168152600190910190602001808311610cdf575b5050505050815260200160018201805480602002602001604051908101604052809291908181526020018280548015610d5557602002820191906000526020600020905b815481526020019060010190808311610d41575b5050505050815260200160028201805480602002602001604051908101604052809291908181526020016000905b82821015610e2f578382906000526020600020018054610da290614767565b80601f0160208091040260200160405190810160405280929190818152602001828054610dce90614767565b8015610e1b5780601f10610df057610100808354040283529160200191610e1b565b820191906000526020600020905b815481529060010190602001808311610dfe57829003601f168201915b505050505081526020019060010190610d83565b505050508152602001600382015481525050905080606001516000801b03610e7257604051636ad0607560e01b8152600481018790526024015b60405180910390fd5b80516020820151604083015160609093015191989097509195509350915050565b600080610ea286868686611958565b9050610ec281610eb26005611f39565b610ebc6004611f39565b17611f5c565b506000818152600460205260409020805460ff60f01b1916600160f01b17905530610eeb610a55565b6001600160a01b031614610f755760005b8651811015610f7357306001600160a01b0316878281518110610f2157610f216147a1565b60200260200101516001600160a01b031603610f6b57610f6b858281518110610f4c57610f4c6147a1565b6020026020010151805190602001206005611faa90919063ffffffff16565b600101610efc565b505b610f82818787878761201b565b30610f8b610a55565b6001600160a01b031614158015610fb757506005546001600160801b03808216600160801b9092041614155b15610fc25760006005555b6040518181527f712ae1383f79ac853f8d882153778e0260ef8f03b504e2866e0593e04d2b291f906020015b60405180910390a195945050505050565b600090815260046020526040902054600160a01b900465ffffffffffff1690565b600060608060606000806007878154811061103d5761103d6147a1565b9060005260206000200154905060008060008061105985610c89565b979e929d50909b5099509497509395505050505050565b6000610ab08261202f565b6000818152600860209081526040918290208054835181840281018401909452808452909261121792909184918301828280156110e157602002820191906000526020600020905b81546001600160a01b031681526001909101906020018083116110c3575b50505050508260010180548060200260200160405190810160405280929190818152602001828054801561113457602002820191906000526020600020905b815481526020019060010190808311611120575b505050505083600201805480602002602001604051908101604052809291908181526020016000905b8282101561120957838290600052602060002001805461117c90614767565b80601f01602080910402602001604051908101604052809291908181526020018280546111a890614767565b80156111f55780601f106111ca576101008083540402835291602001916111f5565b820191906000526020600020905b8154815290600101906020018083116111d857829003601f168201915b50505050508152602001906001019061115d565b50505050846003015461121c565b505050565b60008061122b86868686611958565b905061123b81610bd96000611f39565b5061124581610b5c565b6001600160a01b0316336001600160a01b031614611278573360405163233d98e360e01b8152600401610e699190613c5c565b6112848686868661217b565b9695505050505050565b6060611298611c69565b6001600160a01b0316634bf5d7e96040518163ffffffff1660e01b8152600401600060405180830381865afa9250505080156112f657506040513d6000823e601f3d908101601f191682016040526112f391908101906147b7565b60015b611332575060408051808201909152601d81527f6d6f64653d626c6f636b6e756d6265722666726f6d3d64656661756c74000000602082015290565b919050565b60008033905061135884828560405180602001604052806000815250612192565b949350505050565b6000806114258761141f7f3e83946653575f9a39005e1545185629e92736b7528ab20ca3816f315424a8118c8c8c6113978e6121b5565b8d8d6040516113a7929190614824565b60405180910390208c805190602001206040516020016114049796959493929190968752602087019590955260ff9390931660408601526001600160a01b03919091166060850152608084015260a083015260c082015260e00190565b604051602081830303815290604052805190602001206121d8565b85612205565b90508061144757866040516394ab6c0760e01b8152600401610e699190613c5c565b61148b89888a89898080601f0160208091040260200160405190810160405280939291908181526020018383808284376000920191909152508b925061225d915050565b9998505050505050505050565b6000803390506114e287828888888080601f0160208091040260200160405190810160405280939291908181526020018383808284376000920191909152508a925061225d915050565b979650505050505050565b60098054600091829061150160018461484a565b81548110611511576115116147a1565b6000918252602090912001805490915065ffffffffffff811690600160301b90046001600160d01b0316858211611554576001600160d01b031695945050505050565b6115686115608761233a565b60099061236c565b6001600160d01b03169695505050505050565b611583611e29565b610ac781612421565b60008033905061128486828787878080601f01602080910402602001604051908101604052809392919081815260200183838082843760009201919091525061219292505050565b6000336115e18184612487565b611600578060405163d9b3955760e01b8152600401610e699190613c5c565b6000611627826001611610611779565b61161a919061485d565b65ffffffffffff16611b55565b90506000611633611846565b90508082101561166f57604051636121770b60e11b81526001600160a01b03841660048201526024810183905260448101829052606401610e69565b61167c8888888887612572565b98975050505050505050565b60006060806000806000606061169c612581565b6116a46125ae565b60408051600080825260208201909252600f60f81b9b939a50919850469750309650945092509050565b60008061173c8461141f7ff2aad550cf55f045cb27e9c559f9889fdfb6e6cdaa032301d6ea397784ae51d78989896117058b6121b5565b60408051602081019690965285019390935260ff90911660608401526001600160a01b0316608083015260a082015260c001611404565b90508061175e57836040516394ab6c0760e01b8152600401610e699190613c5c565b61128486858760405180602001604052806000815250612192565b6000611783611c69565b6001600160a01b03166391ddadf46040518163ffffffff1660e01b8152600401602060405180830381865afa9250505080156117dc575060408051601f3d908101601f191682019092526117d991810190614883565b60015b61133257610a5f6125db565b60006113588484846125e6565b60006118016009612663565b6001600160d01b0316905090565b611817611e29565b610ac78161269c565b60006001610ab0565b60009081526004602052604090206001015465ffffffffffff1690565b6000610a5f600b5490565b60003061185c610a55565b6001600160a01b03161461188357604051637485328f60e11b815260040160405180910390fd5b5063bc197c8160e01b95945050505050565b6000818152600460205260408120546118ca90600160d01b810463ffffffff1690600160a01b900465ffffffffffff166148a0565b65ffffffffffff1692915050565b6118e0611e29565b600080856001600160a01b03168585856040516118fe929190614824565b60006040518083038185875af1925050503d806000811461193b576040519150601f19603f3d011682016040523d82523d6000602084013e611940565b606091505b509150915061194f8282612716565b50505050505050565b600084848484604051602001611971949392919061408e565b60408051601f19818403018152919052805160209091012095945050505050565b600c54600160501b90046001600160a01b031690565b600081815260086020908152604091829020805483518184028101840190945280845290926112179290918491830182828015611a0e57602002820191906000526020600020905b81546001600160a01b031681526001909101906020018083116119f0575b505050505082600101805480602002602001604051908101604052809291908181526020018280548015611a6157602002820191906000526020600020905b815481526020019060010190808311611a4d575b505050505083600201805480602002602001604051908101604052809291908181526020016000905b82821015611b36578382906000526020600020018054611aa990614767565b80601f0160208091040260200160405190810160405280929190818152602001828054611ad590614767565b8015611b225780601f10611af757610100808354040283529160200191611b22565b820191906000526020600020905b815481529060010190602001808311611b0557829003601f168201915b505050505081526020019060010190611a8a565b505050508460030154610bba565b611b4c611e29565b610ac781612732565b6000611b768383611b7160408051602081019091526000815290565b6125e6565b9392505050565b611b85611e29565b610ac7816127cd565b600030611b99610a55565b6001600160a01b031614611bc057604051637485328f60e11b815260040160405180910390fd5b5063f23a6e6160e01b95945050505050565b60006064611bdf836114ed565b611be7611c69565b6001600160a01b0316638e539e8c856040518263ffffffff1660e01b8152600401611c1491815260200190565b602060405180830381865afa158015611c31573d6000803e3d6000fd5b505050506040513d601f19601f82011682018060405250810190611c5591906148bf565b611c5f91906148d8565b610ab09190614905565b7f000000000000000000000000000000000000000000000000000000000000000090565b600081815260086020908152604091829020805483518184028101840190945280845290926112179290918491830182828015611cf357602002820191906000526020600020905b81546001600160a01b03168152600190910190602001808311611cd5575b505050505082600101805480602002602001604051908101604052809291908181526020018280548015611d4657602002820191906000526020600020905b815481526020019060010190808311611d32575b505050505083600201805480602002602001604051908101604052809291908181526020016000905b82821015611e1b578382906000526020600020018054611d8e90614767565b80601f0160208091040260200160405190810160405280929190818152602001828054611dba90614767565b8015611e075780601f10611ddc57610100808354040283529160200191611e07565b820191906000526020600020905b815481529060010190602001808311611dea57829003601f168201915b505050505081526020019060010190611d6f565b505050508460030154610e93565b33611e32610a55565b6001600160a01b031614611e5b57336040516347096e4760e01b8152600401610e699190613c5c565b30611e64610a55565b6001600160a01b031614611ea15760008036604051611e84929190614824565b604051809103902090505b80611e9a600561280e565b03611e8f57505b565b606480821115611ed05760405163243e544560e01b81526004810183905260248101829052604401610e69565b6000611eda6117f5565b9050611ef9611ee7611779565b611ef085612883565b600991906128b2565b505060408051828152602081018590527f0553476bf02ef2726e8ce5ced78d63e26e602e4a2257b1f559418e24b4633997910160405180910390a1505050565b6000816007811115611f4d57611f4d61412b565b600160ff919091161b92915050565b600080611f6884611070565b9050600083611f7683611f39565b1603611b76578381846040516331b75e4d60e01b8152600401610e6993929190614927565b600061128486868686866128cd565b81546001600160801b03600160801b820481169181166001830190911603611fe557604051638acb5f2760e01b815260040160405180910390fd5b6001600160801b03808216600090815260018086016020526040909120939093558354919092018216600160801b029116179055565b6120288585858585612a6d565b5050505050565b60008061203b83612afe565b905060058160078111156120515761205161412b565b1461205c5792915050565b6000838152600d60205260409081902054600c549151632c258a9f60e11b8152600481018290529091600160501b90046001600160a01b03169063584b153e90602401602060405180830381865afa1580156120bc573d6000803e3d6000fd5b505050506040513d601f19601f820116820180604052508101906120e09190614949565b156120ef575060059392505050565b600c54604051632ab0f52960e01b815260048101839052600160501b9091046001600160a01b031690632ab0f52990602401602060405180830381865afa15801561213e573d6000803e3d6000fd5b505050506040513d601f19601f820116820180604052508101906121629190614949565b15612171575060079392505050565b5060029392505050565b600061218985858585612c27565b95945050505050565b6000612189858585856121b060408051602081019091526000815290565b61225d565b6001600160a01b0316600090815260026020526040902080546001810190915590565b6000610ab06121e5612ccc565b8360405161190160f01b8152600281019290925260228201526042902090565b60008060006122148585612df7565b509092509050600081600381111561222e5761222e61412b565b14801561224c5750856001600160a01b0316826001600160a01b0316145b806112845750611284868686612e44565b600061226d86610bd96001611f39565b5060006122838661227d89610fff565b856125e6565b90506122928787878487612f1f565b82516000036122e757856001600160a01b03167fb8e138887d0aa13bab447e82de9d5c1777041ecd21ca36ba824ff1e6c07ddda4888784886040516122da949392919061496b565b60405180910390a2611284565b856001600160a01b03167fe2babfbac5889a709b63bb7f598b324e08bc5a4fb9ec647fb3cbc9ec07eb87128887848888604051612328959493929190614993565b60405180910390a29695505050505050565b600065ffffffffffff821115612368576030826040516306dfcc6560e41b8152600401610e699291906149cd565b5090565b8154600090818160058111156123cb57600061238784613017565b612391908561484a565b60008881526020902090915081015465ffffffffffff90811690871610156123bb578091506123c9565b6123c68160016149e0565b92505b505b60006123d9878785856130ff565b90508015612414576123fe876123f060018461484a565b600091825260209091200190565b54600160301b90046001600160d01b03166114e2565b6000979650505050505050565b600c546040805165ffffffffffff928316815291831660208301527fc565b045403dc03c2eea82b81a0465edad9e2e7fc4d97e11421c209da93d7a93910160405180910390a1600c805465ffffffffffff191665ffffffffffff92909216919091179055565b8051600090603481101561249f576001915050610ab0565b82810160131901516001600160a01b031981166b046e0e4dee0dee6cae47a60f60a31b146124d257600192505050610ab0565b6000806124e060288561484a565b90505b8381101561255157600080612517888481518110612503576125036147a1565b01602001516001600160f81b031916613161565b915091508161252f5760019650505050505050610ab0565b8060ff166004856001600160a01b0316901b17935050508060010190506124e3565b50856001600160a01b0316816001600160a01b031614935050505092915050565b600061128486868686866131f3565b6060610a5f7f000000000000000000000000000000000000000000000000000000000000000060006132ce565b6060610a5f7f000000000000000000000000000000000000000000000000000000000000000060016132ce565b6000610a5f4361233a565b60006125f0611c69565b604051630748d63560e31b81526001600160a01b038681166004830152602482018690529190911690633a46b1a890604401602060405180830381865afa15801561263f573d6000803e3d6000fd5b505050506040513d601f19601f8201168201806040525081019061135891906148bf565b805460009080156126935761267d836123f060018461484a565b54600160301b90046001600160d01b0316611b76565b60009392505050565b600c54604080516001600160a01b03600160501b9093048316815291831660208301527f08f74ea46ef7894f65eabfb5e6e695de773a000b47c529ab559178069b226401910160405180910390a1600c80546001600160a01b03909216600160501b02600160501b600160f01b0319909216919091179055565b60608261272b5761272682613379565b610ab0565b5080610ab0565b8063ffffffff1660000361275c5760405163f1cfbf0560e01b815260006004820152602401610e69565b600c546040805163ffffffff600160301b9093048316815291831660208301527f7e3f7f0708a84de9203036abaa450dccc85ad5ff52f78c170f3edb55cf5e8828910160405180910390a1600c805463ffffffff909216600160301b0263ffffffff60301b19909216919091179055565b600b5460408051918252602082018390527fccb45da8d5717e6c4544694297c4ba5cf151d455c9bb0ed4fc7a38411bc05461910160405180910390a1600b55565b80546000906001600160801b0380821691600160801b9004168103612846576040516375e52f4f60e01b815260040160405180910390fd5b6001600160801b038181166000908152600185810160205260408220805492905585546001600160801b0319169301909116919091179092555090565b60006001600160d01b038211156123685760d0826040516306dfcc6560e41b8152600401610e699291906149cd565b6000806128c08585856133a2565b915091505b935093915050565b600080600c600a9054906101000a90046001600160a01b03166001600160a01b031663f27a0c926040518163ffffffff1660e01b8152600401602060405180830381865afa158015612923573d6000803e3d6000fd5b505050506040513d601f19601f8201168201806040525081019061294791906148bf565b905060006129548461351c565b600c5460405163b1c5f42760e01b8152919250600160501b90046001600160a01b03169063b1c5f42790612995908a908a908a9060009088906004016149f3565b602060405180830381865afa1580156129b2573d6000803e3d6000fd5b505050506040513d601f19601f820116820180604052508101906129d691906148bf565b6000898152600d602052604080822092909255600c5491516308f2a0bb60e41b8152600160501b9092046001600160a01b031691638f2a0bb091612a27918b918b918b919088908a90600401614a41565b600060405180830381600087803b158015612a4157600080fd5b505af1158015612a55573d6000803e3d6000fd5b5050505061167c8242612a6891906149e0565b61233a565b600c54600160501b90046001600160a01b031663e38335e5348686866000612a948861351c565b6040518763ffffffff1660e01b8152600401612ab49594939291906149f3565b6000604051808303818588803b158015612acd57600080fd5b505af1158015612ae1573d6000803e3d6000fd5b50505060009687525050600d602052505060408320929092555050565b6000818152600460205260408120805460ff600160f01b8204811691600160f81b9004168115612b3357506007949350505050565b8015612b4457506002949350505050565b6000612b4f86610fff565b905080600003612b7557604051636ad0607560e01b815260048101879052602401610e69565b6000612b7f611779565b65ffffffffffff169050808210612b9d575060009695505050505050565b6000612ba888611895565b9050818110612bbf57506001979650505050505050565b612bc88861352e565b1580612be857506000888152600a60205260409020805460019091015411155b15612bfb57506003979650505050505050565b612c0488611829565b600003612c1957506004979650505050505050565b506005979650505050505050565b600080612c3686868686613565565b6000818152600d60205260409020549091508015610c7f57600c5460405163c4d252f560e01b815260048101839052600160501b9091046001600160a01b03169063c4d252f590602401600060405180830381600087803b158015612c9a57600080fd5b505af1158015612cae573d6000803e3d6000fd5b5050506000838152600d602052604081205550509050949350505050565b6000306001600160a01b037f000000000000000000000000000000000000000000000000000000000000000016148015612d2557507f000000000000000000000000000000000000000000000000000000000000000046145b15612d4f57507f000000000000000000000000000000000000000000000000000000000000000090565b610a5f604080517f8b73c3c69bb8fe3d512ecc4cf759cc79239f7b179b0ffacaa9a75d522b39400f60208201527f0000000000000000000000000000000000000000000000000000000000000000918101919091527f000000000000000000000000000000000000000000000000000000000000000060608201524660808201523060a082015260009060c00160405160208183030381529060405280519060200120905090565b60008060008351604103612e315760208401516040850151606086015160001a612e2388828585613616565b955095509550505050612e3d565b50508151600091506002905b9250925092565b6000806000856001600160a01b03168585604051602401612e66929190614a99565b60408051601f198184030181529181526020820180516001600160e01b0316630b135d3f60e11b17905251612e9b9190614ab2565b600060405180830381855afa9150503d8060008114612ed6576040519150601f19603f3d011682016040523d82523d6000602084013e612edb565b606091505b5091509150818015612eef57506020815110155b801561128457508051630b135d3f60e11b90612f1490830160209081019084016148bf565b149695505050505050565b6000858152600a602090815260408083206001600160a01b0388168452600381019092529091205460ff1615612f6a57846040516371c6af4960e01b8152600401610e699190613c5c565b6001600160a01b03851660009081526003820160205260409020805460ff1916600117905560ff8416612fb65782816000016000828254612fab91906149e0565b9091555061300f9050565b60001960ff851601612fd65782816001016000828254612fab91906149e0565b60011960ff851601612ff65782816002016000828254612fab91906149e0565b6040516303599be160e11b815260040160405180910390fd5b505050505050565b60008160000361302957506000919050565b60006001613036846136db565b901c6001901b9050600181848161304f5761304f6148ef565b048201901c90506001818481613067576130676148ef565b048201901c9050600181848161307f5761307f6148ef565b048201901c90506001818481613097576130976148ef565b048201901c905060018184816130af576130af6148ef565b048201901c905060018184816130c7576130c76148ef565b048201901c905060018184816130df576130df6148ef565b048201901c9050611b76818285816130f9576130f96148ef565b0461376f565b60005b818310156131595760006131168484613785565b60008781526020902090915065ffffffffffff86169082015465ffffffffffff16111561314557809250613153565b6131508160016149e0565b93505b50613102565b509392505050565b60008060f883901c602f8111801561317c5750603a8160ff16105b1561319157600194602f199091019350915050565b8060ff1660401080156131a7575060478160ff16105b156131bc576001946036199091019350915050565b8060ff1660601080156131d2575060678160ff16105b156131e7576001946056199091019350915050565b50600093849350915050565b60008061320387878787876137a0565b6007805460018101825560009182527fa66cc928b5edb82af9bd49922954155ab7b0942694bea4ce44661d9a8736c68801829055604080516080810182528a815260208181018b90528183018a9052885189820120606083015284845260088152919092208251805194955092939092613281928492910190613a5c565b50602082810151805161329a9260018501920190613abd565b50604082015180516132b6916002840191602090910190613af8565b50606091909101516003909101559695505050505050565b606060ff83146132e8576132e1836139c9565b9050610ab0565b8180546132f490614767565b80601f016020809104026020016040519081016040528092919081815260200182805461332090614767565b801561336d5780601f106133425761010080835404028352916020019161336d565b820191906000526020600020905b81548152906001019060200180831161335057829003601f168201915b50505050509050610ab0565b8051156133895780518082602001fd5b604051630a12f52160e11b815260040160405180910390fd5b8254600090819080156134c15760006133c0876123f060018561484a565b60408051808201909152905465ffffffffffff808216808452600160301b9092046001600160d01b03166020840152919250908716101561341457604051632520601d60e01b815260040160405180910390fd5b805165ffffffffffff8088169116036134605784613437886123f060018661484a565b80546001600160d01b0392909216600160301b0265ffffffffffff9092169190911790556134b1565b6040805180820190915265ffffffffffff80881682526001600160d01b0380881660208085019182528b54600181018d5560008d81529190912094519151909216600160301b029216919091179101555b6020015192508391506128c59050565b50506040805180820190915265ffffffffffff80851682526001600160d01b0380851660208085019182528854600181018a5560008a815291822095519251909316600160301b0291909316179201919091559050816128c5565b6001600160601b03193060601b161890565b6000818152600a602052604081206002810154600182015461355091906149e0565b61355c610a2885610fff565b11159392505050565b60008061357486868686611958565b90506135c2816135846007611f39565b61358e6006611f39565b6135986002611f39565b60016135a5600782614ace565b6135b0906002614bcb565b6135ba919061484a565b181818611f5c565b506000818152600460205260409081902080546001600160f81b0316600160f81b179055517f789cf55be980739dad1d0699b93b58e806b51c9d96619bfa8fe0a28abaa7b30c90610fee9083815260200190565b600080806fa2a8918ca85bafe22016d0b997e4df60600160ff1b0384111561364757506000915060039050826136d1565b604080516000808252602082018084528a905260ff891692820192909252606081018790526080810186905260019060a0016020604051602081039080840390855afa15801561369b573d6000803e3d6000fd5b5050604051601f1901519150506001600160a01b0381166136c7575060009250600191508290506136d1565b9250600091508190505b9450945094915050565b600080608083901c156136f057608092831c92015b604083901c1561370257604092831c92015b602083901c1561371457602092831c92015b601083901c1561372657601092831c92015b600883901c1561373857600892831c92015b600483901c1561374a57600492831c92015b600283901c1561375c57600292831c92015b600183901c15610ab05760010192915050565b600081831061377e5781611b76565b5090919050565b60006137946002848418614905565b611b76908484166149e0565b60006137b58686868680519060200120611958565b9050845186511415806137ca57508351865114155b806137d457508551155b1561380957855184518651604051630447b05d60e41b8152600481019390935260248301919091526044820152606401610e69565b600081815260046020526040902054600160a01b900465ffffffffffff1615613854578061383682611070565b6040516331b75e4d60e01b8152610e69929190600090600401614927565b6000613867600c5465ffffffffffff1690565b61386f611779565b65ffffffffffff1661388191906149e0565b9050600061389c600c5463ffffffff600160301b9091041690565b600084815260046020526040902080546001600160a01b0319166001600160a01b0387161781559091506138cf8361233a565b815465ffffffffffff91909116600160a01b0265ffffffffffff60a01b199091161781556138fc82613a08565b815463ffffffff91909116600160d01b0263ffffffff60d01b1990911617815588517f7d84a6263ae0d98d3329bd7b46bb4e8d6f98cd35a7adb45c274c8b7fd5ebd5e090859087908c908c906001600160401b0381111561395f5761395f613c85565b60405190808252806020026020018201604052801561399257816020015b606081526020019060019003908161397d5790505b508c8961399f8a826149e0565b8e6040516139b599989796959493929190614bda565b60405180910390a150505095945050505050565b606060006139d683613a34565b604080516020808252818301909252919250600091906020820181803683375050509182525060208101929092525090565b600063ffffffff821115612368576020826040516306dfcc6560e41b8152600401610e699291906149cd565b600060ff8216601f811115610ab057604051632cd44ac360e21b815260040160405180910390fd5b828054828255906000526020600020908101928215613ab1579160200282015b82811115613ab157825182546001600160a01b0319166001600160a01b03909116178255602090920191600190910190613a7c565b50612368929150613b4a565b828054828255906000526020600020908101928215613ab1579160200282015b82811115613ab1578251825591602001919060010190613add565b828054828255906000526020600020908101928215613b3e579160200282015b82811115613b3e5782518290613b2e9082614cf9565b5091602001919060010190613b18565b50612368929150613b5f565b5b808211156123685760008155600101613b4b565b80821115612368576000613b738282613b7c565b50600101613b5f565b508054613b8890614767565b6000825580601f10613b98575050565b601f016020900490600052602060002090810190610ac79190613b4a565b600060208284031215613bc857600080fd5b81356001600160e01b031981168114611b7657600080fd5b600060208284031215613bf257600080fd5b5035919050565b60005b83811015613c14578181015183820152602001613bfc565b50506000910152565b60008151808452613c35816020860160208601613bf9565b601f01601f19169290920160200192915050565b602081526000611b766020830184613c1d565b6001600160a01b0391909116815260200190565b6001600160a01b0381168114610ac757600080fd5b634e487b7160e01b600052604160045260246000fd5b604051601f8201601f191681016001600160401b0381118282101715613cc357613cc3613c85565b604052919050565b60006001600160401b03821115613ce457613ce4613c85565b50601f01601f191660200190565b6000613d05613d0084613ccb565b613c9b565b9050828152838383011115613d1957600080fd5b828260208301376000602084830101529392505050565b600082601f830112613d4157600080fd5b611b7683833560208501613cf2565b60008060008060808587031215613d6657600080fd5b8435613d7181613c70565b93506020850135613d8181613c70565b92506040850135915060608501356001600160401b03811115613da357600080fd5b613daf87828801613d30565b91505092959194509250565b60006001600160401b03821115613dd457613dd4613c85565b5060051b60200190565b600082601f830112613def57600080fd5b81356020613dff613d0083613dbb565b8083825260208201915060208460051b870101935086841115613e2157600080fd5b602086015b84811015613e46578035613e3981613c70565b8352918301918301613e26565b509695505050505050565b600082601f830112613e6257600080fd5b81356020613e72613d0083613dbb565b8083825260208201915060208460051b870101935086841115613e9457600080fd5b602086015b84811015613e465780358352918301918301613e99565b600082601f830112613ec157600080fd5b81356020613ed1613d0083613dbb565b82815260059290921b84018101918181019086841115613ef057600080fd5b8286015b84811015613e465780356001600160401b03811115613f135760008081fd5b613f218986838b0101613d30565b845250918301918301613ef4565b60008060008060808587031215613f4557600080fd5b84356001600160401b0380821115613f5c57600080fd5b613f6888838901613dde565b95506020870135915080821115613f7e57600080fd5b613f8a88838901613e51565b94506040870135915080821115613fa057600080fd5b50613fad87828801613eb0565b949793965093946060013593505050565b60008151808452602080850194506020840160005b83811015613ff85781516001600160a01b031687529582019590820190600101613fd3565b509495945050505050565b60008151808452602080850194506020840160005b83811015613ff857815187529582019590820190600101614018565b60008282518085526020808601955060208260051b8401016020860160005b8481101561408157601f1986840301895261406f838351613c1d565b98840198925090830190600101614053565b5090979650505050505050565b6080815260006140a16080830187613fbe565b82810360208401526140b38187614003565b905082810360408401526140c78186614034565b91505082606083015295945050505050565b85815260a0602082015260006140f260a0830187613fbe565b82810360408401526141048187614003565b905082810360608401526141188186614034565b9150508260808301529695505050505050565b634e487b7160e01b600052602160045260246000fd5b6008811061415f57634e487b7160e01b600052602160045260246000fd5b9052565b60208101610ab08284614141565b6000806040838503121561418457600080fd5b82359150602083013561419681613c70565b809150509250929050565b803560ff8116811461133257600080fd5b600080604083850312156141c557600080fd5b823591506141d5602084016141a1565b90509250929050565b60008083601f8401126141f057600080fd5b5081356001600160401b0381111561420757600080fd5b60208301915083602082850101111561421f57600080fd5b9250929050565b600080600080600080600060c0888a03121561424157600080fd5b87359650614251602089016141a1565b9550604088013561426181613c70565b945060608801356001600160401b038082111561427d57600080fd5b6142898b838c016141de565b909650945060808a01359150808211156142a257600080fd5b6142ae8b838c01613d30565b935060a08a01359150808211156142c457600080fd5b506142d18a828b01613d30565b91505092959891949750929550565b6000806000806000608086880312156142f857600080fd5b85359450614308602087016141a1565b935060408601356001600160401b038082111561432457600080fd5b61433089838a016141de565b9095509350606088013591508082111561434957600080fd5b5061435688828901613d30565b9150509295509295909350565b65ffffffffffff81168114610ac757600080fd5b60006020828403121561438957600080fd5b8135611b7681614363565b600080600080606085870312156143aa57600080fd5b843593506143ba602086016141a1565b925060408501356001600160401b038111156143d557600080fd5b6143e1878288016141de565b95989497509550505050565b6000806000806080858703121561440357600080fd5b84356001600160401b038082111561441a57600080fd5b61442688838901613dde565b9550602087013591508082111561443c57600080fd5b61444888838901613e51565b9450604087013591508082111561445e57600080fd5b61446a88838901613eb0565b9350606087013591508082111561448057600080fd5b508501601f8101871361449257600080fd5b613daf87823560208401613cf2565b6000602082840312156144b357600080fd5b8135611b7681613c70565b60ff60f81b8816815260e0602082015260006144dd60e0830189613c1d565b82810360408401526144ef8189613c1d565b606084018890526001600160a01b038716608085015260a0840186905283810360c085015290506145208185614003565b9a9950505050505050505050565b6000806000806080858703121561454457600080fd5b84359350614554602086016141a1565b9250604085013561456481613c70565b915060608501356001600160401b03811115613da357600080fd5b60008060006060848603121561459457600080fd5b833561459f81613c70565b92506020840135915060408401356001600160401b038111156145c157600080fd5b6145cd86828701613d30565b9150509250925092565b600080600080600060a086880312156145ef57600080fd5b85356145fa81613c70565b9450602086013561460a81613c70565b935060408601356001600160401b038082111561462657600080fd5b61463289838a01613e51565b9450606088013591508082111561464857600080fd5b61465489838a01613e51565b9350608088013591508082111561434957600080fd5b6000806000806060858703121561468057600080fd5b843561468b81613c70565b93506020850135925060408501356001600160401b038111156143d557600080fd5b6000602082840312156146bf57600080fd5b813563ffffffff81168114611b7657600080fd5b600080604083850312156146e657600080fd5b82356146f181613c70565b946020939093013593505050565b600080600080600060a0868803121561471757600080fd5b853561472281613c70565b9450602086013561473281613c70565b9350604086013592506060860135915060808601356001600160401b0381111561475b57600080fd5b61435688828901613d30565b600181811c9082168061477b57607f821691505b60208210810361479b57634e487b7160e01b600052602260045260246000fd5b50919050565b634e487b7160e01b600052603260045260246000fd5b6000602082840312156147c957600080fd5b81516001600160401b038111156147df57600080fd5b8201601f810184136147f057600080fd5b80516147fe613d0082613ccb565b81815285602083850101111561481357600080fd5b612189826020830160208601613bf9565b8183823760009101908152919050565b634e487b7160e01b600052601160045260246000fd5b81810381811115610ab057610ab0614834565b65ffffffffffff82811682821603908082111561487c5761487c614834565b5092915050565b60006020828403121561489557600080fd5b8151611b7681614363565b65ffffffffffff81811683821601908082111561487c5761487c614834565b6000602082840312156148d157600080fd5b5051919050565b8082028115828204841417610ab057610ab0614834565b634e487b7160e01b600052601260045260246000fd5b60008261492257634e487b7160e01b600052601260045260246000fd5b500490565b8381526060810161493b6020830185614141565b826040830152949350505050565b60006020828403121561495b57600080fd5b81518015158114611b7657600080fd5b84815260ff841660208201528260408201526080606082015260006112846080830184613c1d565b85815260ff8516602082015283604082015260a0606082015260006149bb60a0830185613c1d565b828103608084015261167c8185613c1d565b60ff929092168252602082015260400190565b80820180821115610ab057610ab0614834565b60a081526000614a0660a0830188613fbe565b8281036020840152614a188188614003565b90508281036040840152614a2c8187614034565b60608401959095525050608001529392505050565b60c081526000614a5460c0830189613fbe565b8281036020840152614a668189614003565b90508281036040840152614a7a8188614034565b60608401969096525050608081019290925260a0909101529392505050565b8281526040602082015260006113586040830184613c1d565b60008251614ac4818460208701613bf9565b9190910192915050565b60ff8181168382160190811115610ab057610ab0614834565b600181815b80851115614b22578160001904821115614b0857614b08614834565b80851615614b1557918102915b93841c9390800290614aec565b509250929050565b600082614b3957506001610ab0565b81614b4657506000610ab0565b8160018114614b5c5760028114614b6657614b82565b6001915050610ab0565b60ff841115614b7757614b77614834565b50506001821b610ab0565b5060208310610133831016604e8410600b8410161715614ba5575081810a610ab0565b614baf8383614ae7565b8060001904821115614bc357614bc3614834565b029392505050565b6000611b7660ff841683614b2a565b60006101208b8352602060018060a01b038c1681850152816040850152614c038285018c613fbe565b91508382036060850152614c17828b614003565b915083820360808501528189518084528284019150828160051b850101838c0160005b83811015614c6857601f19878403018552614c56838351613c1d565b94860194925090850190600101614c3a565b505086810360a0880152614c7c818c614034565b9450505050508560c08401528460e0840152828103610100840152614ca18185613c1d565b9c9b505050505050505050505050565b601f821115611217576000816000526020600020601f850160051c81016020861015614cda5750805b601f850160051c820191505b8181101561300f57828155600101614ce6565b81516001600160401b03811115614d1257614d12613c85565b614d2681614d208454614767565b84614cb1565b602080601f831160018114614d5b5760008415614d435750858301515b600019600386901b1c1916600185901b17855561300f565b600085815260208120601f198616915b82811015614d8a57888601518255948401946001909101908401614d6b565b5085821015614da85787850151600019600388901b60f8161c191681555b5050505050600190811b0190555056fea2646970667358221220af72ae8d091ec2f7d2a7849f5b1b3ce5a4b69b244be666a8c10e7c1bab158bad64736f6c63430008180033",
  "linkReferences": {},
  "deployedLinkReferences": {}
}