{
  "_format": "hh-sol-artifact-1",
  "contractName": "ChainlinkBasedOracle",
  "sourceName": "src/oracles/chainlinkBasedOracle.sol",
  "abi": [
    {
      "inputs": [
        {
          "internalType": "address",
          "name": "_underlyingUSDChainlinkAggregator",
          "type": "address"
        },
        {
          "internalType": "address",
          "name": "_ETHUSDChainlinkAggregator",
          "type": "address"
        },
        {
          "internalType": "string",
          "name": "_description",
          "type": "string"
        }
      ],
      "stateMutability": "nonpayable",
      "type": "constructor"
    },
    {
      "inputs": [],
      "name": "ETHUSDChainlinkAggregator",
      "outputs": [
        {
          "internalType": "address",
          "name": "",
          "type": "address"
        }
      ],
      "stateMutability": "view",
      "type": "function"
    },
    {
      "inputs": [],
      "name": "decimals",
      "outputs": [
        {
          "internalType": "uint8",
          "name": "",
          "type": "uint8"
        }
      ],
      "stateMutability": "pure",
      "type": "function"
    },
    {
      "inputs": [],
      "name": "description",
      "outputs": [
        {
          "internalType": "string",
          "name": "",
          "type": "string"
        }
      ],
      "stateMutability": "view",
      "type": "function"
    },
    {
      "inputs": [],
      "name": "latestAnswer",
      "outputs": [
        {
          "internalType": "int256",
          "name": "answer",
          "type": "int256"
        }
      ],
      "stateMutability": "view",
      "type": "function"
    },
    {
      "inputs": [],
      "name": "latestTimestamp",
      "outputs": [
        {
          "internalType": "uint256",
          "name": "timestamp",
          "type": "uint256"
        }
      ],
      "stateMutability": "view",
      "type": "function"
    },
    {
      "inputs": [],
      "name": "underlyingUSDChainlinkAggregator",
      "outputs": [
        {
          "internalType": "address",
          "name": "",
          "type": "address"
        }
      ],
      "stateMutability": "view",
      "type": "function"
    }
  ],
  "bytecode": "0x60c060405234801561001057600080fd5b506040516107d43803806107d483398101604081905261002f91610089565b6001600160a01b03808416608052821660a052600061004e82826101fe565b505050506102bd565b80516001600160a01b038116811461006e57600080fd5b919050565b634e487b7160e01b600052604160045260246000fd5b60008060006060848603121561009e57600080fd5b6100a784610057565b925060206100b6818601610057565b60408601519093506001600160401b03808211156100d357600080fd5b818701915087601f8301126100e757600080fd5b8151818111156100f9576100f9610073565b604051601f8201601f19908116603f0116810190838211818310171561012157610121610073565b816040528281528a8684870101111561013957600080fd5b600093505b8284101561015b578484018601518185018701529285019261013e565b60008684830101528096505050505050509250925092565b600181811c9082168061018757607f821691505b6020821081036101a757634e487b7160e01b600052602260045260246000fd5b50919050565b601f8211156101f9576000816000526020600020601f850160051c810160208610156101d65750805b601f850160051c820191505b818110156101f5578281556001016101e2565b5050505b505050565b81516001600160401b0381111561021757610217610073565b61022b816102258454610173565b846101ad565b602080601f83116001811461026057600084156102485750858301515b600019600386901b1c1916600185901b1785556101f5565b600085815260208120601f198616915b8281101561028f57888601518255948401946001909101908401610270565b50858210156102ad5787850151600019600388901b60f8161c191681555b5050505050600190811b01905550565b60805160a0516104df6102f56000396000818160b3015261011901526000818160f20152818161019f01526102fa01526104df6000f3fe608060405234801561001057600080fd5b50600436106100625760003560e01c8063313ce5671461006757806350d25bcd1461007b5780637284e416146100915780638205bf6a146100a6578063926b7cba146100ae578063fb158ed4146100ed575b600080fd5b604051601281526020015b60405180910390f35b610083610114565b604051908152602001610072565b610099610264565b604051610072919061037f565b6100836102f6565b6100d57f000000000000000000000000000000000000000000000000000000000000000081565b6040516001600160a01b039091168152602001610072565b6100d57f000000000000000000000000000000000000000000000000000000000000000081565b6000807f00000000000000000000000000000000000000000000000000000000000000006001600160a01b03166350d25bcd6040518163ffffffff1660e01b8152600401602060405180830381865afa158015610175573d6000803e3d6000fd5b505050506040513d601f19601f8201168201806040525081019061019991906103ce565b905060007f00000000000000000000000000000000000000000000000000000000000000006001600160a01b03166350d25bcd6040518163ffffffff1660e01b8152600401602060405180830381865afa1580156101fb573d6000803e3d6000fd5b505050506040513d601f19601f8201168201806040525081019061021f91906103ce565b9050600082131580610232575060008113155b156102405760009250505090565b8161025382670de0b6b3a76400006103fd565b61025d9190610433565b9250505090565b6060600080546102739061046f565b80601f016020809104026020016040519081016040528092919081815260200182805461029f9061046f565b80156102ec5780601f106102c1576101008083540402835291602001916102ec565b820191906000526020600020905b8154815290600101906020018083116102cf57829003601f168201915b5050505050905090565b60007f00000000000000000000000000000000000000000000000000000000000000006001600160a01b0316638205bf6a6040518163ffffffff1660e01b8152600401602060405180830381865afa158015610356573d6000803e3d6000fd5b505050506040513d601f19601f8201168201806040525081019061037a91906103ce565b905090565b60006020808352835180602085015260005b818110156103ad57858101830151858201604001528201610391565b506000604082860101526040601f19601f8301168501019250505092915050565b6000602082840312156103e057600080fd5b5051919050565b634e487b7160e01b600052601160045260246000fd5b80820260008212600160ff1b84141615610419576104196103e7565b818105831482151761042d5761042d6103e7565b92915050565b60008261045057634e487b7160e01b600052601260045260246000fd5b600160ff1b82146000198414161561046a5761046a6103e7565b500590565b600181811c9082168061048357607f821691505b6020821081036104a357634e487b7160e01b600052602260045260246000fd5b5091905056fea26469706673582212201adc5a1c0757b7a744bfd2e5d978d6a020bf51873c25c88f26a49ebad998e40664736f6c63430008180033",
  "linkReferences": {},
  "deployedLinkReferences": {}
}