{
  "_format": "hh-sol-artifact-1",
  "contractName": "MockAggregatorProxy",
  "sourceName": "src/mocks/MockAggregatorProxy.sol",
  "abi": [
    {
      "inputs": [
        {
          "internalType": "uint8",
          "name": "_decimals",
          "type": "uint8"
        }
      ],
      "stateMutability": "nonpayable",
      "type": "constructor"
    },
    {
      "inputs": [],
      "name": "currentRoundId_",
      "outputs": [
        {
          "internalType": "uint80",
          "name": "",
          "type": "uint80"
        }
      ],
      "stateMutability": "view",
      "type": "function"
    },
    {
      "inputs": [
        {
          "internalType": "uint256",
          "name": "",
          "type": "uint256"
        }
      ],
      "name": "data_",
      "outputs": [
        {
          "internalType": "uint80",
          "name": "roundId",
          "type": "uint80"
        },
        {
          "internalType": "int256",
          "name": "answer",
          "type": "int256"
        },
        {
          "internalType": "uint256",
          "name": "timestamp",
          "type": "uint256"
        },
        {
          "internalType": "uint256",
          "name": "roundTimestamp",
          "type": "uint256"
        },
        {
          "internalType": "uint80",
          "name": "answeredInRound",
          "type": "uint80"
        }
      ],
      "stateMutability": "view",
      "type": "function"
    },
    {
      "inputs": [],
      "name": "decimals",
      "outputs": [
        {
          "internalType": "uint8",
          "name": "",
          "type": "uint8"
        }
      ],
      "stateMutability": "view",
      "type": "function"
    },
    {
      "inputs": [],
      "name": "decimals_",
      "outputs": [
        {
          "internalType": "uint8",
          "name": "",
          "type": "uint8"
        }
      ],
      "stateMutability": "view",
      "type": "function"
    },
    {
      "inputs": [],
      "name": "description",
      "outputs": [
        {
          "internalType": "string",
          "name": "",
          "type": "string"
        }
      ],
      "stateMutability": "pure",
      "type": "function"
    },
    {
      "inputs": [
        {
          "internalType": "uint256",
          "name": "roundId",
          "type": "uint256"
        }
      ],
      "name": "getAnswer",
      "outputs": [
        {
          "internalType": "int256",
          "name": "",
          "type": "int256"
        }
      ],
      "stateMutability": "view",
      "type": "function"
    },
    {
      "inputs": [
        {
          "internalType": "uint80",
          "name": "_roundId",
          "type": "uint80"
        }
      ],
      "name": "getRoundData",
      "outputs": [
        {
          "internalType": "uint80",
          "name": "roundId",
          "type": "uint80"
        },
        {
          "internalType": "int256",
          "name": "answer",
          "type": "int256"
        },
        {
          "internalType": "uint256",
          "name": "startedAt",
          "type": "uint256"
        },
        {
          "internalType": "uint256",
          "name": "updatedAt",
          "type": "uint256"
        },
        {
          "internalType": "uint80",
          "name": "answeredInRound",
          "type": "uint80"
        }
      ],
      "stateMutability": "view",
      "type": "function"
    },
    {
      "inputs": [
        {
          "internalType": "uint256",
          "name": "roundId",
          "type": "uint256"
        }
      ],
      "name": "getTimestamp",
      "outputs": [
        {
          "internalType": "uint256",
          "name": "",
          "type": "uint256"
        }
      ],
      "stateMutability": "view",
      "type": "function"
    },
    {
      "inputs": [],
      "name": "latestAnswer",
      "outputs": [
        {
          "internalType": "int256",
          "name": "",
          "type": "int256"
        }
      ],
      "stateMutability": "view",
      "type": "function"
    },
    {
      "inputs": [],
      "name": "latestRound",
      "outputs": [
        {
          "internalType": "uint256",
          "name": "",
          "type": "uint256"
        }
      ],
      "stateMutability": "view",
      "type": "function"
    },
    {
      "inputs": [],
      "name": "latestRoundData",
      "outputs": [
        {
          "internalType": "uint80",
          "name": "roundId",
          "type": "uint80"
        },
        {
          "internalType": "int256",
          "name": "answer",
          "type": "int256"
        },
        {
          "internalType": "uint256",
          "name": "startedAt",
          "type": "uint256"
        },
        {
          "internalType": "uint256",
          "name": "updatedAt",
          "type": "uint256"
        },
        {
          "internalType": "uint80",
          "name": "answeredInRound",
          "type": "uint80"
        }
      ],
      "stateMutability": "view",
      "type": "function"
    },
    {
      "inputs": [],
      "name": "latestTimestamp",
      "outputs": [
        {
          "internalType": "uint256",
          "name": "",
          "type": "uint256"
        }
      ],
      "stateMutability": "view",
      "type": "function"
    },
    {
      "inputs": [
        {
          "components": [
            {
              "internalType": "uint80",
              "name": "roundId",
              "type": "uint80"
            },
            {
              "internalType": "int256",
              "name": "answer",
              "type": "int256"
            },
            {
              "internalType": "uint256",
              "name": "timestamp",
              "type": "uint256"
            },
            {
              "internalType": "uint256",
              "name": "roundTimestamp",
              "type": "uint256"
            },
            {
              "internalType": "uint80",
              "name": "answeredInRound",
              "type": "uint80"
            }
          ],
          "internalType": "struct MockAggregatorProxy.Data",
          "name": "data",
          "type": "tuple"
        }
      ],
      "name": "mockSetData",
      "outputs": [],
      "stateMutability": "nonpayable",
      "type": "function"
    },
    {
      "inputs": [
        {
          "internalType": "int256",
          "name": "answer",
          "type": "int256"
        }
      ],
      "name": "mockSetValidAnswer",
      "outputs": [],
      "stateMutability": "nonpayable",
      "type": "function"
    },
    {
      "inputs": [],
      "name": "version",
      "outputs": [
        {
          "internalType": "uint256",
          "name": "",
          "type": "uint256"
        }
      ],
      "stateMutability": "pure",
      "type": "function"
    }
  ],
  "bytecode": "0x608060405234801561001057600080fd5b506040516106eb3803806106eb83398101604081905261002f91610048565b6000805460ff191660ff92909216919091179055610072565b60006020828403121561005a57600080fd5b815160ff8116811461006b57600080fd5b9392505050565b61066a806100816000396000f3fe608060405234801561001057600080fd5b50600436106100c55760003560e01c8063313ce567146100ca57806332869bc4146100e857806350d25bcd1461011857806354fd4d5014610149578063668a0f02146101505780637284e416146101665780638205bf6a1461019757806398dbf52b146101bd5780639a6fc8f5146101d2578063ae560f0914610279578063b5ab58dc1461028c578063b633620c146102b0578063bc2a62af146102d3578063f785ef721461031c578063feaf968c14610329575b600080fd5b60005460ff165b60405160ff90911681526020015b60405180910390f35b6000546101009061010090046001600160501b031681565b6040516001600160501b0390911681526020016100df565b6000805461010090046001600160501b0316815260016020819052604090912001545b6040519081526020016100df565b600161013b565b60005461010090046001600160501b031661013b565b604080518082018252600f81526e26b7b1b59020b3b3b932b3b0ba37b960891b602082015290516100df91906104c8565b6000805461010090046001600160501b031681526001602052604090206002015461013b565b6101d06101cb366004610517565b610398565b005b6102456101e0366004610547565b6001600160501b03908116600090815260016020818152604092839020835160a0810185528154861680825293820154928101839052600282015494810185905260038201546060820181905260049092015490951660809095018590529194909390565b604080516001600160501b03968716815260208101959095528401929092526060830152909116608082015260a0016100df565b6101d061028736600461056b565b610406565b61013b61029a36600461056b565b6000908152600160208190526040909120015490565b61013b6102be36600461056b565b60009081526001602052604090206002015490565b6102456102e136600461056b565b6001602081905260009182526040909120805491810154600282015460038301546004909301546001600160501b0394851694929391921685565b6000546100d19060ff1681565b6102456000805461010090046001600160501b03908116825260016020818152604093849020845160a081018652815485168082529382015492810183905260028201549581018690526003820154606082018190526004909201549094166080909401849052919490939290565b80600160006103aa6020840184610547565b6001600160501b0316815260200190815260200160002081816103cd91906105a4565b506103dd90506020820182610547565b600060016101000a8154816001600160501b0302191690836001600160501b0316021790555050565b6000805461010090046001600160501b0316906001610424836105f8565b82546001600160501b0391821661010093840a90810290830219909116179092556040805160a08101825260008054939093048416808252602080830197885242838501818152606085019182526080850184815293875260019283905294909520925183549087166001600160501b0319918216178455975190830155915160028201559151600383015551600490910180549190921693169290921790915550565b60006020808352835180602085015260005b818110156104f6578581018301518582016040015282016104da565b506000604082860101526040601f19601f8301168501019250505092915050565b600060a0828403121561052957600080fd5b50919050565b6001600160501b038116811461054457600080fd5b50565b60006020828403121561055957600080fd5b81356105648161052f565b9392505050565b60006020828403121561057d57600080fd5b5035919050565b80546001600160501b0319166001600160501b0392909216919091179055565b81356105af8161052f565b6105b98183610584565b5060208201356001820155604082013560028201556060820135600382015560808201356105e68161052f565b6105f38160048401610584565b505050565b60006001600160501b038281166002600160501b0319810161062a57634e487b7160e01b600052601160045260246000fd5b600101939250505056fea2646970667358221220232878aefd6355c522d444a7baa39431c58293d3b984fda07d70a4295b7d9a5c64736f6c63430008180033",
  "linkReferences": {},
  "deployedLinkReferences": {}
}